:100000000C946A330C949B330C949B330C949B3369
:100010000C949B330C9475B00C949B330C949B33D1
:100020000C9479B30C949B330C949B330C943498BC
:100030000C949B330D94433E0C949B330C949B3354
:100040000C949B330D949B460C949B330C949B33E4
:100050000C949B330C949B330C9432B60D94F43F68
:100060000C949B330D9406850C949B330C949B331A
:100070000C949B330C949B330C949B330C949B33C8
:100080000C949B330C949B330C949B330C949B33B8
:100090000D94C2840C949B330C949B330C949B332F
:1000A0000C949B330C949B330C949B330C949B3398
:1000B0000C949B330C949B330C949B330C949B3388
:1000C0000C949B330C949B330C949B330C949B3378
:1000D0000C949B330C949B330C949B330C949B3368
:1000E0000C949B33D401C0016601AE01600156013E
:1000F0003E01C601A8014201DE01CC015001E4012C
:100100005A015A015A01B601B601B6016201CA018B
:10011000B6017A01B201A4012A013401E2012801E9
:10012000A6016E01CE0196013C017C016A018C01A1
:100130002801E60172012C01A201640174019C01F5
:10014000AA019E014A01DC0176019A01D001F00169
:1001500068012E019E014401D8013A015E01E801C7
:10016000BE018801B001B801BA013801C401BC0167
:100170005401AC01EE0194014801EC0190017801B9
:10018000D601084AD73B3BCE016E84BCBFFDC12FD0
:100190003D6C74319ABD56833DDA3D00C77F11BE78
:1001A000D9E4BB4C3E916BAAAABE000000803F057B
:1001B000A84CCDB2D44EB93836A9020C50B99186AC
:1001C00088083CA6AAAA2ABE000000803F07634216
:1001D00036B79BD8A71A39685618AEBAAB558C1DDE
:1001E0003CB7CC5763BD6DEDFD753EF6177231BF60
:1001F000000000803F08000000BE922449123EAB80
:10020000AAAA2ABECDCCCC4C3E00000080BEABAA30
:10021000AAAA3E00000000BF000000803F000000CE
:100220000000084178D3BB4387D1133D190E3CC36E
:10023000BD4282AD2B3E68EC8276BED98FE1A93EED
:100240004C80EFFFBE01C4FF7F3F000000000000B4
:100250000D946B3D0D94233D0D94663D0D94743FBC
:100260000D94A3700D94350E0D94273D0D94995166
:100270000D94DB860D94923F0D944A3D0D94852F8D
:100280000D947E2B0D9477300D947E3F0D942B8230
:100290000D94368D0D942D3F0D94772B0D948F2B4F
:1002A0000D94E3300D94829B0D94E48C0D94692F92
:1002B0000D94CD960D94F3300D9441120D94448617
:1002C0000D943B2F0D94FB300D940A3F0D94142F89
:1002D0000D946A3F0D94543D0D94BFAB0D943C3D7D
:1002E0000D94F32D0D94623D0D940F3F0D943D3F01
:1002F0000D94828D0D9405310D94503D0D9485091A
:100300000D945E2E0D94913D0D9470970D94F00810
:100310000D9455860D9437B70D94583D0D94DF35E7
:100320000D94678D0D942A820D942B8D0D94463D6E
:100330000D94792C0D94473F0D94193F0D949C3FDB
:100340000D9410930D94053F0D94343D0D94383D5C
:100350000D9467300D94233F0D94008D0D942A2F3A
:100360000D946A860D94313D0D9421920D941931AE
:100370000D9483860D94AE860D94DE8C0D944D867F
:100380000D94022F0D94A8700D94C88C0D943D30DF
:100390000D94852B0D9429310D94B2300D94423D6E
:1003A0000D94513F0D9412860D94EB2E0D94AB8D50
:1003B0000D94883F0D94EB3C0D94353F0D94943093
:1003C0000D94A3310D942D3D0D94EB300D945E3DB5
:1003D0000D9448860D94322B0D94518D0D94258DDE
:1003E0000D945B3F0D94002E0D94C4960D94750CE6
:1003F0004E414E494E495459494E46CDCCCC3D0A0A
:10040000D7233C17B7D13877CC2B329595E6241FEC
:10041000B14F0A000020410000C84200401C4620A5
:10042000BCBE4CCA1B0E5AAEC59D7400407A10F378
:100430005A00A0724E18090010A5D4E80000E87612
:1004400048170000E40B54020000CA9A3B00000069
:10045000E1F505000080969800000040420F000082
:1004600000A08601000000102700000000E8030043
:100470000000006400000000000A0000000000010D
:1004800000000000002C76D888DC674F0823DFC10D
:10049000DFAE59E1B1B796E5E3E453C63AE65199C8
:1004A0007696E8E6C28426EB898C9B62ED407C6FF1
:1004B000FCEFBC9C9F40F2BAA56FA5F490055A2AA8
:1004C000F75C936B6CF9676DC11BFCE0E40D47FEB4
:1004D000F520E6B500D0ED902E03009435770500A9
:1004E00080841E080000204E0A000000C80C333330
:1004F00033330F986E12831141EF8D2114893BE63F
:100500005516CFFEE6DB18D1844B381BF77C1D90C7
:100510001DA4BBE424203284725E228100C9F12430
:10052000ECA1E53D27446574656B6F76616E206EC6
:100530006172617A2E00437261736820646574652C
:10054000637465642E005344207072696E74696E22
:10055000672062797465200050726F73696D206145
:100560006B7475616C697A756A74652E00506C6580
:1005700061736520757067726164652E00567973CA
:100580006C61206E6F7661207665727A652066698F
:10059000726D776172653A004E6577206669726D9B
:1005A000776172652076657273696F6E206176611E
:1005B000696C61626C653A006120737469736B6E7B
:1005C00065746520746C616369746B6F00616E643F
:1005D00020707265737320746865206B6E6F6200A3
:1005E000566C6F7A74652066696C616D656E740017
:1005F000496E736572742066696C616D656E740016
:100600004261727661206E656E6920636973746100
:1006100000436F6C6F72206E6F7420636F7272652F
:1006200063740046696C616D656E74206E657A61F5
:10063000766564656E0046696C616D656E74206EEA
:100640006F74206C6F616465640056796D656E61CE
:10065000206F6B3F004368616E67656420636F7253
:10066000726563746C793F0043697374656E6920C9
:100670006261727679004C6F6164696E6720636FA6
:100680006C6F72005A6D656E612075737065736E64
:100690006121004368616E676520737563636573EC
:1006A00073210045787472756465720056796265CD
:1006B0007274652065787472756465723A00436877
:1006C0006F6F73652065787472756465723A004166
:1006D00063746976652045787472756465723A2032
:1006E00000496E76616C6964206578747275646522
:1006F000720050726F73696D206F746576726574E5
:10070000652069646C65722061206D616E75616C35
:100710006E65206F64737472616E74652066696CB7
:10072000616D656E742E00506C65617365206F702D
:10073000656E2069646C657220616E642072656DFF
:100740006F76652066696C616D656E74206D616E93
:1007500075616C6C792E0042796C6F2076797375B7
:100760006E7574692066696C616D656E747520754F
:10077000737065736E653F005761732066696C61C5
:100780006D656E7420756E6C6F6164207375636344
:1007900065737366756C3F0050726F73696D207678
:1007A000796A6D6574652075727963686C656E65CC
:1007B0002066696C616D656E7400506C656173656F
:1007C0002070756C6C206F75742066696C616D6546
:1007D0006E7420696D6D6564696174656C7900562D
:1007E00079736F7576616D2066696C616D656E7485
:1007F00000556E6C6F6164696E672066696C616D2F
:10080000656E740050726F206E6168726174692049
:10081000747279736B79206120706F6B7261636F92
:1008200076616E6920737469736B6E65746520748C
:100830006C616369746B6F2E005072657373206B0B
:100840006E6F6220746F2070726568656174206ECF
:100850006F7A7A6C6520616E6420636F6E74696E66
:1008600075652E0050726F20767973756E75746998
:100870002066696C616D656E747520737469736B45
:100880006E6574652070726F73696D20746C61633E
:1008900069746B6F00506C6561736520707265736D
:1008A0007320746865206B6E6F6220746F20756EA4
:1008B0006C6F61642066696C616D656E74005A20AE
:1008C0004F666673657400556E6B6E6F776E20634E
:1008D0006F6D6D616E643A2022004D3230302049D8
:1008E0006E76616C696420657874727564657220D7
:1008F000007A5F6D61783A20007A5F6D696E3A2008
:1009000000795F6D61783A2000795F6D696E3A20F9
:1009100000785F6D61783A20006F70656E00545208
:100920004947474552454400785F6D696E3A20005B
:100930005265706F7274696E6720656E6473746F50
:1009400070207374617475730020436F756E74202A
:10095000583A20004649524D574152455F4E414D4D
:10096000453A4D61726C696E2056312E302E323B05
:1009700020537072696E7465722F6772626C206D9D
:10098000617368757020666F722067656E362046E9
:1009900049524D574152455F55524C3A68747470F4
:1009A000733A2F2F6769746875622E636F6D2F70AD
:1009B0007275736133642F50727573612D69332DB5
:1009C000506C75732F2050524F544F434F4C5F560D
:1009D000455253494F4E3A312E30204D41434849FC
:1009E0004E455F545950453A5072757361206933D2
:1009F000204D4B332045585452554445525F434F88
:100A0000554E543A3120555549443A303030303003
:100A10003030302D303030302D303030302D3030DF
:100A200030302D3030303030303030303030300AEF
:100A3000004F666600456E642066696C65206C69CF
:100A4000737400426567696E2066696C65206C6925
:100A50007374004E6F206D6F76652E004F626E6F5F
:100A600076656E69207469736B7500526573756D78
:100A7000696E67207072696E7400576169742066D0
:100A80006F7220757365722E2E2E004B616C696239
:100A900072616365205A2073656C68616C612E20F9
:100AA00053656E736F72207365706E756C20707213
:100AB000696C6973207679736F6B6F2E2043656B59
:100AC000616D206E612072657365742E00426564ED
:100AD000206C6576656C696E67206661696C65641B
:100AE0002E2053656E736F7220747269676765722A
:100AF000656420746F6F20686967682E205761698C
:100B000074696E6720666F722072657365742E005B
:100B10004B616C696272616365205A2073656C6811
:100B2000616C612E2053656E736F72206A65206F51
:100B300064706F6A656E79206E65626F2070726591
:100B4000727573656E79206B6162656C2E204365EA
:100B50006B616D206E612072657365742E00426555
:100B600064206C6576656C696E67206661696C658A
:100B7000642E2053656E736F7220646973636F6EA9
:100B80006E6563746564206F72206361626C6520BA
:100B900062726F6B656E2E2057616974696E672093
:100BA000666F722072657365742E004B616C6962AA
:100BB00072616365205A2073656C68616C612E20D8
:100BC00053656E736F72206E657365706E756C2EF3
:100BD000205A6E6563697374656E612074727973EF
:100BE0006B613F2043656B616D206E6120726573A0
:100BF00065742E00426564206C6576656C696E676D
:100C0000206661696C65642E2053656E736F722077
:100C10006469646E7420747269676765722E20441B
:100C20006562726973206F6E206E6F7A7A6C653FB1
:100C30002057616974696E6720666F7220726573F0
:100C400065742E005465706C6F746E69206B616CF6
:100C500069627261636520646F6B6F6E63656E615C
:100C60002E20506F6B726163756A746520737469AE
:100C7000736B656D20746C616369746B612E0054D5
:100C8000656D70657261747572652063616C69620F
:100C9000726174696F6E2069732066696E6973682A
:100CA00065642E20436C69636B20746F20636F6EE4
:100CB00074696E75652E004F64737472616E74652D
:100CC000207469736B6F767920706C6174207A2060
:100CD000686561746265642070726F73696D2E005F
:100CE000506C656173652072656D6F7665207374F5
:100CF00065656C2073686565742066726F6D206829
:100D00006561746265642E00537461626C65206174
:100D10006D6269656E742074656D7065726174755D
:100D200072652032312D323643206973206E65653D
:100D30006465642061207269676964207374616E00
:100D4000642069732072657175697265642E005341
:100D50006C6565702E2E2E0043524153485F5245FC
:100D6000434F564552004732382058205900360527
:100D700025050A002F0046050A002E0044656C6513
:100D800074696F6E206661696C65642C2046696CBD
:100D9000653A200046696C652064656C657465641D
:100DA0003A002E0020573A0020453A00543A006D90
:100DB0000558050098057D05504944204175746F1C
:100DC00074756E652066696E69736865642120506C
:100DD000757420746865206C617374204B702C20CE
:100DE0004B6920616E64204B6420636F6E73746185
:100DF0006E74732066726F6D2061626F7665206914
:100E00006E746F20436F6E66696775726174696F87
:100E10006E2E6800504944204175746F74756E657C
:100E2000206661696C6564212074696D656F7574F5
:100E30000020403A00543A00423A005049442041D0
:100E400075746F74756E65206661696C65642120C8
:100E500054656D706572617475726520746F6F2072
:100E60006869676800204B643A2000204B693A208B
:100E700000204B703A200020436C6173736963203B
:100E800050494420002054753A2000204B753A20E8
:100E900000206D61783A2000206D696E3A200020B4
:100EA000643A200020626961733A200053657474CB
:100EB000696E67732053746F7265640046696C6174
:100EC0006D656E742073657474696E67733A20443F
:100ED000697361626C6564002020204D32303020DF
:100EE000440046696C616D656E7420736574746945
:100EF0006E67733A002020204D3230392053004174
:100F000075746F2D526574726163743A20533D306D
:100F100020746F2064697361626C652C20312074C9
:100F20006F20696E74657270726574206578747272
:100F30007564652D6F6E6C79206D6F7665732061B9
:100F400073207265747261637473206F72207265AE
:100F5000636F766572696573002046002020204D1E
:100F60003230382053005265636F7665723A2053F1
:100F70003D4578747261206C656E67746820286DD9
:100F80006D2920463A537065656420286D6D2F6D7C
:100F90002900205A002046002020204D32303720E2
:100FA0005300526574726163743A20533D4C656E10
:100FB00067746820286D6D2920463A537065656412
:100FC00020286D6D2F6D29205A3A205A4C6966747D
:100FD00020286D6D29002044002049002020204D4C
:100FE0003330342050005049442068656174626594
:100FF000642073657474696E67733A00204400203E
:1010000049002020204D33303120500050494420E9
:1010100073657474696E67733A00205A0020590032
:1010200020204D323036205800486F6D65206F66A5
:101030006673657420286D6D293A00204500205A9A
:101040000020590020580020420020540020204D4C
:10105000323035205300416476616E6365642076DA
:1010600061726961626C65733A20533D4D696E200F
:10107000666565647261746520286D6D2F73292C17
:1010800020543D4D696E2074726176656C206665F2
:1010900065647261746520286D6D2F73292C204260
:1010A0003D6D696E696D756D207365676D656E74F4
:1010B0002074696D6520286D73292C20583D6D6161
:1010C00078696D756D205859206A65726B20286D9E
:1010D0006D2F73292C20205A3D6D6178696D756DD7
:1010E000205A206A65726B20286D6D2F73292C2081
:1010F00020453D6D6178696D756D2045206A65728A
:101100006B20286D6D2F73290020540020204D3254
:101110003034205300416363656C65726174696F9C
:101120006E3A20533D616363656C65726174696FEB
:101130006E2C20543D726574726163742061636328
:10114000656C65726174696F6E00204500205A00FD
:1011500020590020204D3230312058004D617869EF
:101160006D756D20416363656C65726174696F6E46
:1011700020286D6D2F7332293A00204500205A0037
:1011800020590020204D3230332058004D617869BD
:101190006D756D2066656564726174657320286D78
:1011A0006D2F73293A00204500205A002059002055
:1011B000204D393220580053746570732070657269
:1011C00020756E69743A00CD05B805F005E005118B
:1011D0000600063606230655064A06760668069376
:1011E000068406416476616E6365204B3D004B20AA
:1011F0006F7574206F6620616C6C6F776564207208
:10120000616E67652100746D63323133305F7072D7
:10121000696E745F63757272656E747328290A094A
:101220004809520A580925640925640A59092564A0
:101230000925640A5A0925640925640A45092564B3
:101240000925640A00A306BE06AC0622283229003E
:10125000CF06E1065400496E76616C696420542023
:10126000636F64652E00556E6B6E6F776E204D2038
:10127000636F64653A202573200A004D32323020B6
:10128000532569002707F20678075707BA0798071A
:10129000F107DF073908040895086408203A2000A0
:1012A00000BE084C414E472053454C20464F524308
:1012B0004544002228312900C708DA08F108F90856
:1012C00001090909110919091E09280930092045D0
:1012D0003A00205A3A0020593A00490920453A007C
:1012E000205A3A0020593A00583A0054094D3131F9
:1012F000332053002E002000310A20423A002045BE
:101300003A00543A0020413A0020503A002042402E
:101310003A0020403A00202F003A00205400202FAD
:101320000020423A00202F006F6B20543A002569BC
:10133000206D696E2C2025692073656300350A4392
:101340000A530A6B0A5C0A7A0A496E76616C696410
:10135000204D20636F64653A202573200A00556E86
:101360006B6E6F776E204720636F64653A2025733C
:10137000200A004D65736820626564206C6576659F
:101380006C696E67206E6F74206163746976652E78
:10139000000A002020000A4D6561737572656420A3
:1013A000706F696E74733A000A5A207365617263D4
:1013B00068206865696768743A20002C004E756D76
:1013C00020582C593A2000206D6963726F6E7300AB
:1013D00045786365737369766520626564206C6522
:1013E00076656C696E6720636F7272656374696F8E
:1013F0006E3A2000CD0A8B0A5E0B100BF40BAB0B80
:10140000473238205730003A20007F0C440C546596
:101410006D70657261747572652063616C6962726A
:101420006174696F6E20646F6E652E20436F6E74F9
:10143000696E756520776974682070726573736969
:101440006E6720746865206B6E6F622E0000205AF4
:1014500020736869667420286D6D293A0050494EE2
:1014600044412074656D70657261747572653A20CF
:1014700000002F3600537465703A200000205A2077
:10148000736869667420286D6D293A0050494E448E
:10149000412074656D70657261747572653A2000E3
:1014A0002F36002F362028736B6970706564290011
:1014B000537465703A2000005A45524F3A2000009C
:1014C00073746172742074656D7065726174757285
:1014D000653A200050494E44412070726F62652089
:1014E00063616C6962726174696F6E20737461729A
:1014F000740047323820573000E00CB70C080D0A52
:1015000000205A3A200020593A200020583A200062
:101510004F0D5641524F56414E493A204E657A6E14
:10152000616D612C206E65706F64706F726F766193
:101530006E61207665727A65206669726D77617278
:10154000652E20506F757A697469206E6120766C03
:101550006173746E69206E6562657A706563692176
:10156000005741524E494E473A20546869732069EA
:101570007320616E20756E6F6666696369616C2C9D
:1015800020756E737570706F727465642062756912
:101590006C642E2055736520617420796F757220FC
:1015A0006F776E207269736B2100507275736120C2
:1015B0006933204D4B33206F6B005072757361207F
:1015C0006933204D4B332072656164792E00446588
:1015D00074656B6F76616E207679706164656B20DF
:1015E00070726F7564752E4F626E6F7669742074B9
:1015F00069736B3F00426C61636B6F7574206F633E
:101600006375727265642E205265636F7665722011
:101610007072696E743F0050726F206B616C69620A
:101620007261636920707265736E65686F207265A0
:10163000686F6D6F76616E692062756465206E7982
:101640006E69207370757374656E2073656C667453
:101650006573742E0053656C6674657374207769C6
:101660006C6C2062652072756E20746F2063616CF3
:10167000696272617465206163637572617465206B
:1016800073656E736F726C657373207265686F6DCE
:10169000696E672E004E656E69207A6B616C6962B7
:1016A000726F76616E6120767A64616C656E6F73BD
:1016B0007420747279736B79206F64207469736B12
:1016C0006F766520706F646C6F7A6B792E20506F27
:1016D00073747570756A74652070726F73696D20AC
:1016E000706F646C65206D616E75616C752C206B1C
:1016F000617069746F6C61205A6163696E616D65B8
:101700002C206F64737461766563204E617374611D
:1017100076656E69207072766E6920767273747663
:10172000792E0044697374616E6365206265747715
:1017300065656E20746970206F6620746865206E20
:101740006F7A7A6C6520616E6420746865206265CA
:1017500064207375726661636520686173206E6FC3
:1017600074206265656E20736574207965742E201F
:10177000506C6561736520666F6C6C6F7720746860
:1017800065206D616E75616C2C2063686170746595
:10179000722046697273742073746570732C2073A1
:1017A000656374696F6E204669727374206C617929
:1017B00065722063616C6962726174696F6E2E007C
:1017C0005469736B61726E61206E6562796C612021
:1017D0006A65737465207A6B616C6962726F766199
:1017E0006E612E20506F73747570756A7465207009
:1017F000726F73696D20706F646C65206D616E75BA
:10180000616C752C206B617069746F6C61205A611A
:1018100063696E616D652C206F64737461766563B6
:1018200020506F73747570206B616C6962726163B4
:10183000652E005072696E74657220686173206E47
:101840006F74206265656E2063616C696272617499
:101850006564207965742E20506C6561736520661F
:101860006F6C6C6F7720746865206D616E75616C4C
:101870002C206368617074657220466972737420ED
:1018800073746570732C2073656374696F6E204385
:10189000616C6962726174696F6E20666C6F772E1D
:1018A000004E65706C61746E6520686F646E6F7455
:1018B00079206E6173746176656E692E204275645D
:1018C0006520706F757A69746F20767963686F7AB6
:1018D00069205049442C20457374657073206174ED
:1018E000642E004F6C642073657474696E67732096
:1018F000666F756E642E2044656661756C74205049
:1019000049442C20457374657073206574632E20E0
:1019100077696C6C206265207365742E00202050FE
:101920006C616E6E65724275666665724279746549
:10193000733A20002046726565204D656D6F72799F
:101940003A2000207C20417574686F723A20002094
:101950004C61737420557064617465643A20002092
:10196000536F6674776172652052657365740020E9
:101970005761746368646F672052657365740020F3
:1019800042726F776E206F757420526573657400B4
:101990002045787465726E616C20526573657400C1
:1019A000506F7765725570006572726F7220777232
:1019B0006974696E6720746F2066696C6500656E76
:1019C0006473746F7073206869743A2000446F6E9A
:1019D0006520736176696E672066696C652E006F9D
:1019E0006B00202D20496E76616C696420657874E7
:1019F0007275646572206E756D6265722021001BC0
:101A00005B324A1B5B313B31484F726967696E61DB
:101A10006C2050727573612069331B5B323B334815
:101A20005072757361205265736561726368004618
:101A30006163746F727920524553455400611512E9
:101A400015BA15AA15F515CE15551617162317959F
:101A5000163318C017E318A1181D1934194D6172F7
:101A6000202037203230313800436F6D70696C654B
:101A7000643A2000286E6F6E652C2064656661757F
:101A80006C7420636F6E666967290043194D61723B
:101A900020203720323031382030353A33343A3450
:101AA00030004F195F196F197F199019A019203351
:101AB0002E312E322D3233310A007374617274006C
:101AC0002055706C6F616420696E2070726F677250
:101AD00065737300A8195A00205A3A00590020591A
:101AE0003A00580020583A00BE194D3630300047B1
:101AF00031204533204632303000473120452D33E8
:101B000020463230300043524153485F44455445EB
:101B10004354454458590043524153485F44455447
:101B20004543544544590043524153485F4445544A
:101B300045435445445800CD19DF194D3239002032
:101B40007A203900206F662039004D6572696D205A
:101B50007265666572656E636E69207679736B7502
:101B6000206B616C69627261636E69686F20626F7D
:101B70006475004D6561737572696E672072656684
:101B80006572656E636520686569676874206F6655
:101B90002063616C6962726174696F6E20706F6935
:101BA0006E740020746F6F206C6F6E6720657874A0
:101BB000727573696F6E2070726576656E74656498
:101BC0000020636F6C6420657874727573696F6E42
:101BD0002070726576656E74656400457872656D17
:101BE00065207370616E206F6620746865205A20CE
:101BF00076616C756573210000004041FFFFBF40B6
:101C00000000E442FFFFBF4000005743FFFFBF401A
:101C1000000057430000CC420000E4420000CC42E8
:101C2000000040410000CC4200004041000046431B
:101C30000000E442000046430000574300004643D2
:101C4000441B3F1B731B4A1B062833D036C23E0180
:101C50003F154132423B43F2443B45F24622473B6B
:101C600048F2493B4AF05898590C5A085B0C5C08FA
:101C70006110679B6E2271077208FF095A0D000EF2
:101C8000FF19045E0820642B6D322FFFA31BC11BBC
:101C9000656E717565696E67202200446F6E652000
:101CA0007072696E74696E672066696C6500535462
:101CB0004F505045442E20005072696E746572205A
:101CC00073746F707065642064756520746F20652F
:101CD00072726F72732E2046697820746865206571
:101CE00072726F7220616E6420757365204D393990
:101CF0003920746F20726573746172742E202854B9
:101D0000656D7065726174757265206973207265A6
:101D10007365742E20536574206974206166746540
:101D2000722072657374617274696E6729004E6FF8
:101D3000204C696E65204E756D62657220776974FE
:101D40006820636865636B73756D2C204C617374D8
:101D5000204C696E653A20004E6F20436865636BC6
:101D600073756D2077697468206C696E65206E7577
:101D70006D6265722C204C617374204C696E653AFB
:101D80002000636865636B73756D206D69736D61A9
:101D90007463682C204C617374204C696E653A2022
:101DA000004C696E65204E756D6265722069732006
:101DB0006E6F74204C617374204C696E65204E7593
:101DC0006D6265722B312C204C617374204C696EEE
:101DD000653A200022206661696C65643A2042758C
:101DE000666665722066756C6C21002200901C2569
:101DF0006920686F757273202569206D696E75742E
:101E00006573009B1C54494D454F55543A00AE1C18
:101E1000B81C2E1D581D821DA11D4D3131300046AC
:101E2000756C6C20525820427566666572004F6270
:101E30006E6F766F76616E69207469736B752020A2
:101E40002020005265636F766572696E672070723C
:101E5000696E74202020200055564C4F202D20659F
:101E60006E64007374707300494E54340029002C62
:101E700020002C2000776F726C6420636F6F726497
:101E8000696E617465733A20280029002C20002CAB
:101E90002000706879736963616C20636F6F72648E
:101EA000696E617465733A2028007265636F7665A8
:101EB000725F6D616368696E655F73746174655F9D
:101EC00061667465725F706F7765725F70616E696D
:101ED000632C20696E697469616C20007265636FA0
:101EE0007665725F6D616368696E655F7374617456
:101EF000655F61667465725F706F7765725F706150
:101F00006E69632C20696E697469616C20004739C1
:101F1000322045004D3234004D32362053256C7549
:101F2000004D3130362053004D38320047312046C5
:101F300025640047312045322A31204634383000AC
:101F40004731205A002046323030300020590047B7
:101F5000312058004D383300506F736974696F6ECB
:101F600020726561642066726F6D20656570726FA6
:101F70006D3A004D3233202573002E67636F0046A3
:101F8000656564726174653A0063757272656E743A
:101F90005F706F736974696F6E5B455F4158495339
:101FA0005D3A0063757272656E745F706F73697409
:101FB000696F6E5B5A5F415849535D3A00437572D1
:101FC00072656E7420706F736974696F6E20595FEB
:101FD000415849533A0043757272656E7420706FB0
:101FE000736974696F6E20585F415849533A0041D4
:101FF000667465722077616974696E6720666F72B6
:102000002074656D703A00473120452D31204634EB
:1020100038300047312045352046313230004D38C8
:1020200033004D31393020532564004D3130392093
:102030005325640047323820582059004731205A30
:1020400032352046383030004D313430205325644D
:10205000004D3130342053256400431E2E1E62751E
:1020600073793A2070617573656420666F722069B8
:102070006E70757400627573793A2070617573655E
:102080006420666F72207573657200627573793AA9
:102090002070726F63657373696E670000002110B2
:1020A000422063308440A550C660E77008812991C2
:1020B0004AA16BB18CC1ADD1CEE1EFF1311210026A
:1020C00073325222B5529442F772D6623993188312
:1020D0007BB35AA3BDD39CC3FFF3DEE36224433436
:1020E00020040114E664C774A44485546AA54BB562
:1020F00028850995EEE5CFF5ACC58DD5533672260A
:1021000011163006D776F6669556B4465BB77AA7B1
:1021100019973887DFF7FEE79DD7BCC7C448E55855
:102120008668A7784008611802282338CCC9EDD901
:102130008EE9AFF9488969990AA92BB9F55AD44AA9
:10214000B77A966A711A500A333A122AFDDBDCCB51
:10215000BFFB9EEB799B588B3BBB1AABA66C877C75
:10216000E44CC55C222C033C600C411CAEED8FFDA1
:10217000ECCDCDDD2AAD0BBD688D499D977EB66E49
:10218000D55EF44E133E322E511E700E9FFFBEEFF1
:10219000DDDFFCCF1BBF3AAF599F788F8891A981B3
:1021A000CAB1EBA10CD12DC14EF16FE18010A1009D
:1021B000C230E3200450254046706760B98398938D
:1021C000FBA3DAB33DC31CD37FE35EF3B1029012ED
:1021D000F322D2323542145277625672EAB5CBA559
:1021E000A89589856EF54FE52CD50DC5E234C3243D
:1021F000A01481046674476424540544DBA7FAB72D
:102200009987B8975FE77EF71DC73CD7D326F2368C
:102210009106B01657667676154634564CD96DC978
:102220000EF92FE9C899E9898AB9ABA944586548DC
:1022300006782768C018E1088238A3287DCB5CDBCC
:102240003FEB1EFBF98BD89BBBAB9ABB754A545A2C
:10225000376A167AF10AD01AB32A923A2EFD0FED98
:102260006CDD4DCDAABD8BADE89DC98D267C076C7C
:10227000645C454CA23C832CE01CC10C1FEF3EFF6C
:102280005DCF7CDF9BAFBABFD98FF89F176E367ECC
:10229000554E745E932EB23ED10EF01E7C3C3E5ED7
:1022A0002B3D3F2F5B5D3B2C2A225C001000C902B6
:1022B00010012C014001220170011801B0010E0132
:1022C000F00104015002FA00B002F0003003E60011
:1022D000D003DC009004D2007005C800A006BE0048
:1022E0000008B400B009AA00D00BA000600E960050
:1022F00060118C000015820020197800C01D6E004E
:10230000A0226400B0275A00902C500000314600F3
:10231000E0343C0010383200903A2800603C1E0047
:10232000A03D1400803E0A00203F00004572723A32
:10233000205052494E542046414E204552524F5251
:10234000005072696E742066616E207370656564FA
:10235000206973206C6F776572207468656E2065E4
:1023600078706563746564004572723A204558540C
:10237000522E2046414E204552524F52004578740D
:1023800072756465722066616E2073706565642085
:102390006973206C6F776572207468656E2065784C
:1023A000706563746564002F2F20616374696F6EBC
:1023B0003A70617573650070012C0190012701B0BE
:1023C000012201C0011D01F00118011002130130AA
:1023D000020E016002090190020401C002FF000028
:1023E00003FA004003F5008003F000D003EB002067
:1023F00004E6007004E100E004DC004005D700C002
:1024000005D2004006CD00D006C8008007C30030CA
:1024100008BE00F008B900C009B400B00AAF00B0AF
:102420000BAA00D00CA500000EA000500F9B00C00E
:102430001096005012910000148C00C0158700B057
:10244000178200B0197D00D01B7800001E73004079
:10245000206E0090226900F024640040275F009005
:10246000295A00E02B5500102E500020304B001050
:10247000324600E033410090353C001037370070A1
:10248000383200A0392D00B03A2800A03B2300606C
:102490003C1E00103D1900903D1400103E0F0070CE
:1024A0003E0A00C03E0500003F000090137D00B0D2
:1024B000157800F0177300601A6E00F01C6900A018
:1024C0001F640050225F0020255A00E0275500902D
:1024D0002A5000202D4B00A02F4600F03141001063
:1024E000343C00F0353700A037320020392D006031
:1024F0003A2800703B2300603C1E00203D1900C0BC
:102500003D1400403E0F00A03E0A00F03E05004092
:102510003F0000703FFBFF903FF6FFB03FF1FFC070
:102520003FECFFD03FE7FFE03FE2FFF03FDDFFF091
:102530003FD8FF20484F54454E4420544845524D03
:10254000414C2052554E4157415900204845415475
:1025500042454420544845524D414C2052554E412D
:1025600057415900544845524D414C2052554E4117
:102570005741590042454420544845524D414C2052
:1025800052554E415741590020544845524D414CF7
:102590002052554E41574159202820505245484518
:1025A000415420484F54454E442900205448455238
:1025B0004D414C2052554E415741592028205052F0
:1025C000454845415420484541544245442900501E
:1025D000524548454154204552524F5200424544CD
:1025E0002050524548454154204552524F520045D3
:1025F00072723A204D415854454D50003A2045786A
:102600007472756465722073776974636865642099
:102610006F66662E204D415854454D5020747269A6
:102620006767657265642021004572723A204D41EA
:102630005854454D50204245440054656D706572B4
:102640006174757265206865617465642062656493
:10265000207377697463686564206F66662E204D09
:10266000415854454D5020747269676765726564BE
:102670002021004572723A204D494E54454D50205C
:102680004245440054656D706572617475726520D1
:10269000686561746564206265642073776974633A
:1026A000686564206F66662E204D494E54454D5036
:1026B00020747269676765726564202100457272D3
:1026C0003A204D494E54454D50003A204578747299
:1026D00075646572207377697463686564206F66DA
:1026E000662E204D494E54454D50207472696767DF
:1026F000657265642021005A63686C6164697400C6
:10270000436F6F6C646F776E0054657A6B65207AE7
:102710006B6F73656E693A005365766572652073F9
:102720006B65773A004C65686B65207A6B6F7365F3
:102730006E693A00536C6967687420736B65773A09
:10274000004D6572656E65207A6B6F73656E693AD0
:10275000004D6561737572656420736B65773A002F
:1027600050726176793A0052696768743A004C6534
:1027700076793A004C6566743A005920767A64613D
:102780006C656E6F7374206F64206D696E3A0059CA
:102790002064697374616E63652066726F6D206D6D
:1027A000696E3A004E617065746900566F6C7461B1
:1027B000676573005465706C6F74790054656D7053
:1027C0006572617475726573005374617620726509
:1027D0006D656E750042656C7420737461747573F9
:1027E00000457874727564657220696E666F004486
:1027F000657461696C792058595A206B616C2E00A0
:1028000058595A2063616C2E2064657461696C7339
:1028100000446174756D3A00446174653A00686FF4
:1028200077746F2E707275736133642E637A0068EB
:102830006F77746F2E707275736133642E636F6D72
:1028400000666F72756D2E707275736133642E63DE
:102850007A00666F72756D2E707275736133642EB7
:10286000636F6D00707275736133642E637A0070EC
:102870007275736133642E636F6D001B5B303B3088
:1028800048546F74616C206661696C757265731B66
:102890005B313B3148506F776572206661696C75BA
:1028A0007265732020252D33641B5B323B31484613
:1028B000696C616D2E2072756E6F757473202025A2
:1028C0002D33641B5B333B314843726173682020B6
:1028D0005820252D336420205920252D3364001BDA
:1028E0005B303B30484C617374207072696E7420A9
:1028F0006661696C757265731B5B313B3148506F63
:10290000776572206661696C757265732020252D6C
:1029100033641B5B323B314846696C616D2E20721B
:10292000756E6F7574732020252D33641B5B333BEC
:102930003148437261736820205820252D3364206C
:10294000205920252D336400546F74616C004C6154
:102950007374207072696E74001B5B323B314841A6
:102960006D6269656E743A2020256425631B5B33B4
:102970003B314850494E44413A20202020256425CF
:1029800063001B5B303B31484E6F7A7A6C653A20AE
:102990002020256425631B5B313B31484265643A46
:1029A00020202020202025642563001B5B313B3143
:1029B000485057523A20202020202025642E2530D0
:1029C000316456001B5B303B314842656C742073A8
:1029D00074617475731B5B313B3248582025641B4E
:1029E0005B323B324859202564000027F726464CCD
:1029F0004558202D20203234302F353000505020C3
:102A000020202D20203235342F31303000484950DD
:102A100053202D20203232302F31303000414253AC
:102A200020202D20203235352F31303000504554B4
:102A300020202D20203233302F383500504C4120BB
:102A4000202D20203231352F3630006661726D2006
:102A5000202D20203235302F343000001827092750
:102A600000342725272D2D2D2D2D2D2D2D2D2D2DD0
:102A70002D2D2D2D2D2D2D2D2D004E2F410051278B
:102A800041274E2F41006D6D000067276027742796
:102A90006E278F277A27AB27A427BC27B427D527F3
:102AA000C927E1270028EF272D2D2D2D2D2D2D2D88
:102AB0002D2D2D2D00466C6173684169722049509F
:102AC00020416464723A002D2D2D2D2D2D2D2D2D9C
:102AD0002D2D2D004D6172202037203230313800ED
:102AE000182811282D2D2D2D2D2D2D2D2D2D2D2D51
:102AF00000453344763666756C6C0045494E595F27
:102B000030346100315F37356D6D5F4D4B33002DD3
:102B10002D2D2D2D2D2D2D2D2D2D2D002F281E2829
:102B2000522841286F286428207265706F205072E7
:102B300075736133442F4D4B330020332E312E32C9
:102B40002D323331004669726D776172653A002526
:102B5000642E25642E25642E2564005469736B2031
:102B6000707265727573656E005072696E74206163
:102B7000626F72746564005A61737461766974205F
:102B80007469736B0053746F70207072696E740097
:102B9000536F75626F72206E656B6F6D706C6574CC
:102BA0006E692E20506F6B7261636F7661743F00A7
:102BB00046696C6520696E636F6D706C6574652E17
:102BC00020436F6E74696E756520616E79776179E7
:102BD0003F005469736B207A205344005072696E31
:102BE000742066726F6D20534400486C61766E6984
:102BF000206E616269646B61004D61696E004365BE
:102C00006B616E69206E61207A63686C61646E75B9
:102C1000746920747279736B79206120706F646CB1
:102C20006F7A6B792E0057616974696E6720666FE1
:102C300072206E6F7A7A6C6520616E6420626564C2
:102C400020636F6F6C696E670053656C66207465F6
:102C50007374204F4B0053656C6620746573742049
:102C60007374617274202000692B5B2B852B772B8A
:102C70004D323400B02B902B4D323320257300DCC5
:102C80002BD22B052E2E00F92BEA2B262CFE2B49BE
:102C90002C4D3834004731205A3135204631303000
:102CA0003000473238205700562C41786973206C29
:102CB000656E67746820646966666572656E6365D3
:102CC0003A004D656173757265642061786973209F
:102CD0006C656E6774683A0025632041584953203B
:102CE0005347313D25640A0050726564656872651A
:102CF0006A746520747279736B752100507265680F
:102D000065617420746865206E6F7A7A6C65210045
:102D100043485942413A004552524F523A00506F8F
:102D200064706F726100537570706F7274005374C9
:102D30006174697374696B612020005374617469F4
:102D400073746963732020004B616C696272616304
:102D5000650043616C6962726174696F6E005679D7
:102D60006A6D6F75742066696C616D656E7400556F
:102D70006E6C6F61642066696C616D656E74005A7B
:102D800061766573742066696C616D656E74004C64
:102D90006F61642066696C616D656E740041757465
:102DA0006F5A61766564656E692066696C2E0041B4
:102DB00075746F4C6F61642066696C616D656E74CB
:102DC000005A61646E61205344206B61727461002B
:102DD0004E6F205344206361726400506F6B7261C8
:102DE000636F76617400526573756D6520707269EA
:102DF0006E7400506F7A61737461766974207469BF
:102E0000736B005061757365207072696E74005049
:102E10007265646568726576005072656865617494
:102E2000004C616469740054756E6500446F6C6198
:102E300064656E69206F7379205A004C697665204D
:102E400061646A757374205A00496E666F726D61B1
:102E5000636500496E666F2073637265656E00443A
:102E60006F6B6F6E636F76616E6920706F687962E9
:102E7000750046696E697368696E67206D6F766567
:102E80006D656E7473004372617368206465742E9F
:102E900020205B4E2F415D004372617368206465A2
:102EA000742E20205B7A61705D004372617368202C
:102EB0006465742E2020205B6F6E5D004372617329
:102EC00068206465742E20205B7679705D00437203
:102ED000617368206465742E20205B6F66665D00F8
:102EE0004D6F6420202020205B537465616C7468F2
:102EF0005D004D6F6465202020205B537465616C1C
:102F000074685D004D6F642020202020205B4E6F90
:102F1000726D616C5D004D6F646520202020205B28
:102F20004E6F726D616C5D0046696C2E2073656E2C
:102F30007A6F72205B7A61705D0046696C2E207337
:102F4000656E736F7220205B6F6E5D0046696C2E3C
:102F50002073656E7A6F72205B7679705D004669CA
:102F60006C2E2073656E736F72205B6F66665D00FA
:102F700056796D656E69742066696C616D656E74F5
:102F8000004368616E67652066696C616D656E748B
:102F900000507275746F6B00466C6F7700527963E6
:102FA000686C6F7374005370656564005279636870
:102FB0006C6F73742076656E742E0046616E20739C
:102FC000706565640042656400547279736B6100DA
:102FD0004E6F7A7A6C65004E6173746176656E69C6
:102FE0000053657474696E677300FC2CE82C172D10
:102FF000102D4D37303200262D1E2D4661696C2074
:103000007374617473003B2D2E2D522D482D6F2D3E
:103010005E2D8F2D7F2DAF2D9D2D4661726D206E03
:10302000756D62657200D02DC12DE62DDB2D032E4E
:10303000F32D192E0F2E272E212E3B2E2C2E532E04
:10304000492E722E5F2E4D36303000862EAA2E98D5
:103050002ECE2EBC2EF22EE02E162F042F3A2F2825
:103060002F5E2F4C2F812F702F982F912FA62F9DE1
:103070002FBB2FAC2FC52FD02FC92FE12FD72F500B
:103080006F757A6520616B7475616C6E690043754C
:103090007272656E7400506F757A6974652062652E
:1030A00068656D207469736B750055736564206481
:1030B0007572696E67207072696E74005673650070
:1030C000416C6C00504944206B616C2E20756B6F15
:1030D0006E63656E61005049442063616C2E20660A
:1030E000696E697368656400504944206B616C2E99
:1030F0002020202020202020202020005049442073
:1031000063616C2E20202020202020202020200001
:103110004D313137204B616C2E207072766E6920F4
:10312000767273747679004D313137204669727347
:1031300074206C617965722063616C2E004F626E41
:103140006F766F76616E69207469736B7500526576
:1031500073756D696E67207072696E74005469735F
:103160006B20706F7A6173746176656E005072695E
:103170006E7420706175736564008E307F30AA3084
:103180009630C030BC30496E76616C69642050491D
:10319000442063616C2E20726573756C74732E20ED
:1031A0004E6F742073746F72656420746F20454590
:1031B00050524F4D2E004D35303000D630C430FCCB
:1031C00030E8304731205A31352046313530300033
:1031D00047393100473120583530205931393020B6
:1031E000453020463730303000473930004D3730D9
:1031F00032004D3730322043004D373032205500F9
:103200004D373032004731205A3135204631353084
:103210003000473931004731205835302059313995
:1032200030204530204637303030004D38330047AD
:103230003930004D3834004D313034205330004D9A
:103240003834004731205831302059313830204649
:1032500034303030004731205A313020463133305D
:10326000302E303030004D313430205330004D316D
:103270003034205330004D31303700473120452D58
:10328000302E30373530302046323130302E30302D
:103290003030300047312058353020593535204501
:1032A000332E363237373300473120583230302012
:1032B0005935352045302E343933383600473120E2
:1032C00058323030205937352045332E3632373793
:1032D0003300473120583530205937352045302EBE
:1032E0003439333836004731205835302059393594
:1032F0002045332E363237373300473120583230AD
:1033000030205939352045302E343933383600478E
:1033100031205832303020593131352045332E3666
:103320003237373300473120583530205931313565
:103330002045302E34393338360047312058353067
:1033400020593133352045332E3632373733004755
:1033500031205832303020593133352045302E3627
:10336000363137340047312058323030205931352A
:10337000352045322E363237373300473120583129
:10338000303020593135352045320047312058370B
:103390003520593135352045322E3500473120460C
:1033A00031303830004731205835302059313535EB
:1033B000004731204634303030004D323034205315
:1033C00031303030004731205A302E3135302046F0
:1033D000373230302E30303000473120452D312EFD
:1033E00035303030302046323130302E30303030D1
:1033F00030004D383300473930004732310047390B
:10340000322045302E3000473120583130302E30B8
:10341000204531322E352046313030302E300047B5
:1034200031205836302E302045392E30204631306C
:1034300030302E30004739322045302E30004732B0
:10344000380047383700273110314D31303920539B
:10345000323135004D31393020533630004D313462
:103460003020533630004D31303420533231350066
:103470004D313037004E313D314739300047312032
:103480004531004D3832004731204531004D383349
:10349000004D31303620532564004D3232302053F8
:1034A0002564006D315D314B616C696272756A69CA
:1034B000205A0043616C6962726174696E67205AB8
:1034C00000497465726163652000497465726174B6
:1034D000696F6E2000207A203400206F662034004F
:1034E0005A6C657073756A6920707265736E6F735C
:1034F00074206B616C69627261636E69686F2062CF
:103500006F647500496D70726F76696E67206265D1
:10351000642063616C6962726174696F6E20706FA0
:10352000696E74004B616C69627261636520585901
:103530005A207620706F7261646B752E205A6B6F03
:1035400073656E692062756465206175746F6D6165
:103550007469636B79207679726F766E616E6F2015
:10356000707269207469736B752E0058595A206304
:10357000616C6962726174696F6E20616C6C20723B
:10358000696768742E20536B65772077696C6C20AF
:10359000626520636F72726563746564206175741F
:1035A0006F6D61746963616C6C792E004B616C693D
:1035B00062726163652058595A207620706F72617B
:1035C000646B752E20582F59206F7379206D6972A6
:1035D0006E65207A6B6F73656E652E20446F627224
:1035E00061207072616365210058595A2063616CD3
:1035F0006962726174696F6E20616C6C20726967B8
:1036000068742E20582F5920617865732061726587
:1036100020736C696768746C7920736B6577656477
:103620002E20476F6F64206A6F6221004B616C69C6
:1036300062726163652058595A207620706F7261FA
:10364000646B752E20582F59206F7379206A736F21
:1036500075206B6F6C6D652E2047726174756C758B
:103660006A69210058595A2063616C6962726174F9
:10367000696F6E206F6B2E20582F5920617865730B
:10368000206172652070657270656E646963756C27
:1036900061722E20436F6E67726174756C6174691C
:1036A0006F6E7321004B616C6962726163652058B3
:1036B000595A206E65707265736E612E204C657666
:1036C0007920707265646E6920626F64206D6F632B
:1036D000207670726564752E0058595A2063616CAB
:1036E0006962726174696F6E20636F6D70726F6D65
:1036F000697365642E204C6566742066726F6E7403
:103700002063616C6962726174696F6E20706F69A9
:103710006E74206E6F7420726561636861626C659F
:103720002E004B616C6962726163652058595A20A2
:103730006E65707265736E612E20507265646E697D
:10374000206B616C69627261636E6920626F64797B
:10375000206D6F63207670726564752E0058595A1B
:103760002063616C6962726174696F6E20636F6D52
:1037700070726F6D697365642E2046726F6E74206F
:1037800063616C6962726174696F6E20706F696EDB
:103790007473206E6F7420726561636861626C651A
:1037A0002E004B616C6962726163652058595A2022
:1037B00073656C68616C612E204C6576792070723F
:1037C00065646E6920626F64206D6F63207670722D
:1037D0006564752E2053726F766E656A7465207409
:1037E00069736B61726E752E0058595A2063616C53
:1037F0006962726174696F6E206661696C65642EBE
:10380000204C6566742066726F6E742063616C690B
:1038100062726174696F6E20706F696E74206E6F72
:103820007420726561636861626C652E004B616C27
:103830006962726163652058595A2073656C6861CA
:103840006C612E20507265646E69206B616C6962D8
:103850007261636E6920626F6479206D6F63207698
:1038600070726564752E2053726F766E656A74652A
:10387000207469736B61726E752E0058595A2063FB
:10388000616C6962726174696F6E206661696C65F2
:10389000642E2046726F6E742063616C696272617F
:1038A00074696F6E20706F696E7473206E6F742010
:1038B000726561636861626C652E004B616C696260
:1038C000726163652058595A2073656C68616C6138
:1038D0002E204E61686C65646E65746520646F208F
:1038E0006D616E75616C752E0058595A2063616C5C
:1038F0006962726174696F6E206661696C65642EBD
:1039000020506C6561736520636F6E73756C7420F5
:10391000746865206D616E75616C2E004B616C6919
:1039200062726163652058595A2073656C68616CD6
:10393000612E204B616C69627261636E6920626FF7
:103940006420706F646C6F7A6B79206E656E616C49
:10395000657A656E2E0058595A2063616C696272EF
:103960006174696F6E206661696C65642E204265C2
:10397000642063616C6962726174696F6E20706F3C
:10398000696E7420776173206E6F7420666F756E38
:10399000642E00207A203400206F66203400486CAA
:1039A0006564616D206B616C69627261636E692030
:1039B000626F6420706F646C6F7A6B79005365611D
:1039C000726368696E67206265642063616C696216
:1039D000726174696F6E20706F696E7400556D69E5
:1039E0007374657465206C6973742070617069729A
:1039F00075206E6120706F646C6F7A6B752061202A
:103A00007564727A756A7465206A656A20706F647D
:103A100020747279736B6F7520626568656D206DB7
:103A20006572656E69207072766E696368203420F5
:103A3000626F64752E20506F6B7564207472797399
:103A40006B61207A61636879746920706170697252
:103A50002C207679706E657465207469736B617261
:103A60006E752E00506C616365206120736865651A
:103A700074206F6620706170657220756E64657267
:103A800020746865206E6F7A7A6C6520647572693F
:103A90006E67207468652063616C69627261746925
:103AA0006F6E206F66206669727374203420706FA9
:103AB000696E74732E20496620746865206E6F7A73
:103AC0007A6C65206361746368657320746865202F
:103AD00070617065722C20706F776572206F6666FA
:103AE00020746865207072696E74657220696D6DEE
:103AF0006564696174656C792E0050726F2075730E
:103B00007065736E6F75206B616C69627261636959
:103B1000206F636973746574652070726F73696D6B
:103B2000207469736B6F766F7520747279736B751F
:103B30002E20506F74767264746520746C616369B2
:103B4000746B656D2E00506C6561736520636C65E8
:103B5000616E20746865206E6F7A7A6C6520666F7E
:103B6000722063616C6962726174696F6E2E2043AA
:103B70006C69636B207768656E20646F6E652E00DC
:103B800000007F43000056439AD95143FFFFFFB323
:103B900034A734203C20005741524E494E473A202A
:103BA00046726F6E7420706F696E74206E6F742031
:103BB000726561636861626C652E205920636F6F66
:103BC0007264696E6174653A0000CA34C134497424
:103BD00065726174696F6E3A200043616C63756C45
:103BE0006174696F6E206F6620746865206D616313
:103BF00068696E6520736B657720616E64206F66FF
:103C000066736574206661696C65642E00DA34D56C
:103C1000340435E0346B352435E935AC3564362C65
:103C200036D936A5365D372237E937A2377B382DAE
:103C300038E938BB3856391C3943616C69627261A6
:103C400074696F6E206661696C65642120436865E4
:103C5000636B20746865206178657320616E6420F1
:103C600072756E20616761696E2E0098399339BD57
:103C7000399E39643ADD39463BFA3A41646A7573D4
:103C800074696E67205A00526573657400567A61D4
:103C9000647520205B756D5D0052656172207369EB
:103CA0006465205B756D5D00567072656475205BA0
:103CB000756D5D0046726F6E7420736964655B7527
:103CC0006D5D0056707261766F205B756D5D0052A0
:103CD0006967687420736964655B756D5D00566C17
:103CE00065766F20205B756D5D004C656674207392
:103CF000696465205B756D5D004E617374617674F7
:103D000065207465706C6F74753A00536574207427
:103D1000656D70657261747572653A005A007B3C1E
:103D2000873C993C8D3CB43CA83CCF3CC33CEA3C2E
:103D3000DE3C0B3DF93C20003E003E0020003E00F2
:103D40003E005A30005A3100593000593100583085
:103D500000583100456E642073746F70732064697D
:103D60006167004E65746F6369207365004E6F7400
:103D7000207370696E6E696E6700546F636920739B
:103D800065005370696E6E696E67004C65767920C8
:103D900076656E74206E61207472797363653F007E
:103DA0004C65667420686F74656E642066616E3F52
:103DB00000507265646E69207469736B6F76792048
:103DC00076656E743F0046726F6E74207072696E15
:103DD000742066616E3F00546573742076656E745E
:103DE000696C61746F72750046616E2074657374DE
:103DF000006D3D633D823D7A3DA03D8B3DC63DB1AA
:103E00003DE83DD73D010210202008081020401059
:103E1000204080020102010804020101020408108E
:103E200020408080402010080402018004020180AC
:103E300040201008040201080402010102040810D5
:103E400020408001020408102040801008040880EF
:103E500010204004408010204004800000220025F3
:103E60000028002B002E0031003400020100000564
:103E70000108010B010505050507050808080802EA
:103E80000202020A0A0808040404040101010101F3
:103E90000101010303030303030303040707070CE2
:103EA0000C0C0C0C0C0C0C02020202060606060698
:103EB0000606060B0B0B0B0B0B0B0B07070A0A0A6C
:103EC0000A0A0A050505040404080802222066619E
:103ED000696C65643A204275666665722066756C29
:103EE0006C2100456E717565696E6720746F207472
:103EF00068652066726F6E743A2022004572726F98
:103F0000723A002200456E717565696E6720746FA4
:103F1000207468652066726F6E743A2022004D32FC
:103F200034004D3233202573006175746F25692E7E
:103F300067004E4F524D414C00535445414C54483C
:103F400000746D63323133305F696E697428292CD7
:103F5000206D6F64653D25530A00544D4320445243
:103F600049564552204F56455254454D50200074F5
:103F70006D63323133305F7365745F637572726580
:103F80006E745F6828617869733D25642C206375C1
:103F90007272656E743D25640A00746D633231334C
:103FA000305F7365745F63757272656E745F7228DB
:103FB000617869733D25642C2063757272656E7437
:103FC0003D25640A00726573756C742076616C75AA
:103FD000653A2025640A0020693D25326420636E1D
:103FE000743D2532642076616C3D2532640A00639D
:103FF0006C7573746572733A0A0020693D253264EA
:1040000020737465703D2532640A00736F727465A5
:10401000642073616D706C65733A0A004578747240
:104020007564657200506F73756E6F7574205A00F9
:104030004D6F7665205A00506F73756E6F757420E2
:1040400059004D6F7665205900506F73756E6F750E
:10405000742058004D6F76652058001B5B324A4330
:104060007261736820646574656B6365206D757A31
:10407000651B5B313B3048627974207A61706E75E4
:10408000746120706F757A6520761B5B323B304817
:104090004E6F726D616C206D6F6475001B5B324AF0
:1040A000437261736820646574656374696F6E2020
:1040B00063616E1B5B313B30486265207475726EC4
:1040C0006564206F6E206F6E6C7920696E1B5B32A9
:1040D0003B30484E6F726D616C206D6F6465001BE4
:1040E0005B324A504F5A4F523A1B5B313B30484388
:1040F0007261736820646574656B63651B5B323B3A
:1041000030486465616B7469766F76616E612076A4
:10411000651B5B333B3048537465616C7468206D7C
:104120006F6475001B5B324A5741524E494E473A05
:104130001B5B313B30484372617368206465746572
:104140006374696F6E1B5B323B30486469736162F4
:104150006C656420696E1B5B333B3048537465614A
:104160006C7468206D6F6465004175746F6D617467
:1041700069636B65207A61766164656E6920666942
:104180006C616D656E747520646F737475706E65A7
:1041900020706F757A6520707269207A61706E7513
:1041A00074656D2066696C616D656E742073656EF3
:1041B0007A6F72752E2E2E004175746F6C6F61646C
:1041C000696E672066696C616D656E7420617661E9
:1041D000696C61626C65206F6E6C79207768656EC2
:1041E0002066696C616D656E742073656E736F72A5
:1041F000206973207475726E6564206F6E2E2E2E8A
:104200000043485942413A2046696C616D656E74BD
:104210002073656E7A6F72206E6572656167756A6C
:10422000652C207A6B6F6E74726F6C756A74652082
:104230007A61706F6A656E692E004552524F523A2C
:104240002046696C616D656E742073656E736F7264
:10425000206973206E6F7420726573706F6E64696D
:104260006E672C20706C6561736520636865636B95
:1042700020636F6E6E656374696F6E2E005A6B619A
:104280006C6962726F7661740043616C696272611D
:104290007465004E656A6472697665207A61766538
:1042A00064746520504C412066696C616D656E7464
:1042B0002070726F73696D2E00506C65617365209C
:1042C0006C6F616420504C412066696C616D656E55
:1042D000742066697273742E004A6520504C412028
:1042E00066696C616D656E74207A61766564656E71
:1042F0003F00497320504C412066696C616D656ECA
:1043000074206C6F616465643F0050726F73696DF7
:10431000207A61766564746520504C412066696C32
:10432000616D656E74206120706F207465206F620E
:104330006E6F7674652057697A6172646120737458
:1043400069736B6E7574696D207265736574207422
:104350006C616369746B612E00506C6561736520DC
:104360006C6F616420504C412066696C616D656EB4
:104370007420616E64207468656E20726573756D5B
:10438000652057697A617264206279207265626F74
:104390006F74696E6720746865207072696E7465E9
:1043A000722E0050726F73696D206E61686C656467
:1043B0006E65746520646F206D616E75616C75202B
:1043C00061206F7072617674652070726F626C65C7
:1043D0006D2E20506F207465206F626E6F7674654D
:1043E0002057697A61726461207265626F6F746FC1
:1043F00076616E696D207469736B61726E792E00DF
:10440000506C6561736520636865636B206F7572BE
:104410002068616E64626F6F6B20616E64206669F4
:1044200078207468652070726F626C656D2E205400
:1044300068656E20726573756D65207468652057B8
:10444000697A617264206279207265626F6F746943
:104450006E6720746865207072696E7465722E00D4
:10446000567365206A6520686F746F766F2E004101
:104470006C6C20697320646F6E652E2048617070CB
:1044800079207072696E74696E67210057697A616C
:10449000726461206D757A657465206B64796B6FE9
:1044A0006C6976207A6E6F76752073707573746997
:1044B00074207A206D656E752043616C696272614B
:1044C00074696F6E202D3E2057697A6172640059BD
:1044D0006F752063616E20616C77617973207265FE
:1044E00073756D65207468652057697A6172642000
:1044F00066726F6D2043616C6962726174696F6E80
:10450000202D3E2057697A6172642E0050726F73BD
:10451000696D206F63697374657465206865617483
:10452000626564206120737469736B6E65746520C5
:10453000746C616369746B6F2E00506C6561736598
:1045400020636C65616E20686561746265642061DA
:104550006E64207468656E20707265737320746871
:1045600065206B6E6F622E00436863657465206F13
:1045700070616B6F76617420706F736C65646E69C7
:10458000206B726F6B206120706F7A6D656E69743D
:1045900020767A64616C656E6F7374206D657A69DC
:1045A00020747279736B6F75206120686561746225
:1045B00065643F00446F20796F752077616E7420C9
:1045C000746F20726570656174206C617374207300
:1045D00074657020746F20726561646A75737420ED
:1045E00064697374616E6365206265747765656E76
:1045F000206E6F7A7A6C6520616E642068656174E4
:104600006265643F005A61636E75207469736B6EF6
:104610006F7574206C696E6B75206120567920620D
:10462000756465746520706F737475706E65207342
:104630006E697A6F76617420747279736B75206F0E
:10464000746163656E696D20746C616369746B611C
:1046500020646F6B7564206E65646F7361686E654E
:104660007465206F7074696D616C6E692076797302
:104670006B792E2050726F686C65646E657465206E
:104680007369206F6272617A6B792076206E617334
:10469000692070726972756363652076206B617042
:1046A00069746F6C65204B616C696272616365004F
:1046B000492077696C6C20737461727420746F2068
:1046C0007072696E74206C696E6520616E64207909
:1046D0006F752077696C6C206772616475616C6CB2
:1046E00079206C6F77657220746865206E6F7A7AB6
:1046F0006C6520627920726F746174696E672074D2
:104700006865206B6E6F622C20756E74696C207901
:104710006F75207265616368206F7074696D616C7C
:10472000206865696768742E20436865636B207430
:10473000686520706963747572657320696E206F97
:1047400075722068616E64626F6F6B20696E2063A2
:104750006861707465722043616C6962726174692A
:104760006F6E2E004E796E69207A6B616C69627291
:10477000756A6920767A64616C656E6F7374206DFA
:10478000657A69206B6F6E63656D20747279736BE7
:1047900079206120706F76726368656D206865614D
:1047A00074626564752E004E6F7720492077696CBE
:1047B0006C2063616C6962726174652064697374F2
:1047C000616E6365206265747765656E20746970DB
:1047D000206F6620746865206E6F7A7A6C65206140
:1047E0006E642068656174626564207375726661C9
:1047F00063652E004A6520746F20504C4120666925
:104800006C616D656E743F00497320697420504C73
:10481000412066696C616D656E743F005A61766116
:1048200064656E692066696C616D656E7475004CB7
:104830006F6164696E672066696C616D656E740096
:1048400050726F73696D20766C6F7A746520504C6E
:10485000412066696C616D656E7420646F206578B7
:10486000747275646572752C20706F207465207386
:104870007469736B6E65746520746C616369746BC5
:104880006F2070726F207A61766564656E6920664C
:10489000696C616D656E74752E00506C6561736531
:1048A00020696E7365727420504C412066696C619A
:1048B0006D656E7420746F207468652065787472FD
:1048C000756465722C207468656E207072657373F0
:1048D000206B6E6F6220746F206C6F61642069744E
:1048E0002E00507265646568726976616D2074721D
:1048F00079736B752E2050726F73696D2063656BD1
:10490000656A74652E0050726568656174696E67CA
:10491000206E6F7A7A6C652E20506C65617365200D
:10492000776169742E004E796E69207072656465D6
:104930006872656A6920747279736B752070726F22
:1049400020504C412E004E6F7720492077696C6CC7
:104950002070726568656174206E6F7A7A6C65206C
:10496000666F7220504C412E004A652066696C616A
:104970006D656E74207A61766564656E3F0049737B
:104980002066696C616D656E74206C6F616465642E
:104990003F00556D6973746574652070726F73693B
:1049A0006D207469736B6F767920706C6174206E02
:1049B00061206865617462656400506C656173654F
:1049C00020706C61636520737465656C2073686525
:1049D0006574206F6E20686561746265642E004A9C
:1049E00065207469736B6F767920706C6174206ECA
:1049F0006120686561746265643F00497320737467
:104A000065656C207368656574206F6E20686561EC
:104A1000746265643F004E796E692070726F7665CE
:104A20006475207A206B616C6962726163692E0023
:104A3000492077696C6C2072756E207A2063616CF6
:104A40006962726174696F6E206E6F772E004E79A5
:104A50006E692070726F766564752078797A206B44
:104A6000616C6962726163692E205A616265726568
:104A700020746F20707269626C697A6E65203132C1
:104A8000206D696E2E00492077696C6C2072756EFE
:104A90002078797A2063616C6962726174696F6EE3
:104AA000206E6F772E2049742077696C6C207461BA
:104AB0006B6520617070726F782E203132206D69C5
:104AC0006E732E004E656A6472697620706F6D6F2A
:104AD00063692073656C667465737475207A6B6F97
:104AE0006E746F6C756A69206E656A636173746554
:104AF0006A736920636879627920767A6E696B617E
:104B00006A69636920707269207365737461766580
:104B10006E69207469736B61726E792E00466972DA
:104B200073742C20492077696C6C2072756E207428
:104B300068652073656C667465737420746F206398
:104B40006865636B206D6F737420636F6D6D6F6E3E
:104B500020617373656D626C792070726F626C6531
:104B60006D732E00446F6272792064656E2C206A2A
:104B700073656D2076617365207469736B61726E05
:104B800061204F726967696E616C20507275736144
:104B90002069332E20436863657465206162796300
:104BA00068205661732070726F7665646C61206B4B
:104BB000616C69627261636E696D2070726F6365AA
:104BC00073656D3F0048692C204920616D20796F25
:104BD0007572204F726967696E616C2050727573CF
:104BE00061206933207072696E7465722E20576F70
:104BF000756C6420796F75206C696B65206D65201C
:104C0000746F20677569646520796F7520746872A8
:104C10006F7567682074686520736574757020709F
:104C2000726F636573733F001C4030402540424003
:104C30003740544049409C405B402441DF40B841EC
:104C400069413A420142473830004D3435205A001C
:104C500089427D4247373600B9429342F242D942F7
:104C600059430A430044A3436F446044CF448C44F7
:104C700053746174653A20003A450C45B445684563
:104C8000B0460546A74764470848F4472F481C48E4
:104C90009A4840480649E248464926497E496949BA
:104CA000BA499249FB49DF49304A164A864A4E4A78
:104CB0001D4BC44AC54B644B4E6168726976616E88
:104CC000692050494E44410050494E4441204865B6
:104CD0006174696E67005465706C2E206B616C2E78
:104CE000202020202020202020200054656D702EC0
:104CF0002063616C2E2020202020202020202000F6
:104D00004B616C696272616365204F4B0043616C5B
:104D10006962726174696F6E20646F6E65004B61C9
:104D20006C696272756A69205A0043616C696272CB
:104D30006174696E67205A00426564204F4B2E00F3
:104D400042656420646F6E65005A616872697661BD
:104D50006E6920626564004265642048656174691B
:104D60006E67005A6168726976616E69204F4B2EDA
:104D70000048656174696E6720646F6E652E005A25
:104D80006168726976616E690048656174696E6711
:104D9000005072696E74657220646973636F6E6E21
:104DA0006563746564003A2000C84CB84CEB4CD67F
:104DB0004C0D4D004D2020202020202020202020A0
:104DC000202020202020202000203A20002A4D1ED4
:104DD0004D202020202020202020202020202020A6
:104DE000202020202000404D384D574D494D714D19
:104DF000634D894D7F4D2020202020202020202021
:104E0000202020002573002020002D2D3A2D2D007C
:104E10002000200020004C002020002046002D2DE6
:104E20002D003E555342005344002D2D00252020D7
:104E30002020200020200020200001200020202011
:104E40002D2D2D200020205A00202000012000912F
:104E50004D4368796261202D20446F736C6F206B25
:104E60002070726570697375207374617469636B07
:104E7000652070616D65746921004572726F7220E2
:104E80002D20737461746963206D656D6F72792074
:104E9000686173206265656E206F766572777269EE
:104EA0007474656E004B617274612076796A6D75F9
:104EB000746100436172642072656D6F7665640091
:104EC0004B6172746120766C6F7A656E610043612C
:104ED000726420696E736572746564007A4E514E17
:104EE000B34EA54ECE4EC04E50525553413344465C
:104EF000570000002100240027002A002D00300068
:104F0000330001010000040107010A010000200034
:104F10002300260029002C002F0032000001000091
:104F200003010601090100000A0B02090C0D0E081D
:104F30000703040100000000000000000000000062
:104F40000000000000000000000000000000000061
:104F5000000012111000000000000000000000001E
:104F60000000000000000000000000000000000041
:104F70000000000000000000000000005374657095
:104F80007261746520746F6F20686967683A2000E9
:104F90007C4F24F4D43050C38E20C2A24017828BA1
:104FA0007011127A910D816CD90AA861E108C75875
:104FB0006607615143061E4B5D05C145A7041A41B2
:104FC0001104093D9803713931034036DB02653322
:104FD0009102D4305402802E1D02632CEE01752AFA
:104FE000C501B028A001102781018F2564012B2461
:104FF0004B01E0223401AC211F018D200D01801FE7
:10500000FC00841EED00971DDF00B81CD200E61BDB
:10501000C600201BBC00641AB200B219A8000A190D
:10502000A0006A189900D117910040178B00B5169F
:10503000840031167E00B31579003A157300C71449
:105040006F0058146A00EE1366008813630025137E
:105050005E00C7125B006C12570015125400C1119C
:10506000510070114F0021114B00D61049008D10D6
:1050700047004610440002104200C00F4000800F5D
:105080003E00420F3C00060F3B00CB0E3800930E53
:1050900037005C0E3500270E3400F30D3200C10DD1
:1050A0003100900D3000600D2E00320D2D00050DE9
:1050B0002C00D90C2B00AE0C2900850C29005C0CAF
:1050C0002700350C27000E0C2600E80B2400C40B2B
:1050D0002400A00B23007D0B23005A0B2100390B69
:1050E0002100180B2000F80A1F00D90A1E00BB0A75
:1050F0001E009D0A1D00800A1D00630A1C00470A4D
:105100001B002C0A1B00110A1A00F7091A00DD09FE
:105110001900C4091900AB091900920917007B098D
:105120001800630917004C091600360916002009FB
:1051300016000A091500F5081500E0081400CC084F
:105140001400B8081400A4081400900813007D0887
:1051500012006B08130058081200460812003408A9
:105160001100230811001208110001081100F007B6
:105170001000E0071000D0071000C0071000B007B3
:105180000F00A107100091070E0083070F0074079E
:105190000F0065070E0057070E0049070E003B077A
:1051A0000D002E070E0020070D0013070D00060747
:1051B0000D00F9060C00ED060D00E0060C00D4060B
:1051C0000C00C8060C00BC060C00B0060C00A406BF
:1051D0000B0099060C008D060B0082060B0077066B
:1051E0000B006C060B0061060A0057060B004C060C
:1051F0000A0042060A0038060A002E060A002406A3
:105200000A001A060A001006090007060A00FD0532
:105210000900F4050900EB050900E2050900D905BC
:105220000900D0050900C7050900BE050900B5053C
:105230000800AD050800A50509009C0508009405B7
:1052400008008C050800840508007C05080074052A
:1052500008006C050700650508005D050700560598
:1052600008004E05070047050700400508003805FF
:105270000700310507002A050700230507001C0564
:105280000600160507000F050700080506000205C1
:105290000700FB040600F5040700EE040600E8041E
:1052A0000600E2040700DB040600D5040600CF0474
:1052B0000600C9040600C3040600BD040600B704C6
:1052C0000600B1040500AC040600A6040600A00414
:1052D00005009B04060095040500900406008A045E
:1052E000050085040500800406007A0405007504A5
:1052F0000500700405006B040500660405006104E8
:1053000005005C04050057040500520405004D0427
:10531000050048040500430405003E0404003A0467
:10532000050035040500300404002C0405002704A2
:105330000400230405001E0404001A0404001604DB
:105340000500110404000D04040009040500040410
:10535000040000040400FC030400F8030400F40348
:105360000400F0030400EC030400E8030400E40379
:105370000400E0030400DC030400D8030400D403A9
:105380000400D0030400CC030400C8030300C503D9
:10539000030024F404D9201BC40C5C0E9804C40937
:1053A0005F0265077101F405F900FB04B3004804CE
:1053B0008700C10369005803550003034500BE027E
:1053C0003A008402310053022A0029022500040217
:1053D0002000E4011C00C8011900AF01170098016A
:1053E00014008401130071011000610110005101CB
:1053F0000E0043010D0036010B002B010B002001B4
:105400000B00150109000C01090003010800FB0055
:105410000800F3000800EB000700E4000600DE00CF
:105420000600D8000600D2000600CC000500C70028
:105430000500C2000500BD000400B9000400B5006D
:105440000400B1000400AD000400A9000400A500A0
:105450000300A20003009F0004009B0003009800CB
:1054600003009500020093000300900003008D00EC
:1054700002008B0003008800020086000200840006
:105480000300810002007F0002007D0002007B001B
:10549000020079000200770001007600020074002B
:1054A000020072000100710002006F0002006D0036
:1054B00001006C0002006A00010069000200670040
:1054C0000100660001006500010064000200620046
:1054D000010061000100600001005F0002005D004A
:1054E00001005C0001005B0001005A00010059004E
:1054F000010058000100570001005600010055004E
:10550000010054000100530000005300010052004C
:10551000010051000100500001004F0001004E0049
:1055200000004E0001004D0001004C0001004B0046
:1055300000004B0001004A00010049000100480042
:10554000000048000100470001004600000046003E
:105550000100450000004500010044000100430037
:105560000000430001004200000042000100410031
:10557000000041000100400001003F0000003F002A
:1055800001003E0000003E0001003D0000003D0023
:1055900001003C0000003C0000003C0001003B001A
:1055A00000003B0001003A0000003A000100390011
:1055B0000000390001003800000038000000380009
:1055C00001003700000037000100360000003600FF
:1055D00000003600010035000000350000003500F5
:1055E00001003400000034000000340001003300EA
:1055F00000003300000033000100320000003200E0
:1056000000003200010031000000310000003100D4
:1056100001003000000030000000300001002F00C9
:1056200000002F0000002F0000002F0001002E00BE
:1056300000002E0000002E0001002D0000002D00B3
:1056400000002D0000002D0001002C0000002C00A7
:1056500000002C0000002C0001002B0000002B009B
:1056600000002B0000002B0001002A0000002A008F
:1056700000002A0000002A00010029000000290083
:105680000000290000002900000029000100280076
:10569000000028000000280000002800000028006A
:1056A000010027000000270000002700000027005D
:1056B0000000270001002600000026000000260050
:1056C0000000260000002600010025000000250043
:1056D0000000250000002500000025000000250036
:1056E0000100240000002400000024000000240029
:1056F000000024000100230000002300000023001C
:10570000000023000000230000002300000023000D
:105710000100220000002200000022000000220000
:1057200000002200000022000100210000002100F2
:1057300000002100000021000000210000002100E5
:1057400000002100010020000000200000002000D7
:1057500000002000000020000000200000002000C9
:105760000000200001001F0000001F0000001F00BB
:1057700000001F0000001F0000001F0000001F00AD
:1057800001001E0000001E0000001E0000001E00A0
:10579000000054726964656E69205B4162656365EF
:1057A00064615D00536F72743A20205B416C7068D5
:1057B000616265745D0054726964656E69202020C1
:1057C00020205B4361735D00536F72743A20202088
:1057D0002020205B54696D655D0053442063617235
:1057E0006420205B6E6F726D616C5D0053442063BA
:1057F000617264205B466C73684169725D00567922
:10580000626572206A617A796B610053656C6563C9
:1058100074206C616E677561676500525069207015
:105820006F7274202020205B7A61705D0052506995
:1058300020706F727420202020205B6F6E5D0052FC
:10584000506920706F7274202020205B7679705D23
:105850000052506920706F7274202020205B6F66A8
:10586000665D005465706C2E206B616C2E20205B91
:105870007A61705D0054656D702E2063616C2E201E
:1058800020205B6F6E5D005465706C2E206B616C28
:105890002E20205B7679705D0054656D702E20633C
:1058A000616C2E20205B6F66665D004B6F6E7472BC
:1058B0002E2076656E742E5B7679705D0046616E83
:1058C0007320636865636B20205B6F66665D004BC9
:1058D0006F6E74722E2076656E742E5B7A61705DC9
:1058E0000046616E7320636865636B2020205B6FE8
:1058F0006E5D0054726964656E692020205B5A6198
:10590000646E655D00536F72743A20202020202061
:105910005B4E6F6E655D00462E206175746F7A6117
:10592000762E205B7679705D00462E206175746F4F
:105930006C6F6164205B6F66665D00462E2061754A
:10594000746F7A61762E205B7A61705D00462E203E
:105950006175746F6C6F616420205B6F6E5D0046D3
:105960002E206175746F7A61762E205B4E2F415D1B
:1059700000462E206175746F6C6F6164205B4E2F42
:10598000415D0046696C2E2073656E7A6F72205BF4
:105990004E2F415D0046696C2E2073656E736F72E9
:1059A000205B4E2F415D005679706E6F7574206DCF
:1059B0006F746F72790044697361626C65207374EF
:1059C00065707065727300506F73756E6F757420BB
:1059D0006F7375004D6F766520617869730054654B
:1059E000706C6F74610054656D706572617475726E
:1059F00065004739390044697361626C65206661EE
:105A0000726D206D6F64653F00A4579257C857B6FA
:105A100057DA57EC570B58FE572D581B5851583F23
:105A2000584661726D206E756D62657200755863BF
:105A3000589958875844697361626C652066617231
:105A40006D206D6F646500BD58AB58E158CF5805A7
:105A500059F358295917594D593B5971595F59955F
:105A60005983594D383400B659A759D459C759E606
:105A700059DE59526573656E643A20004B494C4CAF
:105A800045442E20005072696E7465722068616C06
:105A90007465642E206B696C6C28292063616C6CC2
:105AA000656421004D32323120496E76616C696443
:105AB00020657874727564657220004D323138202B
:105AC000496E76616C69642065787472756465727C
:105AD00020004D31303920496E76616C6964206553
