:100000000C9466330C9497330C9497330C94973379
:100010000C9497330C9471B00C9497330C949733E1
:100020000C9475B30C9497330C9497330C943098CC
:100030000C9497330D943F3E0C9497330C94973364
:100040000C9497330D9497460C9497330C949733F4
:100050000C9497330C9497330C942EB60D94F03F78
:100060000C9497330D9400850C9497330C9497332C
:100070000C9497330C9497330C9497330C949733D8
:100080000C9497330C9497330C9497330C949733C8
:100090000D94BC840C9497330C9497330C94973341
:1000A0000C9497330C9497330C9497330C949733A8
:1000B0000C9497330C9497330C9497330C94973398
:1000C0000C9497330C9497330C9497330C94973388
:1000D0000C9497330C9497330C9497330C94973378
:1000E0000C949733CC01D401AC019001AA01940186
:1000F0005801DA01480138014A016A018201B80158
:100100005C015C015C014601460146014201C401FB
:100110004601A001EE0144017201BE013E016601EB
:10012000E2012A01B201320162017E01540174012F
:1001300066015E0134017A0128014C016C01EC0179
:1001400078018C0188015001DC01D601A2019201E5
:10015000B00168018C012C01A8018E01D8018A012F
:10016000D2015A01360184019E01E8017C01EA01B5
:10017000C20180019801F201C0019A01A401AE01FF
:100180003A01084AD73B3BCE016E84BCBFFDC12F6C
:100190003D6C74319ABD56833DDA3D00C77F11BE78
:1001A000D9E4BB4C3E916BAAAABE000000803F057B
:1001B000A84CCDB2D44EB93836A9020C50B99186AC
:1001C00088083CA6AAAA2ABE000000803F07634216
:1001D00036B79BD8A71A39685618AEBAAB558C1DDE
:1001E0003CB7CC5763BD6DEDFD753EF6177231BF60
:1001F000000000803F08000000BE922449123EAB80
:10020000AAAA2ABECDCCCC4C3E00000080BEABAA30
:10021000AAAA3E00000000BF000000803F000000CE
:100220000000084178D3BB4387D1133D190E3CC36E
:10023000BD4282AD2B3E68EC8276BED98FE1A93EED
:100240004C80EFFFBE01C4FF7F3F000000000000B4
:100250000D94013F0D94383D0D947A3F0D94752C0B
:100260000D94A2700D94423D0D945E3D0D946486F4
:100270000D9473300D94A58D0D947C9B0D94293DA8
:100280000D94FC2D0D94F7300D94303D0D941531E7
:100290000D9463300D9490300D94063F0D94310E03
:1002A0000D94313F0D94EC080D94503D0D94710C5C
:1002B0000D94812F0D944F860D94EF300D945A3D7F
:1002C0000D948D3D0D94463D0D940A930D94673D1C
:1002D0000D94703F0D94AE300D940B3F0D946A97C2
:1002E0000D94BE960D941F3D0D94543D0D943D12FA
:1002F0000D941F3F0D94623D0D94C28C0D944C3DA6
:100300000D94FA8C0D94DF300D947D860D947A2B2C
:100310000D94293F0D9442860D94983F0D948E3F85
:100320000D94262F0D94573F0D94652F0D94E73CA7
:100330000D941F8D0D944B8D0D94C7960D94A8862A
:100340000D9401310D944D3F0D94618D0D948B2BC7
:100350000D94843F0D94372F0D94102F0D947C8DA8
:100360000D94663F0D943E3D0D940C860D94BCABF0
:100370000D94E7300D9481090D941B920D94233D4B
:100380000D94308D0D94DE8C0D9425310D94955186
:100390000D94A7700D94EF2D0D94E72E0D94812BE5
:1003A0000D942CB70D9447860D94FE2E0D94433F6B
:1003B0000D943E860D9439300D94393F0D942E2BBB
:1003C0000D94DB350D94343D0D949F310D945A2ED0
:1003D0000D94D5860D94D88C0D94153F0D942D3D1C
:1003E0000D94732B0D94258D446574656B6F766148
:1003F0006E206E6172617A2E0043726173682064B0
:10040000657465637465642E005344207072696E70
:1004100074696E672062797465200050726F736929
:100420006D20616B7475616C697A756A74652E00F4
:10043000506C6561736520757067726164652E002C
:100440005679736C61206E6F7661207665727A657D
:10045000206669726D776172653A004E6577206635
:1004600069726D776172652076657273696F6E204F
:10047000617661696C61626C653A006120737469D0
:10048000736B6E65746520746C616369746B6F0067
:10049000616E6420707265737320746865206B6E82
:1004A0006F6200566C6F7A74652066696C616D6569
:1004B0006E7400496E736572742066696C616D6557
:1004C0006E74004261727661206E656E69206369A8
:1004D00073746100436F6C6F72206E6F7420636F72
:1004E00072726563740046696C616D656E74206E2E
:1004F000657A61766564656E0046696C616D656EEE
:1005000074206E6F74206C6F616465640056796D41
:10051000656E61206F6B3F004368616E67656420A4
:10052000636F72726563746C793F004369737465BD
:100530006E69206261727679004C6F6164696E67E2
:1005400020636F6C6F72005A6D656E6120757370F9
:1005500065736E6121004368616E67652073756322
:100560006365737321004578747275646572005613
:100570007962657274652065787472756465723A23
:100580000043686F6F736520657874727564657277
:100590003A004163746976652045787472756465C4
:1005A000723A2000496E76616C69642065787472D5
:1005B000756465720050726F73696D206F74657633
:1005C000726574652069646C65722061206D616E6E
:1005D00075616C6E65206F64737472616E746520F2
:1005E00066696C616D656E742E00506C6561736533
:1005F000206F70656E2069646C657220616E642086
:1006000072656D6F76652066696C616D656E7420CC
:100610006D616E75616C6C792E0042796C6F20761D
:100620007973756E7574692066696C616D656E7439
:10063000752075737065736E653F00576173206632
:10064000696C616D656E7420756E6C6F616420738A
:1006500075636365737366756C3F0050726F736981
:100660006D2076796A6D6574652075727963686C42
:10067000656E652066696C616D656E7400506C65B1
:100680006173652070756C6C206F75742066696C81
:10069000616D656E7420696D6D6564696174656C0A
:1006A00079005679736F7576616D2066696C616D3E
:1006B000656E7400556E6C6F6164696E6720666963
:1006C0006C616D656E740050726F206E616872614E
:1006D000746920747279736B79206120706F6B720A
:1006E00061636F76616E6920737469736B6E657494
:1006F0006520746C616369746B6F2E005072657352
:1007000073206B6E6F6220746F2070726568656114
:1007100074206E6F7A7A6C6520616E6420636F6EF0
:1007200074696E75652E0050726F20767973756EE0
:100730007574692066696C616D656E74752073747B
:1007400069736B6E6574652070726F73696D207468
:100750006C616369746B6F00506C656173652070C8
:100760007265737320746865206B6E6F6220746F9E
:1007700020756E6C6F61642066696C616D656E7466
:10078000005A204F666673657400556E6B6E6F7706
:100790006E20636F6D6D616E643A2022004D3230C1
:1007A0003020496E76616C69642065787472756476
:1007B000657220007A5F6D61783A20007A5F6D691A
:1007C0006E3A2000795F6D61783A2000795F6D693B
:1007D0006E3A2000785F6D61783A20006F70656E28
:1007E0000054524947474552454400785F6D696E51
:1007F0003A20005265706F7274696E6720656E648E
:1008000073746F70207374617475730020436F7517
:100810006E7420583A20004649524D574152455F68
:100820004E414D453A4D61726C696E2056312E3005
:100830002E323B20537072696E7465722F6772623C
:100840006C206D617368757020666F722067656ECD
:1008500036204649524D574152455F55524C3A68F1
:10086000747470733A2F2F6769746875622E636FA2
:100870006D2F707275736133642F50727573612DB3
:1008800069332D506C75732F2050524F544F434F86
:100890004C5F56455253494F4E3A312E30204D4110
:1008A0004348494E455F545950453A5072757361FB
:1008B000206933204D4B33204558545255444552FE
:1008C0005F434F554E543A3120555549443A3030E4
:1008D0003030303030302D303030302D303030301E
:1008E0002D303030302D303030303030303030300E
:1008F00030300A004F666600456E642066696C659C
:10090000206C69737400426567696E2066696C6566
:10091000206C697374004E6F206D6F76652E004FEA
:10092000626E6F76656E69207469736B75005265CF
:1009300073756D696E67207072696E7400576169B6
:100940007420666F7220757365722E2E2E004B61B7
:100950006C696272616365205A2073656C68616CB2
:10096000612E2053656E736F72207365706E756CA7
:10097000207072696C6973207679736F6B6F2E20AB
:1009800043656B616D206E612072657365742E0026
:10099000426564206C6576656C696E672066616986
:1009A0006C65642E2053656E736F72207472696774
:1009B000676572656420746F6F20686967682E20B0
:1009C00057616974696E6720666F7220726573651E
:1009D000742E004B616C696272616365205A2073EA
:1009E000656C68616C612E2053656E736F72206A4E
:1009F00065206F64706F6A656E79206E65626F2026
:100A0000707265727573656E79206B6162656C2EAC
:100A10002043656B616D206E612072657365742E75
:100A200000426564206C6576656C696E672066615E
:100A3000696C65642E2053656E736F7220646973F0
:100A4000636F6E6E6563746564206F7220636162AC
:100A50006C652062726F6B656E2E205761697469D8
:100A60006E6720666F722072657365742E004B612D
:100A70006C696272616365205A2073656C68616C91
:100A8000612E2053656E736F72206E657365706E94
:100A9000756C2E205A6E6563697374656E6120747F
:100AA0007279736B613F2043656B616D206E6120CD
:100AB00072657365742E00426564206C6576656CA2
:100AC000696E67206661696C65642E2053656E737C
:100AD0006F72206469646E742074726967676572EE
:100AE0002E20446562726973206F6E206E6F7A7A71
:100AF0006C653F2057616974696E6720666F72206C
:100B000072657365742E005465706C6F746E692025
:100B10006B616C69627261636520646F6B6F6E6399
:100B2000656E612E20506F6B726163756A7465200B
:100B3000737469736B656D20746C616369746B6148
:100B40002E0054656D706572617475726520636105
:100B50006C6962726174696F6E2069732066696E78
:100B600069736865642E20436C69636B20746F2021
:100B7000636F6E74696E75652E004F647374726175
:100B80006E7465207469736B6F767920706C617414
:100B9000207A20686561746265642070726F736981
:100BA0006D2E00506C656173652072656D6F7665A2
:100BB00020737465656C2073686565742066726F58
:100BC0006D20686561746265642E00537461626CA7
:100BD0006520616D6269656E742074656D70657203
:100BE00061747572652032312D323643206973206D
:100BF0006E6565646564206120726967696420734D
:100C000074616E64206973207265717569726564C0
:100C10002E00536C6565702E2E2E004352415348B2
:100C20005F5245434F5645520047323820582059AD
:100C300000F903E8030A002F0009040A002E00440B
:100C4000656C6574696F6E206661696C65642C20E3
:100C500046696C653A200046696C652064656C6580
:100C60007465643A002E0020573A0020453A00543B
:100C70003A0030041B04005B044004504944204106
:100C800075746F74756E652066696E6973686564E6
:100C9000212050757420746865206C617374204B3A
:100CA000702C204B6920616E64204B6420636F6E52
:100CB0007374616E74732066726F6D2061626F76FB
:100CC0006520696E746F20436F6E66696775726127
:100CD00074696F6E2E6800504944204175746F74BA
:100CE000756E65206661696C6564212074696D6547
:100CF0006F75740020403A00543A00423A0050495F
:100D000044204175746F74756E65206661696C6509
:100D100064212054656D706572617475726520740C
:100D20006F6F206869676800204B643A2000204B91
:100D3000693A2000204B703A200020436C617373A5
:100D400069632050494420002054753A2000204B0C
:100D5000753A2000206D61783A2000206D696E3A66
:100D6000200020643A200020626961733A20005319
:100D7000657474696E67732053746F72656400469E
:100D8000696C616D656E742073657474696E6773E8
:100D90003A2044697361626C6564002020204D3202
:100DA000303020440046696C616D656E7420736557
:100DB0007474696E67733A002020204D32303920F8
:100DC00053004175746F2D526574726163743A20DB
:100DD000533D3020746F2064697361626C652C2010
:100DE0003120746F20696E7465727072657420654D
:100DF0007874727564652D6F6E6C79206D6F766591
:100E000073206173207265747261637473206F72F2
:100E1000207265636F7665726965730020460020F5
:100E200020204D3230382053005265636F76657252
:100E30003A20533D4578747261206C656E67746822
:100E400020286D6D2920463A537065656420286D11
:100E50006D2F6D2900205A002046002020204D32A1
:100E60003037205300526574726163743A20533DE9
:100E70004C656E67746820286D6D2920463A537062
:100E800065656420286D6D2F6D29205A3A205A4CD3
:100E900069667420286D6D290020440020490020D7
:100EA00020204D3330342050005049442068656183
:100EB000746265642073657474696E67733A0020A8
:100EC00044002049002020204D3330312050005074
:100ED00049442073657474696E67733A00205A0040
:100EE00020590020204D323036205800486F6D6563
:100EF000206F666673657420286D6D293A00204561
:100F000000205A00205900205800204200205400A0
:100F100020204D323035205300416476616E636588
:100F200064207661726961626C65733A20533D4D4D
:100F3000696E20666565647261746520286D6D2F29
:100F400073292C20543D4D696E2074726176656C56
:100F500020666565647261746520286D6D2F732944
:100F60002C20423D6D696E696D756D207365676DEE
:100F7000656E742074696D6520286D73292C205866
:100F80003D6D6178696D756D205859206A65726B89
:100F900020286D6D2F73292C20205A3D6D617869B2
:100FA0006D756D205A206A65726B20286D6D2F73E8
:100FB000292C2020453D6D6178696D756D20452097
:100FC0006A65726B20286D6D2F73290020540020F4
:100FD000204D323034205300416363656C6572618B
:100FE00074696F6E3A20533D616363656C6572612D
:100FF00074696F6E2C20543D726574726163742045
:10100000616363656C65726174696F6E0020450091
:10101000205A0020590020204D3230312058004DF8
:101020006178696D756D20416363656C657261748B
:10103000696F6E20286D6D2F7332293A00204500AC
:10104000205A0020590020204D3230332058004DC6
:101050006178696D756D206665656472617465732C
:1010600020286D6D2F73293A00204500205A00205A
:10107000590020204D393220580053746570732078
:1010800070657220756E69743A0090047B04B30435
:10109000A304D404C304F904E60418050D053905B6
:1010A0002B0556054705416476616E6365204B3D0F
:1010B000004B206F7574206F6620616C6C6F7765D4
:1010C000642072616E67652100746D633231333064
:1010D0005F7072696E745F63757272656E74732887
:1010E000290A094809520A580925640925640A5938
:1010F0000925640925640A5A0925640925640A45F5
:101100000925640925640A00660581056F05222802
:101110003229009205A4055400496E76616C696419
:10112000205420636F64652E00556E6B6E6F776E72
:10113000204D20636F64653A202573200A004D32EC
:1011400032302053256900EA05B5053B061A067DB5
:10115000065B06B406A206FC06C70658072707204A
:101160003A20000081074C414E472053454C204611
:101170004F524345440022283129008A079D07B475
:1011800007BC07C407CC07D407DC07E107EB07F36C
:101190000720453A00205A3A0020593A000C08200E
:1011A000453A00205A3A0020593A00583A001708A8
:1011B0004D3131332053002E002000F40820423AF4
:1011C0000020453A00543A0020413A0020503A00AD
:1011D0002042403A0020403A00202F003A0020549C
:1011E00000202F0020423A00202F006F6B20543A3D
:1011F000002569206D696E2C2025692073656300C8
:10120000F808060916092E091F093D09496E76617D
:101210006C6964204D20636F64653A202573200A51
:1012200000556E6B6E6F776E204720636F64653A72
:10123000202573200A004D65736820626564206C68
:101240006576656C696E67206E6F74206163746982
:1012500076652E000A002020000A4D6561737572C4
:10126000656420706F696E74733A000A5A20736562
:1012700061726368206865696768743A20002C00B1
:101280004E756D20582C593A2000206D6963726F9D
:101290006E73004578636573736976652062656473
:1012A000206C6576656C696E6720636F727265632A
:1012B00074696F6E3A200090094E09210AD309B76C
:1012C0000A6E0A473238205730003A2000420B0796
:1012D0000B54656D70657261747572652063616C25
:1012E0006962726174696F6E20646F6E652E20434F
:1012F0006F6E74696E7565207769746820707265A9
:101300007373696E6720746865206B6E6F622E0060
:1013100000205A20736869667420286D6D293A0090
:1013200050494E44412074656D70657261747572E8
:10133000653A2000002F3600537465703A20000093
:10134000205A20736869667420286D6D293A005010
:10135000494E44412074656D7065726174757265A3
:101360003A20002F36002F362028736B6970706585
:10137000642900537465703A2000005A45524F3A70
:1013800020000073746172742074656D7065726101
:10139000747572653A200050494E44412070726F56
:1013A00062652063616C6962726174696F6E20733B
:1013B000746172740047323820573000A30B7A0BE7
:1013C000CB0B0A00205A3A200020593A200020581E
:1013D0003A2000120C5641524F56414E493A204E87
:1013E000657A6E616D612C206E65706F64706F72CE
:1013F0006F76616E61207665727A65206669726DBE
:10140000776172652E20506F757A697469206E61FC
:1014100020766C6173746E69206E6562657A7065A2
:10142000636921005741524E494E473A205468693A
:101430007320697320616E20756E6F6666696369DB
:10144000616C2C20756E737570706F72746564209A
:101450006275696C642E2055736520617420796F04
:101460007572206F776E207269736B2100507275F0
:101470007361206933204D4B33206F6B00507275C0
:101480007361206933204D4B332072656164792E7E
:1014900000446574656B6F76616E20767970616467
:1014A000656B2070726F7564752E4F626E6F766912
:1014B00074207469736B3F00426C61636B6F757469
:1014C000206F636375727265642E205265636F7658
:1014D0006572207072696E743F0050726F206B618C
:1014E0006C69627261636920707265736E65686FA2
:1014F000207265686F6D6F76616E692062756465D4
:10150000206E796E69207370757374656E207365D3
:101510006C66746573742E0053656C6674657374C1
:101520002077696C6C2062652072756E20746F2064
:1015300063616C6962726174652061636375726175
:1015400074652073656E736F726C6573732072655A
:10155000686F6D696E672E004E656E69207A6B61EB
:101560006C6962726F76616E6120767A64616C6517
:101570006E6F737420747279736B79206F6420744A
:1015800069736B6F766520706F646C6F7A6B792E00
:1015900020506F73747570756A74652070726F7304
:1015A000696D20706F646C65206D616E75616C751E
:1015B0002C206B617069746F6C61205A6163696E75
:1015C000616D652C206F64737461766563204E6174
:1015D00073746176656E69207072766E69207672BA
:1015E000737476792E0044697374616E636520624A
:1015F00065747765656E20746970206F6620746805
:1016000065206E6F7A7A6C6520616E6420746865FF
:10161000206265642073757266616365206861731A
:10162000206E6F74206265656E2073657420796525
:10163000742E20506C6561736520666F6C6C6F77DB
:1016400020746865206D616E75616C2C2063686123
:101650007074657220466972737420737465707358
:101660002C2073656374696F6E20466972737420F1
:101670006C617965722063616C6962726174696F13
:101680006E2E005469736B61726E61206E656279B3
:101690006C61206A65737465207A6B616C69627233
:1016A0006F76616E612E20506F73747570756A74F9
:1016B000652070726F73696D20706F646C65206D4A
:1016C000616E75616C752C206B617069746F6C61F3
:1016D000205A6163696E616D652C206F647374615B
:1016E00076656320506F73747570206B616C6962EE
:1016F000726163652E005072696E74657220686154
:1017000073206E6F74206265656E2063616C696220
:101710007261746564207965742E20506C65617304
:101720006520666F6C6C6F7720746865206D616EE4
:1017300075616C2C206368617074657220466972F3
:1017400073742073746570732C2073656374696F90
:101750006E2043616C6962726174696F6E20666CA1
:101760006F772E004E65706C61746E6520686F64D3
:101770006E6F7479206E6173746176656E692E2068
:101780004275646520706F757A69746F207679632D
:10179000686F7A69205049442C20457374657073D2
:1017A000206174642E004F6C642073657474696EDC
:1017B000677320666F756E642E2044656661756C74
:1017C00074205049442C20457374657073206574EF
:1017D000632E2077696C6C206265207365742E001F
:1017E0002020506C616E6E6572427566666572424D
:1017F000797465733A20002046726565204D656DE9
:101800006F72793A2000207C20417574686F723ABB
:101810002000204C61737420557064617465643AD3
:10182000200020536F66747761726520526573657E
:101830007400205761746368646F67205265736534
:1018400074002042726F776E206F7574205265733A
:101850006574002045787465726E616C2052657302
:10186000657400506F7765725570006572726F72A3
:101870002077726974696E6720746F2066696C6581
:1018800000656E6473746F7073206869743A200029
:10189000446F6E6520736176696E672066696C655A
:1018A0002E006F6B00202D20496E76616C696420DC
:1018B0006578747275646572206E756D62657220EC
:1018C00021001B5B324A1B5B313B31484F72696719
:1018D000696E616C2050727573612069331B5B32D5
:1018E0003B33485072757361205265736561726352
:1018F0006800466163746F72792052455345540005
:101900002414D5137D146D14B81491141815DA1419
:10191000E6155815F6168316A6176417E017F7177D
:101920004D6172202031203230313800436F6D70AC
:10193000696C65643A2000286E6F6E652C206465C2
:101940006661756C7420636F6E666967290006189E
:101950004D617220203120323031382032333A301C
:10196000333A3030001218221832184218531863D4
:101970001820332E312E322D3233310A0073746128
:101980007274002055706C6F616420696E207072F3
:101990006F6772657373006B185A00205A3A0059CA
:1019A0000020593A00580020583A0081184D36302E
:1019B0003000473120453320463230300047312057
:1019C000452D3320463230300043524153485F4466
:1019D0004554454354454458590043524153485F88
:1019E0004445544543544544590043524153485F8C
:1019F000444554454354454458009018A2184D326C
:101A00003900207A203900206F662039004D657238
:101A1000696D207265666572656E636E69207679A0
:101A2000736B75206B616C69627261636E69686F5C
:101A300020626F6475004D6561737572696E672011
:101A40007265666572656E6365206865696768744E
:101A5000206F662063616C6962726174696F6E20C9
:101A6000706F696E740020746F6F206C6F6E6720EA
:101A7000657874727573696F6E2070726576656EC5
:101A80007465640020636F6C64206578747275738C
:101A9000696F6E2070726576656E74656400457856
:101AA00072656D65207370616E206F662074686565
:101AB000205A2076616C756573210000004041FF5B
:101AC000FFBF400000E442FFFFBF4000005743FF5C
:101AD000FFBF40000057430000CC420000E442003A
:101AE00000CC42000040410000CC420000404100D8
:101AF0000046430000E44200004643000057430014
:101B0000004643071A021A361A0D1A062833D03631
:101B1000C23E013F154132423B43F2443B45F2464F
:101B200022473B48F2493B4AF05898590C5A085B07
:101B30000C5C086110679B6E2271077208FF095ADE
:101B40000D000EFF19045E0820642B6D322FFF6616
:101B50001A841A656E717565696E67202200446F7C
:101B60006E65207072696E74696E672066696C6557
:101B70000053544F505045442E20005072696E74EB
:101B800065722073746F707065642064756520746D
:101B90006F206572726F72732E20466978207468A8
:101BA00065206572726F7220616E642075736520A6
:101BB0004D39393920746F20726573746172742ED7
:101BC000202854656D706572617475726520697343
:101BD0002072657365742E205365742069742061CA
:101BE000667465722072657374617274696E6729B8
:101BF000004E6F204C696E65204E756D62657220D7
:101C00007769746820636865636B73756D2C204C0D
:101C1000617374204C696E653A20004E6F204368F2
:101C200065636B73756D2077697468206C696E6588
:101C3000206E756D6265722C204C617374204C6946
:101C40006E653A2000636865636B73756D206D691E
:101C5000736D617463682C204C617374204C696EE1
:101C6000653A20004C696E65204E756D6265722084
:101C70006973206E6F74204C617374204C696E65BB
:101C8000204E756D6265722B312C204C617374206F
:101C90004C696E653A200022206661696C65643A81
:101CA000204275666665722066756C6C21002200A4
:101CB000531B256920686F757273202569206D6933
:101CC0006E75746573005E1B54494D454F55543A0B
:101CD00000711B7B1BF11B1B1C451C641C4D31310F
:101CE000300046756C6C20525820427566666572ED
:101CF000004F626E6F766F76616E69207469736BE8
:101D00007520202020005265636F766572696E67CA
:101D1000207072696E74202020200055564C4F2090
:101D20002D20656E64007374707300494E54340046
:101D300029002C20002C2000776F726C6420636FC8
:101D40006F7264696E617465733A20280029002CF3
:101D500020002C2000706879736963616C20636FC8
:101D60006F7264696E617465733A202800726563EE
:101D70006F7665725F6D616368696E655F737461CC
:101D800074655F61667465725F706F7765725F70AE
:101D9000616E69632C20696E697469616C200072E0
:101DA00065636F7665725F6D616368696E655F73A9
:101DB000746174655F61667465725F706F77657278
:101DC0005F70616E69632C20696E697469616C2053
:101DD000004739322045004D3234004D3236205311
:101DE000256C75004D3130362053004D3832004798
:101DF00031204625640047312045322A31204634BF
:101E00003830004731205A00204632303030002030
:101E1000590047312058004D383300506F736974B2
:101E2000696F6E20726561642066726F6D206565F2
:101E300070726F6D3A004D3233202573002E676348
:101E40006F0046656564726174653A00637572720D
:101E5000656E745F706F736974696F6E5B455F4127
:101E60005849535D3A0063757272656E745F706FA6
:101E7000736974696F6E5B5A5F415849535D3A00EC
:101E800043757272656E7420706F736974696F6EDA
:101E900020595F415849533A0043757272656E7418
:101EA00020706F736974696F6E20585F4158495391
:101EB0003A0041667465722077616974696E6720C3
:101EC000666F722074656D703A00473120452D3180
:101ED00020463438300047312045352046313230F5
:101EE000004D3833004D31393020532564004D31D9
:101EF0003039205325640047323820582059004794
:101F000031205A32352046383030004D31343020BF
:101F1000532564004D3130342053256400061DF1F3
:101F20001C627573793A2070617573656420666F01
:101F30007220696E70757400627573793A207061F1
:101F40007573656420666F722075736572006275C3
:101F500073793A2070726F63657373696E670000FE
:101F6000002110422063308440A550C660E770080D
:101F70008129914AA16BB18CC1ADD1CEE1EFF13194
:101F800012100273325222B5529442F772D662395D
:101F90009318837BB35AA3BDD39CC3FFF3DEE362E4
:101FA00024433420040114E664C774A44485546AAD
:101FB000A54BB528850995EEE5CFF5ACC58DD55374
:101FC00036722611163006D776F6669556B4465BFD
:101FD000B77AA719973887DFF7FEE79DD7BCC7C444
:101FE00048E5588668A7784008611802282338CC4D
:101FF000C9EDD98EE9AFF9488969990AA92BB9F5D4
:102000005AD44AB77A966A711A500A333A122AFD9C
:10201000DBDCCBBFFB9EEB799B588B3BBB1AABA6A3
:102020006C877CE44CC55C222C033C600C411CAEEC
:10203000ED8FFDECCDCDDD2AAD0BBD688D499D97B3
:102040007EB66ED55EF44E133E322E511E700E9F3C
:10205000FFBEEFDDDFFCCF1BBF3AAF599F788F8803
:1020600091A981CAB1EBA10CD12DC14EF16FE180D4
:1020700010A100C230E3200450254046706760B9CB
:10208000839893FBA3DAB33DC31CD37FE35EF3B124
:10209000029012F322D2323542145277625672EA1B
:1020A000B5CBA5A89589856EF54FE52CD50DC5E274
:1020B00034C324A01481046674476424540544DBAB
:1020C000A7FAB79987B8975FE77EF71DC73CD7D3C4
:1020D00026F2369106B01657667676154634564C7B
:1020E000D96DC90EF92FE9C899E9898AB9ABA94414
:1020F00058654806782768C018E1088238A3287D0B
:10210000CB5CDB3FEB1EFBF98BD89BBBAB9ABB7563
:102110004A545A376A167AF10AD01AB32A923A2EDA
:10212000FD0FED6CDD4DCDAABD8BADE89DC98D26B3
:102130007C076C645C454CA23C832CE01CC10C1FEA
:10214000EF3EFF5DCF7CDF9BAFBABFD98FF89F1703
:102150006E367E554E745E932EB23ED10EF01E7CCE
:102160003C3E5E2B3D3F2F5B5D3B2C2A225C0010EA
:1021700000C90210012C014001220170011801B0B8
:10218000010E01F00104015002FA00B002F000302B
:1021900003E600D003DC009004D2007005C800A064
:1021A00006BE000008B400B009AA00D00BA0006071
:1021B0000E960060118C000015820020197800C076
:1021C0001D6E00A0226400B0275A00902C50000021
:1021D000314600E0343C0010383200903A2800606C
:1021E0003C1E00A03D1400803E0A00203F00004538
:1021F00072723A205052494E542046414E20455268
:10220000524F52005072696E742066616E20737076
:10221000656564206973206C6F77657220746865EA
:102220006E206578706563746564004572723A204B
:10223000455854522E2046414E204552524F52008E
:1022400045787472756465722066616E207370657E
:102250006564206973206C6F776572207468656EA1
:10226000206578706563746564002F2F2061637446
:10227000696F6E3A70617573650070012C01900191
:102280002701B0012201C0011D01F0011801100257
:10229000130130020E016002090190020401C00224
:1022A000FF000003FA004003F5008003F000D003B4
:1022B000EB002004E6007004E100E004DC004005CF
:1022C000D700C005D2004006CD00D006C800800768
:1022D000C3003008BE00F008B900C009B400B00A5D
:1022E000AF00B00BAA00D00CA500000EA000500F4C
:1022F0009B00C01096005012910000148C00C01575
:102300008700B0178200B0197D00D01B7800001E36
:10231000730040206E0090226900F0246400402782
:102320005F0090295A00E02B5500102E50002030FD
:102330004B0010324600E033410090353C0010372E
:10234000370070383200A0392D00B03A2800A03B89
:102350002300603C1E00103D1900903D1400103E0B
:102360000F00703E0A00C03E0500003F00009013C1
:102370007D00B0157800F0177300601A6E00F01C35
:102380006900A01F640050225F0020255A00E0274A
:102390005500902A5000202D4B00A02F4600F03110
:1023A000410010343C00F0353700A03732002039AE
:1023B0002D00603A2800703B2300603C1E00203D49
:1023C0001900C03D1400403E0F00A03E0A00F03E40
:1023D0000500403F0000703FFBFF903FF6FFB03F1D
:1023E000F1FFC03FECFFD03FE7FFE03FE2FFF03FEF
:1023F000DDFFF03FD8FF20484F54454E442054485D
:1024000045524D414C2052554E41574159002048AC
:1024100045415442454420544845524D414C205278
:10242000554E4157415900544845524D414C205258
:10243000554E415741590042454420544845524D5C
:10244000414C2052554E4157415900205448455265
:102450004D414C2052554E41574159202820505251
:10246000454845415420484F54454E442900205486
:102470004845524D414C2052554E41574159202814
:102480002050524548454154204845415442454416
:10249000290050524548454154204552524F520060
:1024A0004245442050524548454154204552524FE0
:1024B00052004572723A204D415854454D50003AF1
:1024C00020457874727564657220737769746368E7
:1024D0006564206F66662E204D415854454D50204E
:1024E0007472696767657265642021004572723A8B
:1024F000204D415854454D50204245440054656D8F
:1025000070657261747572652068656174656420B8
:10251000626564207377697463686564206F6666BA
:102520002E204D415854454D50207472696767659F
:102530007265642021004572723A204D494E54451F
:102540004D50204245440054656D7065726174754C
:1025500072652068656174656420626564207377C4
:10256000697463686564206F66662E204D494E5419
:10257000454D50207472696767657265642021005B
:102580004572723A204D494E54454D50003A20450F
:1025900078747275646572207377697463686564B2
:1025A000206F66662E204D494E54454D5020747262
:1025B000696767657265642021005A63686C6164AD
:1025C000697400436F6F6C646F776E0054657A6B4B
:1025D00065207A6B6F73656E693A00536576657234
:1025E0006520736B65773A004C65686B65207A6B84
:1025F0006F73656E693A00536C6967687420736B1A
:1026000065773A004D6572656E65207A6B6F73650C
:102610006E693A004D6561737572656420736B6510
:10262000773A0050726176793A0052696768743A75
:10263000004C6576793A004C6566743A005920760C
:102640007A64616C656E6F7374206F64206D696E5F
:102650003A00592064697374616E63652066726F15
:102660006D206D696E3A004E617065746900566F39
:102670006C7461676573005465706C6F7479005495
:10268000656D7065726174757265730053746176FF
:102690002072656D656E750042656C74207374619F
:1026A00074757300457874727564657220696E661E
:1026B0006F0044657461696C792058595A206B61C8
:1026C0006C2E0058595A2063616C2E206465746129
:1026D000696C7300446174756D3A00446174653AC5
:1026E00000686F77746F2E707275736133642E6338
:1026F0007A00686F77746F2E707275736133642E11
:10270000636F6D00666F72756D2E707275736133D5
:10271000642E637A00666F72756D2E7072757361C8
:1027200033642E636F6D00707275736133642E6352
:102730007A00707275736133642E636F6D001B5B7A
:10274000303B3048546F74616C206661696C7572FF
:1027500065731B5B313B3148506F77657220666152
:10276000696C757265732020252D33641B5B323BC9
:10277000314846696C616D2E2072756E6F75747389
:102780002020252D33641B5B333B3148437261733A
:102790006820205820252D336420205920252D33F2
:1027A00064001B5B303B30484C617374207072696D
:1027B0006E74206661696C757265731B5B313B31A9
:1027C00048506F776572206661696C757265732019
:1027D00020252D33641B5B323B314846696C616DAB
:1027E0002E2072756E6F7574732020252D33641B37
:1027F0005B333B3148437261736820205820252D9C
:10280000336420205920252D336400546F74616C8B
:10281000004C617374207072696E74001B5B323BF4
:102820003148416D6269656E743A202025642563E4
:102830001B5B333B314850494E44413A2020202015
:1028400025642563001B5B303B31484E6F7A7A6C00
:10285000653A202020256425631B5B313B314842CB
:1028600065643A20202020202025642563001B5B1E
:10287000313B31485057523A2020202020202564F7
:102880002E2530316456001B5B303B314842656C6D
:1028900074207374617475731B5B313B324858202C
:1028A00025641B5B323B32485920256400C325BA9E
:1028B00025464C4558202D20203234302F3530000D
:1028C00050502020202D20203235342F3130300040
:1028D00048495053202D20203232302F31303000E3
:1028E00041425320202D20203235352F3130300009
:1028F00050455420202D20203233302F38350050C1
:102900004C4120202D20203231352F363000666199
:10291000726D20202D20203235302F34300000DB26
:1029200025CC2500F725E8252D2D2D2D2D2D2D2D00
:102930002D2D2D2D2D2D2D2D2D2D2D2D004E2F41BD
:1029400000142604264E2F41006D6D00002A262318
:10295000263726312652263D266E2667267F267785
:102960002698268C26A426C326B2262D2D2D2D2D65
:102970002D2D2D2D2D2D2D00466C61736841697212
:1029800020495020416464723A002D2D2D2D2D2DAB
:102990002D2D2D2D2D2D004D617220203120323016
:1029A000313800DB26D4262D2D2D2D2D2D2D2D2D2E
:1029B0002D2D2D00453344763666756C6C004549E7
:1029C0004E595F30346100315F37356D6D5F4D4B6F
:1029D00033002D2D2D2D2D2D2D2D2D2D2D2D00F2B6
:1029E00026E1261527042732272727207265706FD6
:1029F00020507275736133442F4D4B330020332EBA
:102A0000312E322D323331004669726D7761726535
:102A10003A0025642E25642E25642E256400546911
:102A2000736B20707265727573656E005072696E9B
:102A3000742061626F72746564005A6173746176A8
:102A40006974207469736B0053746F7020707269BD
:102A50006E7400536F75626F72206E656B6F6D7070
:102A60006C65746E692E20506F6B7261636F766156
:102A7000743F0046696C6520696E636F6D706C65AC
:102A800074652E20436F6E74696E756520616E7972
:102A90007761793F005469736B207A20534400506A
:102AA00072696E742066726F6D20534400486C61C9
:102AB000766E69206E616269646B61004D61696E5A
:102AC0000043656B616E69206E61207A63686C619A
:102AD000646E75746920747279736B7920612070EB
:102AE0006F646C6F7A6B792E0057616974696E67D9
:102AF00020666F72206E6F7A7A6C6520616E64203A
:102B000062656420636F6F6C696E670053656C6605
:102B10002074657374204F4B0053656C6620746598
:102B200073742073746172742020002C2A1E2A484A
:102B30002A3A2A4D323400732A532A4D3233202543
:102B400073009F2A952A052E2E00BC2AAD2AE92A59
:102B5000C12A0C2B4D3834004731205A31352046DC
:102B60003130303000473238205700192B41786916
:102B700073206C656E67746820646966666572654B
:102B80006E63653A004D65617375726564206178A6
:102B90006973206C656E6774683A0025632041583C
:102BA0004953205347313D25640A005072656465DE
:102BB0006872656A746520747279736B7521005050
:102BC00072656865617420746865206E6F7A7A6CCE
:102BD00065210043485942413A004552524F523A0A
:102BE00000506F64706F726100537570706F727413
:102BF0000053746174697374696B612020005374AD
:102C000061746973746963732020004B616C69623D
:102C1000726163650043616C6962726174696F6EB1
:102C20000056796A6D6F75742066696C616D656EAA
:102C30007400556E6C6F61642066696C616D656EC1
:102C400074005A61766573742066696C616D656E97
:102C500074004C6F61642066696C616D656E740010
:102C60004175746F5A61766564656E692066696C3A
:102C70002E004175746F4C6F61642066696C616DE4
:102C8000656E74005A61646E61205344206B6172FA
:102C90007461004E6F205344206361726400506F72
:102CA0006B7261636F76617400526573756D652038
:102CB0007072696E7400506F7A61737461766974B2
:102CC000207469736B005061757365207072696E52
:102CD000740050726564656872657600507265684C
:102CE000656174004C616469740054756E650044DC
:102CF0006F6C6164656E69206F7379205A004C694E
:102D000076652061646A757374205A00496E666F37
:102D1000726D61636500496E666F207363726565ED
:102D20006E00446F6B6F6E636F76616E6920706FBB
:102D3000687962750046696E697368696E67206DAF
:102D40006F76656D656E747300437261736820649D
:102D500065742E20205B4E2F415D004372617368C5
:102D6000206465742E20205B7A61705D004372617F
:102D70007368206465742E2020205B6F6E5D0043B5
:102D800072617368206465742E20205B7679705DB3
:102D9000004372617368206465742E20205B6F6647
:102DA000665D004D6F6420202020205B53746561B8
:102DB0006C74685D004D6F6465202020205B537447
:102DC00065616C74685D004D6F64202020202020B8
:102DD0005B4E6F726D616C5D004D6F6465202020ED
:102DE00020205B4E6F726D616C5D0046696C2E2019
:102DF00073656E7A6F72205B7A61705D0046696CF4
:102E00002E2073656E736F7220205B6F6E5D0046BF
:102E1000696C2E2073656E7A6F72205B7679705DB7
:102E20000046696C2E2073656E736F72205B6F664F
:102E3000665D0056796D656E69742066696C616DBA
:102E4000656E74004368616E67652066696C616DCC
:102E5000656E7400507275746F6B00466C6F77000E
:102E6000527963686C6F73740053706565640052C7
:102E70007963686C6F73742076656E742E0046619A
:102E80006E207370656564004265640054727973E6
:102E90006B61004E6F7A7A6C65004E617374617677
:102EA000656E690053657474696E677300BF2BAB00
:102EB0002BDA2BD32B4D37303200E92BE12B466137
:102EC000696C20737461747300FE2BF12B152C0B4D
:102ED0002C322C212C522C422C722C602C466172EC
:102EE0006D206E756D62657200932C842CA92C9EEA
:102EF0002CC62CB62CDC2CD22CEA2CE42CFE2CEF8D
:102F00002C162D0C2D352D222D4D36303000492D0F
:102F10006D2D5B2D912D7F2DB52DA32DD92DC72D79
:102F2000FD2DEB2D212E0F2E442E332E5B2E542EF5
:102F3000692E602E7E2E6F2E882E932E8C2EA42E20
:102F40009A2E506F757A6520616B7475616C6E692D
:102F50000043757272656E7400506F757A6974659E
:102F600020626568656D207469736B7500557365C3
:102F70006420647572696E67207072696E740056A1
:102F8000736500416C6C00504944206B616C2E20CD
:102F9000756B6F6E63656E61005049442063616CB0
:102FA0002E2066696E697368656400504944206B21
:102FB000616C2E2020202020202020202020005066
:102FC00049442063616C2E202020202020202020D6
:102FD0002020004D313137204B616C2E20707276ED
:102FE0006E6920767273747679004D3131372046E0
:102FF00069727374206C617965722063616C2E0054
:103000004F626E6F766F76616E69207469736B754F
:1030100000526573756D696E67207072696E740019
:103020005469736B20706F7A6173746176656E009A
:103030005072696E742070617573656400512F421F
:103040002F6D2F592F832F7F2F496E76616C696406
:10305000205049442063616C2E20726573756C7436
:10306000732E204E6F742073746F72656420746FBA
:1030700020454550524F4D2E004D35303000992F90
:10308000872FBF2FAB2F4731205A3135204631359E
:103090003030004739310047312058353020593120
:1030A0003930204530204637303030004739300045
:1030B0004D373032004D3730322043004D373032FB
:1030C0002055004D373032004731205A31352046E7
:1030D0003135303000473931004731205835302004
:1030E00059313930204530204637303030004D38A6
:1030F0003300473930004D3834004D3130342053DF
:1031000030004D38340047312058313020593138A3
:1031100030204634303030004731205A313020469C
:10312000313330302E303030004D31343020533098
:10313000004D313034205330004D313037004731AD
:1031400020452D302E30373530302046323130306A
:103150002E3030303030004731205835302059354E
:10316000352045332E363237373300473120583239
:103170003030205935352045302E3439333836003B
:1031800047312058323030205937352045332E36DC
:103190003237373300473120583530205937352002
:1031A00045302E34393338360047312058353020F9
:1031B0005939352045332E363237373300473120E1
:1031C00058323030205939352045302E3439333893
:1031D00036004731205832303020593131352045C2
:1031E000332E3632373733004731205835302059A7
:1031F0003131352045302E343933383600473120CF
:1032000058353020593133352045332E3632373753
:103210003300473120583230302059313335204582
:10322000302E363631373400473120583230302096
:10323000593135352045322E363237373300473154
:103240002058313030205931353520453200473152
:103250002058373520593135352045322E35004735
:103260003120463130383000473120583530205930
:10327000313535004731204634303030004D323062
:1032800034205331303030004731205A302E313520
:10329000302046373230302E303030004731204534
:1032A0002D312E35303030302046323130302E3016
:1032B00030303030004D383300473930004732313C
:1032C000004739322045302E300047312058313008
:1032D000302E30204531322E352046313030302EE0
:1032E00030004731205836302E302045392E3020DE
:1032F00046313030302E30004739322045302E30C4
:10330000004732380047383700EA2FD32F4D31308D
:10331000392053323135004D3139302053363000A9
:103320004D31343020533630004D3130342053325B
:103330003135004D31303700113000304739300021
:103340004731204531004D383200473120453100AA
:103350004D3833004D31303620532564004D323224
:10336000302053256400303020304B616C6962722C
:10337000756A69205A0043616C6962726174696E92
:1033800067205A004974657261636520004974655D
:10339000726174696F6E2000207A203400206F669D
:1033A0002034005A6C657073756A69207072657399
:1033B0006E6F7374206B616C69627261636E6968B1
:1033C0006F20626F647500496D70726F76696E6709
:1033D000206265642063616C6962726174696F6EFA
:1033E00020706F696E74004B616C69627261636515
:1033F0002058595A207620706F7261646B752E20A8
:103400005A6B6F73656E69206275646520617574AF
:103410006F6D617469636B79207679726F766E6116
:103420006E6F20707269207469736B752E00585925
:103430005A2063616C6962726174696F6E20616C9D
:103440006C2072696768742E20536B6577207769EA
:103450006C6C20626520636F7272656374656420B2
:103460006175746F6D61746963616C6C792E004B6A
:10347000616C6962726163652058595A20762070C8
:103480006F7261646B752E20582F59206F737920ED
:103490006D69726E65207A6B6F73656E652E204460
:1034A0006F627261207072616365210058595A2001
:1034B00063616C6962726174696F6E20616C6C200B
:1034C00072696768742E20582F59206178657320BF
:1034D00061726520736C696768746C7920736B65C1
:1034E0007765642E20476F6F64206A6F6221004BFE
:1034F000616C6962726163652058595A2076207048
:103500006F7261646B752E20582F59206F7379206C
:103510006A736F75206B6F6C6D652E2047726174D6
:10352000756C756A69210058595A2063616C69622B
:10353000726174696F6E206F6B2E20582F59206155
:10354000786573206172652070657270656E64695C
:1035500063756C61722E20436F6E67726174756C57
:103560006174696F6E7321004B616C696272616393
:10357000652058595A206E65707265736E612E20F1
:103580004C65767920707265646E6920626F642084
:103590006D6F63207670726564752E0058595A20DD
:1035A00063616C6962726174696F6E20636F6D70C4
:1035B000726F6D697365642E204C65667420667247
:1035C0006F6E742063616C6962726174696F6E20E2
:1035D000706F696E74206E6F7420726561636861CC
:1035E000626C652E004B616C696272616365205884
:1035F000595A206E65707265736E612E2050726527
:10360000646E69206B616C69627261636E692062CD
:103610006F6479206D6F63207670726564752E001B
:1036200058595A2063616C6962726174696F6E20C7
:10363000636F6D70726F6D697365642E2046726F73
:103640006E742063616C6962726174696F6E207060
:103650006F696E7473206E6F742072656163686148
:10366000626C652E004B616C696272616365205803
:10367000595A2073656C68616C612E204C657679AF
:1036800020707265646E6920626F64206D6F6320C4
:103690007670726564752E2053726F766E656A74EB
:1036A00065207469736B61726E752E0058595A20CB
:1036B00063616C6962726174696F6E206661696CC6
:1036C00065642E204C6566742066726F6E7420638C
:1036D000616C6962726174696F6E20706F696E747B
:1036E000206E6F7420726561636861626C652E0084
:1036F0004B616C6962726163652058595A20736529
:103700006C68616C612E20507265646E69206B611B
:103710006C69627261636E6920626F6479206D6F9B
:1037200063207670726564752E2053726F766E65B5
:103730006A7465207469736B61726E752E005859D6
:103740005A2063616C6962726174696F6E20666190
:10375000696C65642E2046726F6E742063616C69BB
:1037600062726174696F6E20706F696E7473206E1F
:103770006F7420726561636861626C652E004B61D5
:103780006C6962726163652058595A2073656C6870
:10379000616C612E204E61686C65646E6574652095
:1037A000646F206D616E75616C752E0058595A20DA
:1037B00063616C6962726174696F6E206661696CC5
:1037C00065642E20506C6561736520636F6E737540
:1037D0006C7420746865206D616E75616C2E004B91
:1037E000616C6962726163652058595A2073656C17
:1037F00068616C612E204B616C69627261636E69F5
:1038000020626F6420706F646C6F7A6B79206E65D4
:103810006E616C657A656E2E0058595A2063616C32
:103820006962726174696F6E206661696C65642E8D
:10383000204265642063616C6962726174696F6EB5
:1038400020706F696E7420776173206E6F742066CC
:103850006F756E642E00207A203400206F6620344D
:1038600000486C6564616D206B616C6962726163B4
:103870006E6920626F6420706F646C6F7A6B790080
:10388000536561726368696E672062656420636175
:103890006C6962726174696F6E20706F696E74001A
:1038A000556D697374657465206C697374207061FB
:1038B00070697275206E6120706F646C6F7A6B75C1
:1038C0002061207564727A756A7465206A656A2061
:1038D000706F6420747279736B6F752062656865B0
:1038E0006D206D6572656E69207072766E696368B1
:1038F000203420626F64752E20506F6B75642074C5
:103900007279736B61207A61636879746920706180
:103910007069722C207679706E6574652074697395
:103920006B61726E752E00506C616365206120734F
:1039300068656574206F6620706170657220756EB1
:1039400064657220746865206E6F7A7A6C65206495
:103950007572696E67207468652063616C69627254
:103960006174696F6E206F662066697273742034AB
:1039700020706F696E74732E20496620746865200C
:103980006E6F7A7A6C652063617463686573207406
:1039900068652070617065722C20706F7765722089
:1039A0006F666620746865207072696E7465722037
:1039B000696D6D6564696174656C792E0050726F14
:1039C0002075737065736E6F75206B616C696272C0
:1039D000616369206F636973746574652070726FC9
:1039E00073696D207469736B6F766F75207472796B
:1039F000736B752E20506F74767264746520746CCE
:103A0000616369746B656D2E00506C656173652030
:103A1000636C65616E20746865206E6F7A7A6C6580
:103A200020666F722063616C6962726174696F6E87
:103A30002E20436C69636B207768656E20646F6E1F
:103A4000652E0000007F43000056439AD95143FF82
:103A5000FFFF76336A33203C20005741524E494ED7
:103A6000473A2046726F6E7420706F696E74206ED4
:103A70006F7420726561636861626C652E205920E5
:103A8000636F6F7264696E6174653A00008D338490
:103A900033497465726174696F6E3A200043616CDA
:103AA00063756C6174696F6E206F66207468652041
:103AB0006D616368696E6520736B657720616E6404
:103AC000206F6666736574206661696C65642E009C
:103AD0009D339833C733A3332E34E733AC346F347C
:103AE0002735EF349C3568352036E535AC366536FC
:103AF0003E37F036AC377E371938DF3743616C69B3
:103B000062726174696F6E206661696C6564212000
:103B1000436865636B207468652061786573206114
:103B20006E642072756E20616761696E2E005B386D
:103B30005638803861382739A038093ABD39416490
:103B40006A757374696E67205A00526573657400F4
:103B5000567A61647520205B756D5D0052656172F7
:103B60002073696465205B756D5D005670726564D5
:103B700075205B756D5D0046726F6E7420736964AD
:103B8000655B756D5D0056707261766F205B756D5B
:103B90005D00526967687420736964655B756D5D6B
:103BA00000566C65766F20205B756D5D004C656618
:103BB000742073696465205B756D5D004E6173747C
:103BC00061767465207465706C6F74753A00536526
:103BD000742074656D70657261747572653A005A0F
:103BE000003E3B4A3B5C3B503B773B6B3B923B860A
:103BF0003BAD3BA13BCE3BBC3B20003E003E00200A
:103C0000003E003E005A30005A3100593000593110
:103C100000583000583100456E642073746F707323
:103C20002064696167004E65746F63692073650085
:103C30004E6F74207370696E6E696E6700546F63A7
:103C400069207365005370696E6E696E67004C651C
:103C500076792076656E74206E6120747279736354
:103C6000653F004C65667420686F74656E642066FD
:103C7000616E3F00507265646E69207469736B6F8A
:103C800076792076656E743F0046726F6E74207090
:103C900072696E742066616E3F005465737420769D
:103CA000656E74696C61746F72750046616E207424
:103CB00065737400303C263C453C3D3C633C4E3CC7
:103CC000893C743CAB3C9A3C01021020200808104F
:103CD000204010204080020102010804020101027C
:103CE0000408102040808040201008040201800455
:103CF00002018040201008040201080402010102B0
:103D000004081020408001020408102040801008A0
:103D100004088010204004408010204004800000EF
:103D20002200250028002B002E0031003400020163
:103D30000000050108010B01050505050705080838
:103D40000808020202020A0A080804040404010125
:103D5000010101010101030303030303030304073A
:103D600007070C0C0C0C0C0C0C0C020202020606D1
:103D70000606060606060B0B0B0B0B0B0B0B0707B9
:103D80000A0A0A0A0A0A05050504040408080222A8
:103D9000206661696C65643A2042756666657220CA
:103DA00066756C6C2100456E717565696E6720746F
:103DB0006F207468652066726F6E743A2022004529
:103DC00072726F723A002200456E717565696E6796
:103DD00020746F207468652066726F6E743A2022BA
:103DE000004D3234004D3233202573006175746FFD
:103DF00025692E67004E4F524D414C0053544541AA
:103E00004C544800746D63323133305F696E6974AD
:103E100028292C206D6F64653D25530A00544D43BD
:103E200020445249564552204F56455254454D5014
:103E30002000746D63323133305F7365745F637576
:103E40007272656E745F6828617869733D25642CB1
:103E50002063757272656E743D25640A00746D632B
:103E6000323133305F7365745F63757272656E747F
:103E70005F7228617869733D25642C2063757272C6
:103E8000656E743D25640A00726573756C742076E6
:103E9000616C75653A2025640A0020693D2532640D
:103EA00020636E743D2532642076616C3D2532645A
:103EB0000A00636C7573746572733A0A0020693D79
:103EC00025326420737465703D2532640A00736F77
:103ED000727465642073616D706C65733A0A004595
:103EE0007874727564657200506F73756E6F757457
:103EF000205A004D6F7665205A00506F73756E6FB3
:103F000075742059004D6F7665205900506F737598
:103F10006E6F75742058004D6F76652058001B5BDE
:103F2000324A437261736820646574656B6365200F
:103F30006D757A651B5B313B3048627974207A611C
:103F4000706E75746120706F757A6520761B5B32B8
:103F50003B30484E6F726D616C206D6F6475001B55
:103F60005B324A4372617368206465746563746987
:103F70006F6E2063616E1B5B313B3048626520745D
:103F800075726E6564206F6E206F6E6C7920696E3D
:103F90001B5B323B30484E6F726D616C206D6F64FD
:103FA00065001B5B324A504F5A4F523A1B5B313B04
:103FB0003048437261736820646574656B63651B88
:103FC0005B323B30486465616B7469766F76616E15
:103FD000612076651B5B333B3048537465616C74BC
:103FE00068206D6F6475001B5B324A5741524E4921
:103FF0004E473A1B5B313B30484372617368206423
:104000006574656374696F6E1B5B323B304864692D
:104010007361626C656420696E1B5B333B3048538F
:104020007465616C7468206D6F6465004175746FB0
:104030006D617469636B65207A61766164656E6930
:104040002066696C616D656E747520646F7374753C
:10405000706E6520706F757A6520707269207A6164
:10406000706E7574656D2066696C616D656E742027
:1040700073656E7A6F72752E2E2E004175746F6C9B
:104080006F6164696E672066696C616D656E74202E
:10409000617661696C61626C65206F6E6C79207706
:1040A00068656E2066696C616D656E742073656EFF
:1040B000736F72206973207475726E6564206F6E01
:1040C0002E2E2E0043485942413A2046696C616DBC
:1040D000656E742073656E7A6F72206E65726561AD
:1040E00067756A652C207A6B6F6E74726F6C756A77
:1040F0007465207A61706F6A656E692E0045525250
:104100004F523A2046696C616D656E742073656E1E
:10411000736F72206973206E6F7420726573706F95
:104120006E64696E672C20706C65617365206368CE
:1041300065636B20636F6E6E656374696F6E2E00CE
:104140005A6B616C6962726F7661740043616C696D
:104150006272617465004E656A6472697665207A80
:1041600061766564746520504C412066696C616DB0
:10417000656E742070726F73696D2E00506C65618E
:104180007365206C6F616420504C412066696C61DE
:104190006D656E742066697273742E004A652050D6
:1041A0004C412066696C616D656E74207A6176653C
:1041B00064656E3F00497320504C412066696C6114
:1041C0006D656E74206C6F616465643F0050726F42
:1041D00073696D207A61766564746520504C412066
:1041E00066696C616D656E74206120706F20746506
:1041F000206F626E6F7674652057697A61726461B0
:1042000020737469736B6E7574696D207265736564
:104210007420746C616369746B612E00506C65610D
:104220007365206C6F616420504C412066696C613D
:104230006D656E7420616E64207468656E207265B1
:1042400073756D652057697A617264206279207296
:1042500065626F6F74696E6720746865207072693B
:104260006E7465722E0050726F73696D206E616896
:104270006C65646E65746520646F206D616E756138
:104280006C752061206F7072617674652070726F3A
:10429000626C656D2E20506F207465206F626E6FAA
:1042A0007674652057697A61726461207265626F05
:1042B0006F746F76616E696D207469736B61726E75
:1042C000792E00506C6561736520636865636B20AF
:1042D0006F75722068616E64626F6F6B20616E64CF
:1042E00020666978207468652070726F626C656DF5
:1042F0002E205468656E20726573756D6520746834
:10430000652057697A617264206279207265626FF4
:104310006F74696E6720746865207072696E746569
:10432000722E00567365206A6520686F746F766F11
:104330002E00416C6C20697320646F6E652E2048DE
:1043400061707079207072696E74696E67210057B0
:10435000697A61726461206D757A657465206B6439
:10436000796B6F6C6976207A6E6F767520737075D5
:1043700073746974207A206D656E752043616C6971
:1043800062726174696F6E202D3E2057697A617286
:104390006400596F752063616E20616C7761797379
:1043A00020726573756D65207468652057697A6140
:1043B00072642066726F6D2043616C696272617411
:1043C000696F6E202D3E2057697A6172642E00500D
:1043D000726F73696D206F636973746574652068AB
:1043E000656174626564206120737469736B6E65C6
:1043F000746520746C616369746B6F2E00506C651A
:1044000061736520636C65616E20686561746265C7
:104410006420616E64207468656E207072657373C9
:1044200020746865206B6E6F622E0043686365744C
:1044300065206F70616B6F76617420706F736C654F
:10444000646E69206B726F6B206120706F7A6D658E
:104450006E697420767A64616C656E6F7374206D1A
:10446000657A6920747279736B6F75206120686555
:1044700061746265643F00446F20796F75207761D5
:104480006E7420746F20726570656174206C617346
:1044900074207374657020746F20726561646A752E
:1044A00073742064697374616E63652062657477E8
:1044B00065656E206E6F7A7A6C6520616E64206827
:1044C0006561746265643F005A61636E752074694A
:1044D000736B6E6F7574206C696E6B7520612056FE
:1044E000792062756465746520706F737475706E81
:1044F0006520736E697A6F76617420747279736B5C
:1045000075206F746163656E696D20746C61636999
:10451000746B6120646F6B7564206E65646F73618A
:10452000686E657465206F7074696D616C6E69206A
:104530007679736B792E2050726F686C65646E6546
:104540007465207369206F6272617A6B79207620BE
:104550006E6173692070726972756363652076207D
:104560006B617069746F6C65204B616C696272611C
:10457000636500492077696C6C20737461727420E4
:10458000746F207072696E74206C696E6520616E44
:104590006420796F752077696C6C2067726164752F
:1045A000616C6C79206C6F77657220746865206E21
:1045B0006F7A7A6C6520627920726F746174696EAB
:1045C0006720746865206B6E6F622C20756E74694D
:1045D0006C20796F75207265616368206F707469F3
:1045E0006D616C206865696768742E204368656337
:1045F0006B207468652070696374757265732069D7
:104600006E206F75722068616E64626F6F6B2069D7
:104610006E20636861707465722043616C696272B8
:104620006174696F6E2E004E796E69207A6B616CD1
:10463000696272756A6920767A64616C656E6F73FF
:1046400074206D657A69206B6F6E63656D2074727E
:1046500079736B79206120706F76726368656D2065
:1046600068656174626564752E004E6F772049201D
:1046700077696C6C2063616C696272617465206437
:10468000697374616E6365206265747765656E2019
:10469000746970206F6620746865206E6F7A7A6C1A
:1046A0006520616E6420686561746265642073755D
:1046B00072666163652E004A6520746F20504C411C
:1046C0002066696C616D656E743F00497320697482
:1046D00020504C412066696C616D656E743F005AD4
:1046E00061766164656E692066696C616D656E7482
:1046F00075004C6F6164696E672066696C616D65F9
:104700006E740050726F73696D20766C6F7A746589
:1047100020504C412066696C616D656E7420646F39
:10472000206578747275646572752C20706F2074C2
:104730006520737469736B6E65746520746C616356
:1047400069746B6F2070726F207A61766564656E34
:10475000692066696C616D656E74752E00506C65BC
:1047600061736520696E7365727420504C412066D8
:10477000696C616D656E7420746F20746865206566
:10478000787472756465722C207468656E2070721E
:10479000657373206B6E6F6220746F206C6F616441
:1047A0002069742E00507265646568726976616D67
:1047B00020747279736B752E2050726F73696D203F
:1047C00063656B656A74652E005072656865617417
:1047D000696E67206E6F7A7A6C652E20506C656109
:1047E000736520776169742E004E796E692070724E
:1047F0006564656872656A6920747279736B752087
:1048000070726F20504C412E004E6F7720492077F8
:10481000696C6C2070726568656174206E6F7A7A5D
:104820006C6520666F7220504C412E004A652066F0
:10483000696C616D656E74207A61766564656E3F42
:104840000049732066696C616D656E74206C6F61E0
:104850006465643F00556D6973746574652070729A
:104860006F73696D207469736B6F767920706C61FA
:1048700074206E61206865617462656400506C65C7
:1048800061736520706C61636520737465656C206D
:104890007368656574206F6E206865617462656415
:1048A0002E004A65207469736B6F767920706C6195
:1048B00074206E6120686561746265643F004973AD
:1048C00020737465656C207368656574206F6E2055
:1048D000686561746265643F004E796E692070722C
:1048E0006F76656475207A206B616C6962726163B2
:1048F000692E00492077696C6C2072756E207A20D1
:1049000063616C6962726174696F6E206E6F772E7D
:10491000004E796E692070726F76656475207879C3
:104920007A206B616C6962726163692E205A6162E0
:1049300065726520746F20707269626C697A6E6549
:10494000203132206D696E2E00492077696C6C2011
:1049500072756E2078797A2063616C696272617415
:10496000696F6E206E6F772E2049742077696C6CAA
:104970002074616B6520617070726F782E20313207
:10498000206D696E732E004E656A647269762070C0
:104990006F6D6F63692073656C66746573747520E1
:1049A0007A6B6F6E746F6C756A69206E656A63618D
:1049B0007374656A736920636879627920767A6EA8
:1049C000696B616A696369207072692073657374C9
:1049D0006176656E69207469736B61726E792E0001
:1049E00046697273742C20492077696C6C2072754B
:1049F0006E207468652073656C66746573742074CA
:104A00006F20636865636B206D6F737420636F6DD7
:104A10006D6F6E20617373656D626C792070726F5B
:104A2000626C656D732E00446F6272792064656EEE
:104A30002C206A73656D2076617365207469736BD1
:104A400061726E61204F726967696E616C2050728D
:104A50007573612069332E20436863657465206136
:104A600062796368205661732070726F7665646C3A
:104A700061206B616C69627261636E696D20707236
:104A80006F636573656D3F0048692C204920616D37
:104A900020796F7572204F726967696E616C205062
:104AA00072757361206933207072696E7465722E3D
:104AB00020576F756C6420796F75206C696B652069
:104AC0006D6520746F20677569646520796F752046
:104AD0007468726F75676820746865207365747593
:104AE000702070726F636573733F00DF3EF33EE8C2
:104AF0003E053FFA3E173F0C3F5F3F1E3FE73FA298
:104B00003F7B402C40FD40C440473830004D343599
:104B1000205A004C414041473736007C415641B550
:104B2000419C411C42CD41C34266423243234392E1
:104B3000434F4353746174653A2000FD43CF43777C
:104B4000442B447345C8446A462746CB46B746F2D1
:104B500046DF465D470347C947A5470948E947413E
:104B6000482C487D485548BE48A248F348D9484992
:104B7000491149E0498749884A274A4E6168726964
:104B800076616E692050494E44410050494E44417F
:104B90002048656174696E67005465706C2E206BE7
:104BA000616C2E2020202020202020202000546511
:104BB0006D702E2063616C2E20202020202020206C
:104BC0002020004B616C696272616365204F4B006D
:104BD00043616C6962726174696F6E20646F6E65A7
:104BE000004B616C696272756A69205A0043616C9E
:104BF0006962726174696E67205A00426564204F71
:104C00004B2E0042656420646F6E65005A616872C5
:104C10006976616E6920626564004265642048655A
:104C20006174696E67005A6168726976616E6920A5
:104C30004F4B2E0048656174696E6720646F6E6526
:104C40002E005A6168726976616E69004865617408
:104C5000696E67005072696E74657220646973636F
:104C60006F6E6E6563746564003A20008B4B7B4BFE
:104C7000AE4B994BD04BC34B20202020202020202E
:104C8000202020202020202020202000203A20004A
:104C9000ED4BE14B20202020202020202020202030
:104CA000202020202020202000034CFB4B1A4C0CFD
:104CB0004C344C264C4C4C424C20202020202020B0
:104CC000202020202020002573002020002D2D3AB8
:104CD0002D2D002000200020004C00202000204628
:104CE000002D2D2D003E555342005344002D2D0024
:104CF000252020202020002020002020000120004E
:104D00002020202D2D2D200020205A0020200001C1
:104D10002000544C4368796261202D20446F736CED
:104D20006F206B2070726570697375207374617485
:104D300069636B652070616D6574692100457272ED
:104D40006F72202D20737461746963206D656D6FBF
:104D5000727920686173206265656E206F76657276
:104D60007772697474656E004B6172746120767934
:104D70006A6D75746100436172642072656D6F764F
:104D80006564004B6172746120766C6F7A656E6148
:104D9000004361726420696E736572746564003DDE
:104DA0004D144D764D684D914D834D5052555341A4
:104DB000334446570000002100240027002A002D1C
:104DC000003000330001010000040107010A010066
:104DD0000020002300260029002C002F00320000B4
:104DE00001000003010601090100000A0B02090C81
:104DF0000D0E080703040100000000000000000081
:104E000000000000000000000000000000000000A2
:104E1000000000000012111000000000000000005F
:104E20000000000000000000000000000000000082
:104E3000000000000000000000000000000000531F
:104E40007465707261746520746F6F20686967683B
:104E50003A20003F4E24F4D43050C38E20C2A240EA
:104E600017828B7011127A910D816CD90AA861E1B9
:104E700008C7586607615143061E4B5D05C145A72B
:104E8000041A411104093D9803713931034036DB9E
:104E90000265339102D4305402802E1D02632CEE41
:104EA00001752AC501B028A001102781018F256452
:104EB000012B244B01E0223401AC211F018D200D78
:104EC00001801FFC00841EED00971DDF00B81CD27E
:104ED00000E61BC600201BBC00641AB200B219A871
:104EE000000A19A0006A189900D117910040178B89
:104EF00000B516840031167E00B31579003A15739B
:104F000000C7146F0058146A00EE1366008813631C
:104F10000025135E00C7125B006C12570015125477
:104F200000C111510070114F0021114B00D61049E2
:104F3000008D1047004610440002104200C00F4090
:104F400000800F3E00420F3C00060F3B00CB0E38A6
:104F500000930E37005C0E3500270E3400F30D323F
:104F600000C10D3100900D3000600D2E00320D2D6E
:104F700000050D2C00D90C2B00AE0C2900850C2946
:104F8000005C0C2700350C27000E0C2600E80B24D3
:104F900000C40B2400A00B23007D0B23005A0B211F
:104FA00000390B2100180B2000F80A1F00D90A1E37
:104FB00000BB0A1E009D0A1D00800A1D00630A1C1A
:104FC00000470A1B002C0A1B00110A1A00F7091AD5
:104FD00000DD091900C4091900AB0919009209176D
:104FE000007B091800630917004C091600360916E2
:104FF00000200916000A091500F5081500E008143C
:1050000000CC081400B8081400A408140090081379
:10501000007D0812006B08130058081200460812A1
:1050200000340811002308110012081100010811B2
:1050300000F0071000E0071000D0071000C00710B4
:1050400000B0070F00A107100091070E0083070FA3
:105050000074070F0065070E0057070E0049070E82
:10506000003B070D002E070E0020070D0013070D53
:105070000006070D00F9060C00ED060D00E0060C19
:1050800000D4060C00C8060C00BC060C00B0060CD0
:1050900000A4060B0099060C008D060B0082060B7F
:1050A0000077060B006C060B0061060A0057060B22
:1050B000004C060A0042060A0038060A002E060ABC
:1050C0000024060A001A060A001006090007060A4C
:1050D00000FD050900F4050900EB050900E20509DA
:1050E00000D9050900D0050900C7050900BE05095A
:1050F00000B5050800AD050800A50509009C0508D8
:1051000000940508008C050800840508007C05084B
:1051100000740508006C050700650508005D0507BB
:1051200000560508004E0507004705070040050822
:105130000038050700310507002A05070023050789
:10514000001C050600160507000F050700080506E8
:105150000002050700FB040600F5040700EE040644
:1051600000E8040600E2040700DB040600D504069C
:1051700000CF040600C9040600C3040600BD0406EF
:1051800000B7040600B1040500AC040600A604063E
:1051900000A00405009B0406009504050090040689
:1051A000008A04050085040500800406007A0405D1
:1051B0000075040500700405006B04050066040515
:1051C00000610405005C0405005704050052040555
:1051D000004D04050048040500430405003E040496
:1051E000003A04050035040500300404002C0405D1
:1051F0000027040400230405001E0404001A04040C
:105200000016040500110404000D0404000904053F
:10521000000404040000040400FC030400F8030478
:1052200000F4030400F0030400EC030400E80304AA
:1052300000E4030400E0030400DC030400D80304DA
:1052400000D4030400D0030400CC030400C803030B
:1052500000C503030024F404D9201BC40C5C0E9881
:1052600004C4095F0265077101F405F900FB04B38A
:105270000048048700C10369005803550003034533
:1052800000BE023A008402310053022A002902259E
:105290000004022000E4011C00C8011900AF01173E
:1052A00000980114008401130071011000610110C5
:1052B0000051010E0043010D0036010B002B010BC4
:1052C0000020010B00150109000C01090003010871
:1052D00000FB000800F3000800EB000700E40006F4
:1052E00000DE000600D8000600D2000600CC000553
:1052F00000C7000500C2000500BD000400B900049D
:1053000000B5000400B1000400AD000400A90004D1
:1053100000A5000300A20003009F0004009B0003FF
:105320000098000300950002009300030090000322
:10533000008D0002008B000300880002008600023E
:105340000084000300810002007F0002007D000253
:10535000007B000200790002007700010076000265
:10536000007400020072000100710002006F000270
:10537000006D0001006C0002006A0001006900027B
:105380000067000100660001006500010064000282
:10539000006200010061000100600001005F000286
:1053A000005D0001005C0001005B0001005A00018B
:1053B000005900010058000100570001005600018B
:1053C000005500010054000100530000005300018B
:1053D000005200010051000100500001004F000187
:1053E000004E0000004E0001004D0001004C000185
:1053F000004B0000004B0001004A00010049000181
:10540000004800000048000100470001004600007D
:105410000046000100450000004500010044000175
:105420000043000000430001004200000042000170
:10543000004100000041000100400001003F000069
:10544000003F0001003E0000003E0001003D000062
:10545000003D0001003C0000003C0000003C000159
:10546000003B0000003B0001003A0000003A000150
:105470000039000000390001003800000038000049
:10548000003800010037000000370001003600003E
:105490000036000000360001003500000035000035
:1054A0000035000100340000003400000034000129
:1054B0000033000000330000003300010032000020
:1054C0000032000000320001003100000031000015
:1054D0000031000100300000003000000030000109
:1054E000002F0000002F0000002F0000002F0001FF
:1054F000002E0000002E0000002E0001002D0000F4
:10550000002D0000002D0000002D0001002C0000E7
:10551000002C0000002C0000002C0001002B0000DB
:10552000002B0000002B0000002B0001002A0000CF
:10553000002A0000002A0000002A000100290000C3
:1055400000290000002900000029000000290001B6
:1055500000280000002800000028000000280000AB
:10556000002800010027000000270000002700009D
:105570000027000000270001002600000026000090
:105580000026000000260000002600010025000083
:105590000025000000250000002500000025000077
:1055A0000025000100240000002400000024000069
:1055B000002400000024000100230000002300005C
:1055C000002300000023000000230000002300004F
:1055D0000023000100220000002200000022000041
:1055E0000022000000220000002200010021000033
:1055F0000021000000210000002100000021000027
:105600000021000000210001002000000020000017
:10561000002000000020000000200000002000000A
:105620000020000000200001001F0000001F0000FB
:10563000001F0000001F0000001F0000001F0000EE
:10564000001F0001001E0000001E0000001E0000E0
:10565000001E00000054726964656E69205B41623F
:1056600065636564615D00536F72743A20205B412D
:105670006C7068616265745D0054726964656E691E
:1056800020202020205B4361735D00536F72743AC9
:105690002020202020205B54696D655D005344204C
:1056A0006361726420205B6E6F726D616C5D00538C
:1056B000442063617264205B466C73684169725D6B
:1056C000005679626572206A617A796B6100536570
:1056D0006C656374206C616E67756167650052501C
:1056E0006920706F7274202020205B7A61705D00E9
:1056F00052506920706F727420202020205B6F6EE2
:105700005D0052506920706F7274202020205B76FB
:1057100079705D0052506920706F727420202020D3
:105720005B6F66665D005465706C2E206B616C2E3D
:1057300020205B7A61705D0054656D702E2063617E
:105740006C2E2020205B6F6E5D005465706C2E20E7
:105750006B616C2E20205B7679705D0054656D70F6
:105760002E2063616C2E20205B6F66665D004B6FA0
:105770006E74722E2076656E742E5B7679705D0085
:1057800046616E7320636865636B20205B6F66669D
:105790005D004B6F6E74722E2076656E742E5B7A90
:1057A00061705D0046616E7320636865636B2020E5
:1057B000205B6F6E5D0054726964656E6920202005
:1057C0005B5A61646E655D00536F72743A202020ED
:1057D0002020205B4E6F6E655D00462E2061757443
:1057E0006F7A61762E205B7679705D00462E20619F
:1057F00075746F6C6F6164205B6F66665D00462E2A
:10580000206175746F7A61762E205B7A61705D001D
:10581000462E206175746F6C6F616420205B6F6E23
:105820005D00462E206175746F7A61762E205B4E86
:105830002F415D00462E206175746F6C6F6164208E
:105840005B4E2F415D0046696C2E2073656E7A6F4A
:1058500072205B4E2F415D0046696C2E2073656E91
:10586000736F72205B4E2F415D005679706E6F75BD
:1058700074206D6F746F72790044697361626C6536
:1058800020737465707065727300506F73756E6FFE
:105890007574206F7375004D6F766520617869733C
:1058A000005465706C6F74610054656D7065726151
:1058B00074757265004739390044697361626C65BB
:1058C000206661726D206D6F64653F0067565556A6
:1058D0008B5679569D56AF56CE56C156F056DE566B
:1058E000145702574661726D206E756D62657200C5
:1058F000385726575C574A5744697361626C652074
:105900006661726D206D6F64650080576E57A45795
:105910009257C857B657EC57DA571058FE573458B5
:105920002258585846584D38340079586A58975874
:105930008A58A958A158526573656E643A20004B85
:10594000494C4C45442E20005072696E746572209B
:1059500068616C7465642E206B696C6C2829206307
:10596000616C6C656421004D32323120496E766184
:105970006C696420657874727564657220004D32BC
:10598000313820496E76616C69642065787472756F
:1059900064657220004D31303920496E76616C6942
:1059A0006420657874727564657220004D313035FD
:1059B00020496E76616C69642065787472756465DF
:1059C0007220004D31303420496E76616C6964205C
:1059D0006578747275646572200036594D373031C0
:1059E000003F5948594B494C4C3A200067597E5961
:1059F0009559AC59C3595A206C6976652061646A1F
:105A0000757374206F7574206F662072616E6765A0
:105A10002E2053657474696E6720746F20302E20B9
:105A2000436C69636B20746F20636F6E74696E756D
:105A3000652E005A206C6976652061646A757374FE
:105A4000206F7574206F662072616E67652E20531B
:105A5000657474696E6720746F20300020423A00CC
:105A600020503A00543A0057726974696E67207486
:105A70006F2066696C653A200046696C6520736525
:105A80006C6563746564002053697A653A2000464A
:105A9000696C65206F70656E65643A20006F706593
:105AA0006E206661696C65642C2046696C653A20DD
:105AB000004E65004E6F00416E6F005965730067C0
:105AC0005A2E002E00795A875A8F5A2E009D5A4E10
:105AD0006F772066726573682066696C653A20008E
