:100000000C9424330C9455330C9455330C94553381
:100010000C9455330C94627A0C9455330C945533EC
:100020000C94667D0C9455330C9455330C94C98A0A
:100030000C9455330D94D93A0C9455330C94553394
:100040000C9455330C9499C60C9455330C94553339
:100050000C9455330C9455330D94501C0D948A3CDC
:100060000C9455330D9461620C9455330C945533B4
:100070000C9455330C9455330C9455330C945533E0
:100080000C9455330C9455330C9455330C945533D0
:100090000D941D620C9455330C9455330C945533C8
:1000A0000C9455330C9455330C9455330C945533B0
:1000B0000C9455330C9455330C9455330C945533A0
:1000C0000C9455330C9455330C9455330C94553390
:1000D0000C9455330C9455330C9455330C94553380
:1000E0000C94553336013401AC01B6018C01C601C4
:1000F0003C01C401B4017801E601E4013E01A8011C
:10010000E801E801E801A201A201A201CE01AE01CD
:10011000A2012A014801D201EA01D001DC019201C9
:10012000BA019401F001F201BE013001CA014C0193
:1001300092019801F4013A017E018401D401580131
:10014000C801860180019A0168012E01F60156015D
:10015000B8018201860166017001C0014A01AA014D
:10016000620164016C016A018A0190015C01E20193
:1001700052019C0140015E017A019E014E01420143
:10018000DA01084AD73B3BCE016E84BCBFFDC12FCC
:100190003D6C74319ABD56833DDA3D00C77F11BE78
:1001A000D9E4BB4C3E916BAAAABE000000803F057B
:1001B000A84CCDB2D44EB93836A9020C50B99186AC
:1001C00088083CA6AAAA2ABE000000803F07634216
:1001D00036B79BD8A71A39685618AEBAAB558C1DDE
:1001E0003CB7CC5763BD6DEDFD753EF6177231BF60
:1001F000000000803F08000000BE922449123EAB80
:10020000AAAA2ABECDCCCC4C3E00000080BEABAA30
:10021000AAAA3E00000000BF000000803F000000CE
:100220000000084178D3BB4387D1133D190E3CC36E
:10023000BD4282AD2B3E68EC8276BED98FE1A93EED
:100240004C80EFFFBE01C4FF7F3F000000000000B4
:100250000D94797F0D949C2D0D949B010D94DD3BA5
:100260000D94E6390D943A2E0D94992B0D94822B12
:100270000D9481390D94FC390D941C2C0D947A2D1C
:100280000D9480890D94E5890D9404940D941FB705
:100290000D94C7390D949F630D94EE390D94C88960
:1002A0000D94188D0D9439890D941C280D94F13BF3
:1002B0000D94AF3B0D9476320D941A890D94878975
:1002C0000D94F3940D94A8630D94B0630D94143CB5
:1002D0000D94D33B0D94DE630D94C5630D942628D5
:1002E0000D941E3C0D94B1980D94F52A0D94273A67
:1002F0000D940E2D0D9493890D94F46E0D949B3BEB
:100300000D94C33B0D940A3C0D94A03B0D94323CDC
:100310000D946D630D9409640D94D22B0D941528E2
:100320000D9436640D94013A0D94D2390D946707FB
:100330000D94F4390D94CB3B0D9457890D94B089ED
:100340000D94EF6E0D94B02D0D94C9270D948A2A4B
:100350000D94822D0D94A3630D94AB2B0D94C02DA1
:100360000D945C800D947D8B0D94FE2C0D94C12B0F
:100370000D94003C0D94CE390D94355F0D94E03909
:100380000D94283C0D9455990D94D42C0D94002C6B
:100390000D94B93B0D94EA390D9410290D94922DCA
:1003A0000D94BD390D94CA390D94A53B0D9440B7F9
:1003B0000D9436430D94118A0D94C3390D940E2873
:1003C0000D945B030D9432890D94492D0D942B2DC2
:1003D0000D948A2D0D94B9390D94972A0D94A898EF
:1003E0000D94D8390D94DC390D94F8390D94E73B10
:1003F0000D94345F4E414E494E495459494E46CDB5
:10040000CCCC3D0AD7233C17B7D13877CC2B3295CB
:1004100095E6241FB14F0A000020410000C84200A9
:10042000401C4620BCBE4CCA1B0E5AAEC59D740073
:10043000407A10F35A00A0724E18090010A5D4E8B3
:100440000000E87648170000E40B54020000CA9A46
:100450003B000000E1F50500008096980000004098
:10046000420F000000A086010000001027000000DD
:1004700000E803000000006400000000000A000023
:100480000000000100000000002C76D888DC674FD7
:100490000823DFC1DFAE59E1B1B796E5E3E453C607
:1004A0003AE651997696E8E6C28426EB898C9B62FF
:1004B000ED407C6FFCEFBC9C9F40F2BAA56FA5F4A9
:1004C00090055A2AF75C936B6CF9676DC11BFCE0D1
:1004D000E40D47FEF520E6B500D0ED902E03009424
:1004E0003577050080841E080000204E0A000000B9
:1004F000C80C333333330F986E12831141EF8D21C3
:1005000014893BE65516CFFEE6DB18D1844B381B29
:10051000F77C1D901DA4BBE424203284725E2281EE
:1005200000C9F124ECA1E53D27446574656B6F7645
:10053000616E206E6172617A2E0043726173682071
:1005400064657465637465642E0053442070726939
:100550006E74696E672062797465200050726F73E3
:10056000696D20616B7475616C697A756A74652E4A
:1005700000506C6561736520757067726164652EEB
:10058000005679736C61206E6F7661207665727AA1
:1005900065206669726D776172653A004E657720F5
:1005A0006669726D776172652076657273696F6EC8
:1005B00020617661696C61626C653A0061207374D8
:1005C00069736B6E65746520746C616369746B6FBD
:1005D00000616E6420707265737320746865206BAF
:1005E0006E6F6200566C6F7A74652066696C616D1F
:1005F000656E7400496E736572742066696C616D16
:10060000656E74004261727661206E656E6920636A
:100610006973746100436F6C6F72206E6F74206336
:100620006F72726563740046696C616D656E7420EB
:100630006E657A61766564656E0046696C616D65AC
:100640006E74206E6F74206C6F61646564005679FF
:100650006D656E61206F6B3F004368616E67656416
:1006600020636F72726563746C793F0043697374C1
:10067000656E69206261727679004C6F6164696EA3
:100680006720636F6C6F72005A6D656E61207573C1
:100690007065736E6121004368616E6765207375D4
:1006A00063636573732100457874727564657200C5
:1006B00056796265727465206578747275646572C6
:1006C0003A0043686F6F736520657874727564656E
:1006D000723A004163746976652045787472756476
:1006E00065723A2000496E76616C696420657874A1
:1006F00072756465720050726F73696D206F7465F6
:1007000076726574652069646C65722061206D6124
:100710006E75616C6E65206F64737472616E746562
:100720002066696C616D656E742E00506C65617336
:1007300065206F70656E2069646C657220616E64FF
:100740002072656D6F76652066696C616D656E748B
:10075000206D616E75616C6C792E0042796C6F2032
:10076000767973756E7574692066696C616D656EF6
:1007700074752075737065736E653F0057617320E3
:1007800066696C616D656E7420756E6C6F61642056
:100790007375636365737366756C3F0050726F7336
:1007A000696D2076796A6D65746520757279636804
:1007B0006C656E652066696C616D656E7400506C69
:1007C000656173652070756C6C206F757420666947
:1007D0006C616D656E7420696D6D656469617465C9
:1007E0006C79005679736F7576616D2066696C61FE
:1007F0006D656E7400556E6C6F6164696E6720661E
:10080000696C616D656E740050726F206E61687204
:1008100061746920747279736B79206120706F6BD9
:100820007261636F76616E6920737469736B6E6554
:10083000746520746C616369746B6F2E005072650F
:100840007373206B6E6F6220746F207072656865C1
:100850006174206E6F7A7A6C6520616E6420636FBC
:100860006E74696E75652E0050726F20767973759F
:100870006E7574692066696C616D656E7475207340
:100880007469736B6E6574652070726F73696D2027
:10089000746C616369746B6F00506C656173652083
:1008A000707265737320746865206B6E6F6220745C
:1008B0006F20756E6C6F61642066696C616D656E2A
:1008C00074005A204F666673657400556E6B6E6FC8
:1008D000776E20636F6D6D616E643A2022004D3239
:1008E000303020496E76616C696420657874727569
:1008F00064657220007A5F6D61783A20007A5F6DDE
:10090000696E3A2000795F6D61783A2000795F6DF9
:10091000696E3A2000785F6D61783A20006F7065EB
:100920006E0054524947474552454400785F6D690F
:100930006E3A20005265706F7274696E6720656E42
:100940006473746F70207374617475730020436FE7
:10095000756E7420583A20004649524D5741524511
:100960005F4E414D453A4D61726C696E2056312E95
:10097000302E323B20537072696E7465722F67722D
:10098000626C206D617368757020666F7220676598
:100990006E36204649524D574152455F55524C3AAA
:1009A00068747470733A2F2F6769746875622E6368
:1009B0006F6D2F707275736133642F507275736130
:1009C0002D69332D506C75732F2050524F544F4367
:1009D0004F4C5F56455253494F4E3A312E30204DC1
:1009E000414348494E455F545950453A50727573DA
:1009F00061206933204D4B332045585452554445AE
:100A0000525F434F554E543A3120555549443A3080
:100A1000303030303030302D303030302D303030DC
:100A2000302D303030302D303030303030303030CC
:100A30003030300A004F666600456E642066696C8F
:100A400065206C69737400426567696E2066696C25
:100A500065206C697374004E6F206D6F76652E0093
:100A60004F626E6F76656E69207469736B750052A4
:100A70006573756D696E67207072696E7400576179
:100A8000697420666F7220757365722E2E2E004B6E
:100A9000616C696272616365205A2073656C68617C
:100AA0006C612E2053656E736F72207365706E7566
:100AB0006C207072696C6973207679736F6B6F2E1E
:100AC0002043656B616D206E612072657365742EC5
:100AD00000426564206C6576656C696E67206661AE
:100AE000696C65642E2053656E736F722074726931
:100AF00067676572656420746F6F20686967682E28
:100B00002057616974696E6720666F722072657321
:100B100065742E004B616C696272616365205A20B6
:100B200073656C68616C612E2053656E736F722003
:100B30006A65206F64706F6A656E79206E65626F9A
:100B400020707265727573656E79206B6162656C79
:100B50002E2043656B616D206E6120726573657434
:100B60002E00426564206C6576656C696E67206650
:100B700061696C65642E2053656E736F72206469C1
:100B800073636F6E6E6563746564206F722063615A
:100B9000626C652062726F6B656E2E20576169749E
:100BA000696E6720666F722072657365742E004BE4
:100BB000616C696272616365205A2073656C68615B
:100BC0006C612E2053656E736F72206E6573657055
:100BD0006E756C2E205A6E6563697374656E612044
:100BE000747279736B613F2043656B616D206E6138
:100BF0002072657365742E00426564206C657665AD
:100C00006C696E67206661696C65642E2053656E41
:100C1000736F72206469646E7420747269676765AB
:100C2000722E20446562726973206F6E206E6F7A37
:100C30007A6C653F2057616974696E6720666F72D0
:100C40002072657365742E005465706C6F746E69E4
:100C5000206B616C69627261636520646F6B6F6E9B
:100C600063656E612E20506F6B726163756A746587
:100C700020737469736B656D20746C616369746B48
:100C8000612E0054656D70657261747572652063C4
:100C9000616C6962726174696F6E20697320666944
:100CA0006E69736865642E20436C69636B20746F92
:100CB00020636F6E74696E75652E004F6473747275
:100CC000616E7465207469736B6F767920706C61E6
:100CD00074207A20686561746265642070726F7335
:100CE000696D2E00506C656173652072656D6F765D
:100CF0006520737465656C20736865657420667221
:100D00006F6D20686561746265642E005374616262
:100D10006C6520616D6269656E742074656D7065C7
:100D20007261747572652032312D323643206973D9
:100D3000206E65656465642061207269676964205E
:100D40007374616E64206973207265717569726570
:100D5000642E00536C6565702E2E2E004352415355
:100D6000485F5245434F564552004732382058207D
:100D700059003A0529050A002F004A050A002E00ED
:100D800044656C6574696F6E206661696C65642C7E
:100D90002046696C653A200046696C652064656C84
:100DA000657465643A002E0020573A0020453A00E9
:100DB000543A0071055C05009C05810550494420AA
:100DC0004175746F74756E652066696E69736865C8
:100DD00064212050757420746865206C61737420E0
:100DE0004B702C204B6920616E64204B6420636F34
:100DF0006E7374616E74732066726F6D2061626FC2
:100E0000766520696E746F20436F6E6669677572D0
:100E10006174696F6E2E6800504944204175746F8B
:100E200074756E65206661696C6564212074696DF6
:100E3000656F75740020403A00543A00423A005001
:100E40004944204175746F74756E65206661696CE4
:100E50006564212054656D706572617475726520DA
:100E6000746F6F206869676800204B643A20002027
:100E70004B693A2000204B703A200020436C61738C
:100E80007369632050494420002054753A200020A3
:100E90004B753A2000206D61783A2000206D696E14
:100EA0003A200020643A200020626961733A2000F1
:100EB00053657474696E67732053746F7265640050
:100EC00046696C616D656E742073657474696E67D4
:100ED000733A2044697361626C6564002020204D80
:100EE00032303020440046696C616D656E74207349
:100EF000657474696E67733A002020204D32303972
:100F00002053004175746F2D526574726163743A99
:100F100020533D3020746F2064697361626C652CCE
:100F2000203120746F20696E746572707265742050
:100F3000657874727564652D6F6E6C79206D6F764F
:100F40006573206173207265747261637473206FBE
:100F500072207265636F7665726965730020460062
:100F60002020204D3230382053005265636F766563
:100F7000723A20533D4578747261206C656E6774D7
:100F80006820286D6D2920463A53706565642028D5
:100F90006D6D2F6D2900205A002046002020204D25
:100FA000323037205300526574726163743A2053B3
:100FB0003D4C656E67746820286D6D2920463A5354
:100FC0007065656420286D6D2F6D29205A3A205A6E
:100FD0004C69667420286D6D29002044002049006A
:100FE0002020204D33303420500050494420686583
:100FF00061746265642073657474696E67733A0026
:101000002044002049002020204D33303120500062
:101010005049442073657474696E67733A00205AAE
:101020000020590020204D323036205800486F6D86
:1010300065206F666673657420286D6D293A0020FF
:101040004500205A0020590020580020420020541A
:101050000020204D323035205300416476616E63AC
:101060006564207661726961626C65733A20533DF4
:101070004D696E20666565647261746520286D6DCA
:101080002F73292C20543D4D696E20747261766552
:101090006C20666565647261746520286D6D2F73C0
:1010A000292C20423D6D696E696D756D20736567F1
:1010B0006D656E742074696D6520286D73292C2010
:1010C000583D6D6178696D756D205859206A65725B
:1010D0006B20286D6D2F73292C20205A3D6D61786F
:1010E000696D756D205A206A65726B20286D6D2FB1
:1010F00073292C2020453D6D6178696D756D204503
:10110000206A65726B20286D6D2F732900205400B2
:1011100020204D323034205300416363656C65728A
:101120006174696F6E3A20533D616363656C6572EB
:101130006174696F6E2C20543D72657472616374C2
:1011400020616363656C65726174696F6E00204530
:1011500000205A0020590020204D32303120580004
:101160004D6178696D756D20416363656C65726171
:1011700074696F6E20286D6D2F7332293A002045F7
:1011800000205A0020590020204D323033205800D2
:101190004D6178696D756D20666565647261746511
:1011A0007320286D6D2F73293A00204500205A00C6
:1011B00020590020204D3932205800537465707337
:1011C0002070657220756E69743A00D105BC05F413
:1011D00005E405150604063A06270659064E067A62
:1011E000066C0697068806416476616E6365204B3F
:1011F0003D004B206F7574206F6620616C6C6F77BB
:1012000065642072616E67652100746D63323133ED
:10121000305F7072696E745F63757272656E74733D
:1012200028290A094809520A580925640925640A27
:10123000590925640925640A5A0925640925640A9F
:10124000450925640925640A00A706C206B00622DE
:1012500028322900D306E5065400496E76616C6990
:1012600064205420636F64652E00556E6B6E6F773B
:101270006E204D20636F64653A202573200A004D6F
:1012800032323020532569002B07F6067C075B07B6
:10129000BE079C07F507E3073D080808990868089A
:1012A000203A200000C2084C414E472053454C20B4
:1012B000464F52434544002228312900CB08DE081E
:1012C000F508FD0805090D0915091D0922092C0954
:1012D000340920453A00205A3A0020593A004D0975
:1012E00020453A00205A3A0020593A00583A00580E
:1012F000094D3131332053002E002000350A2042A1
:101300003A0020453A00543A0020413A0020503A31
:10131000002042403A0020403A00202F003A0020AE
:101320005400202F0020423A00202F006F6B2054E1
:101330003A002569206D696E2C202569207365634C
:1013400000390A470A570A6F0A600A7E0A496E7610
:10135000616C6964204D20636F64653A20257320B9
:101360000A00556E6B6E6F776E204720636F646561
:101370003A202573200A004D657368206265642059
:101380006C6576656C696E67206E6F74206163743E
:101390006976652E000A002020000A4D656173758C
:1013A00072656420706F696E74733A000A5A207314
:1013B0006561726368206865696768743A20002C0B
:1013C000004E756D20582C593A2000206D696372CB
:1013D0006F6E730045786365737369766520626527
:1013E00064206C6576656C696E6720636F727265E8
:1013F0006374696F6E3A2000D10A8F0A620B140B76
:10140000F80BAF0B473238205730003A2000830CDE
:10141000480C54656D706572617475726520636106
:101420006C6962726174696F6E20646F6E652E20E4
:10143000436F6E74696E7565207769746820707289
:10144000657373696E6720746865206B6E6F622EBA
:101450000000205A20736869667420286D6D293A4F
:101460000050494E44412074656D70657261747519
:1014700072653A2000002F3600537465703A2000E0
:1014800000205A20736869667420286D6D293A001F
:1014900050494E44412074656D7065726174757277
:1014A000653A20002F36002F362028736B69707044
:1014B00065642900537465703A2000005A45524F04
:1014C0003A20000073746172742074656D706572E7
:1014D00061747572653A200050494E444120707223
:1014E0006F62652063616C6962726174696F6E20FE
:1014F000737461727400E40CBB0C0C0D473238201D
:101500005730000A00205A3A200020593A20002083
:10151000583A2000530D526573656E643A20004BB3
:10152000494C4C45442E20005072696E74657220FF
:1015300068616C7465642E206B696C6C282920636B
:10154000616C6C656421004D32323120496E7661E8
:101550006C696420657874727564657220004D3220
:10156000313820496E76616C6964206578747275D3
:1015700064657220004D31303920496E76616C69A6
:101580006420657874727564657220004D31303561
:1015900020496E76616C6964206578747275646543
:1015A0007220004D31303420496E76616C696420C0
:1015B000657874727564657220004F626E6F766F25
:1015C00076616E69207469736B752020202000524B
:1015D00065636F766572696E67207072696E7420DC
:1015E0002020200016154D373031001F1528154BCF
:1015F000494C4C3A200047155E1575158C15A315FE
:101600005A206C6976652061646A757374206F7501
:1016100074206F662072616E67652E205365747446
:10162000696E6720746F20302E20436C69636B20D5
:10163000746F20636F6E74696E75652E005A206C2E
:101640006976652061646A757374206F7574206FA4
:10165000662072616E67652E2053657474696E67CB
:1016600020746F20300020423A0020503A00543A53
:101670000055564C4F202D20656E640073747073B6
:1016800000494E54340029002C20002C2000776F94
:10169000726C6420636F6F7264696E617465733A13
:1016A00020280029002C20002C2000706879736904
:1016B00063616C20636F6F7264696E617465733A05
:1016C0002028007265636F7665725F6D616368697B
:1016D0006E655F73746174655F61667465725F7077
:1016E0006F7765725F70616E69632C20696E6974D3
:1016F00069616C20007265636F7665725F6D61630E
:1017000068696E655F73746174655F616674657244
:101710005F706F7765725F70616E69632C20696EB0
:10172000697469616C20004739322045004D3234BC
:10173000004D32362053256C75004D313036205324
:10174000004D38320047312046256400473120459E
:10175000322A312046343830004731205A002046A2
:10176000323030300020590047312058004D383396
:1017700000506F736974696F6E20726561642066D2
:10178000726F6D20656570726F6D3A004D32332057
:101790002573002E67636F0046656564726174652A
:1017A0003A0063757272656E745F706F7369746905
:1017B0006F6E5B455F415849535D3A0063757272C5
:1017C000656E745F706F736974696F6E5B5A5F41A9
:1017D0005849535D3A0043757272656E7420706F9C
:1017E000736974696F6E20595F415849533A0043D9
:1017F000757272656E7420706F736974696F6E2094
:10180000585F415849533A004166746572207761C8
:101810006974696E6720666F722074656D703A0036
:10182000473120452D31204634383000473120459E
:10183000352046313230004D3833004D31393020BB
:10184000532564004D313039205325640047323828
:1018500020582059004731205A3235204638303040
:10186000004D31343020532564004D313034205345
:10187000256400CF15BA1550727573612069332045
:101880004D4B33206F6B00507275736120693320AC
:101890004D4B332072656164792E00446574656B2D
:1018A0006F76616E207679706164656B2070726FFF
:1018B0007564752E4F626E6F766974207469736BF0
:1018C0003F00426C61636B6F7574206F6363757268
:1018D0007265642E205265636F766572207072693E
:1018E0006E743F0050726F206B616C69627261634D
:1018F0006920707265736E65686F207265686F6DC0
:101900006F76616E692062756465206E796E6920FC
:101910007370757374656E2073656C66746573742B
:101920002E0053656C66746573742077696C6C2047
:1019300062652072756E20746F2063616C696272DB
:101940006174652061636375726174652073656E8F
:10195000736F726C657373207265686F6D696E6703
:101960002E004E656E69207A6B616C6962726F76CB
:10197000616E6120767A64616C656E6F7374207439
:101980007279736B79206F64207469736B6F7665FD
:1019900020706F646C6F7A6B792E20506F73747542
:1019A00070756A74652070726F73696D20706F64F2
:1019B0006C65206D616E75616C752C206B61706952
:1019C000746F6C61205A6163696E616D652C206F64
:1019D00064737461766563204E6173746176656EBD
:1019E00069207072766E69207672737476792E0033
:1019F00044697374616E6365206265747765656EB2
:101A000020746970206F6620746865206E6F7A7A22
:101A10006C6520616E642074686520626564207363
:101A200075726661636520686173206E6F742062F1
:101A300065656E20736574207965742E20506C6521
:101A400061736520666F6C6C6F7720746865206DBC
:101A5000616E75616C2C20636861707465722046DC
:101A6000697273742073746570732C20736563746A
:101A7000696F6E204669727374206C61796572209B
:101A800063616C6962726174696F6E2E0054697370
:101A90006B61726E61206E6562796C61206A65733C
:101AA0007465207A6B616C6962726F76616E612E0B
:101AB00020506F73747570756A74652070726F73DF
:101AC000696D20706F646C65206D616E75616C75F9
:101AD0002C206B617069746F6C61205A6163696E50
:101AE000616D652C206F6473746176656320506F3F
:101AF00073747570206B616C6962726163652E002E
:101B00005072696E74657220686173206E6F742004
:101B10006265656E2063616C6962726174656420E0
:101B20007965742E20506C6561736520666F6C6CEE
:101B30006F7720746865206D616E75616C2C206311
:101B4000686170746572204669727374207374657D
:101B500070732C2073656374696F6E2043616C69C8
:101B600062726174696F6E20666C6F772E004E65CD
:101B7000706C61746E6520686F646E6F7479206E2E
:101B80006173746176656E692E204275646520709C
:101B90006F757A69746F20767963686F7A692050FF
:101BA00049442C20457374657073206174642E0061
:101BB0004F6C642073657474696E677320666F750B
:101BC0006E642E2044656661756C74205049442C07
:101BD00020457374657073206574632E2077696C7B
:101BE0006C206265207365742E002020506C616E3D
:101BF0006E657242756666657242797465733A20E5
:101C0000002046726565204D656D6F72793A20003F
:101C1000207C20417574686F723A2000204C6173FB
:101C20007420557064617465643A200020536F66B7
:101C30007477617265205265736574002057617412
:101C40006368646F67205265736574002042726F29
:101C5000776E206F75742052657365740020457827
:101C60007465726E616C20526573657400506F7795
:101C700065725570006572726F722077726974694F
:101C80006E6720746F2066696C6500656E6473749E
:101C90006F7073206869743A2000446F6E6520731A
:101CA0006176696E672066696C652E006F6B002037
:101CB0002D20496E76616C69642065787472756454
:101CC0006572206E756D6265722021001B5B324A61
:101CD0001B5B313B31484F726967696E616C205004
:101CE000727573612069331B5B323B3348507275E8
:101CF0007361205265736561726368004661637445
:101D00006F72792052455345540087187718C218CE
:101D10009B182219E418F0196219001B8D1AB01BC8
:101D20006E1BEA1B011C4D617220203820323031BD
:101D30003800436F6D70696C65643A2000286E6FDF
:101D40006E652C2064656661756C7420636F6E66C9
:101D500069672900101C4D61722020382032303113
:101D6000382031353A33343A3332001C1C2C1C3CB9
:101D70001C4C1C5D1C6D1C20332E312E332D524308
:101D8000312D3234330A007374617274002055703F
:101D90006C6F616420696E2070726F677265737317
:101DA00000751C5A00205A3A00590020593A005830
:101DB0000020583A008B1C4D36303000473120450A
:101DC00033204632303000473120452D3320463213
:101DD00030300043524153485F44455445435445D5
:101DE0004458590043524153485F44455445435475
:101DF0004544590043524153485F44455445435478
:101E0000454458009A1CAC1C4D323900656E717502
:101E100065696E67202200446F6E65207072696E7E
:101E200074696E672066696C650053544F50504565
:101E3000442E20005072696E7465722073746F7046
:101E40007065642064756520746F206572726F72AE
:101E5000732E2046697820746865206572726F72EF
:101E600020616E6420757365204D39393920746F97
:101E700020726573746172742E202854656D7065CC
:101E80007261747572652069732072657365742E52
:101E900020536574206974206166746572207265D0
:101EA0007374617274696E6729004E6F204C696E9D
:101EB00065204E756D62657220776974682063686D
:101EC00065636B73756D2C204C617374204C696E67
:101ED000653A20004E6F20436865636B73756D2013
:101EE00077697468206C696E65206E756D626572C5
:101EF0002C204C617374204C696E653A2000636835
:101F000065636B73756D206D69736D617463682CA7
:101F1000204C617374204C696E653A20004C696EE8
:101F200065204E756D626572206973206E6F742036
:101F30004C617374204C696E65204E756D626572DC
:101F40002B312C204C617374204C696E653A200053
:101F500022206661696C65643A2042756666657226
:101F60002066756C6C210022000C1E256920686FAC
:101F7000757273202569206D696E7574657300171D
:101F80001E54494D454F55543A002A1E341EAA1E70
:101F9000D41EFE1E1D1F4D3131300046756C6C2065
:101FA00052582042756666657200207A20390020FA
:101FB0006F662039004D6572696D207265666572C5
:101FC000656E636E69207679736B75206B616C69E1
:101FD000627261636E69686F20626F6475004D653F
:101FE00061737572696E67207265666572656E638E
:101FF0006520686569676874206F662063616C6935
:1020000062726174696F6E20706F696E7400207403
:102010006F6F206C6F6E6720657874727573696F6F
:102020006E2070726576656E7465640020636F6CF7
:102030006420657874727573696F6E20707265764E
:10204000656E74656400457872656D6520737061B6
:102050006E206F6620746865205A2076616C756505
:1020600073210000004041FFFFBF400000E442FF39
:10207000FFBF4000005743FFFFBF40000057430031
:1020800000CC420000E4420000CC4200004041008D
:1020900000CC4200004041000046430000E4420002
:1020A0000046430000574300004643AF1FAA1FDE0F
:1020B0001FB51F062833D036C23E013F15413242BC
:1020C0003B43F2443B45F24622473B48F2493B4AF8
:1020D000F05898590C5A085B0C5C086110679B6EAD
:1020E0002271077208FF095A0D000EFF19045E08DD
:1020F00020642B6D322FFF0E202C205469736B2E21
:102100002076656E743A005072696E742046414EB6
:102110003A2000547279736B2E2076656E743A0003
:102120004E6F7A7A6C652046414E3A005A63686C6D
:102130006164697400436F6F6C646F776E005465FF
:102140007A6B65207A6B6F73656E693A00536576BA
:1021500065726520736B65773A004C65686B652026
:102160007A6B6F73656E693A00536C6967687420A7
:10217000736B65773A004D6572656E65207A6B6F9B
:1021800073656E693A004D6561737572656420739D
:102190006B65773A0050726176793A0052696768E8
:1021A000743A004C6576793A004C6566743A005989
:1021B00020767A64616C656E6F7374206F64206D35
:1021C000696E3A00592064697374616E63652066B4
:1021D000726F6D206D696E3A004E617065746900B2
:1021E000566F6C7461676573005465706C6F7479B9
:1021F0000054656D70657261747572657300537417
:1022000061762072656D656E750042656C74207331
:1022100074617475730045787472756465722069B1
:102220006E666F0044657461696C792058595A2054
:102230006B616C2E0058595A2063616C2E206465C6
:102240007461696C7300446174756D3A0044617423
:10225000653A00686F77746F2E70727573613364BE
:102260002E637A00686F77746F2E707275736133A6
:10227000642E636F6D00666F72756D2E707275736C
:102280006133642E637A00666F72756D2E7072759D
:10229000736133642E636F6D0070727573613364A4
:1022A0002E637A00707275736133642E636F6D00F4
:1022B0000721FB20202113211B5B303B3048546F4A
:1022C00074616C206661696C757265731B5B313B70
:1022D0003148506F776572206661696C75726573FD
:1022E0002020252D33641B5B323B314846696C61ED
:1022F0006D2E2072756E6F7574732020252D3364DA
:102300001B5B333B314843726173682020582025A2
:102310002D336420205920252D3364001B5B303B76
:1023200030484C617374207072696E742066616904
:102330006C757265731B5B313B3148506F7765720A
:10234000206661696C757265732020252D33641BCE
:102350005B323B314846696C616D2E2072756E6F41
:102360007574732020252D33641B5B333B31484348
:102370007261736820205820252D33642020592055
:10238000252D336400546F74616C004C61737420AC
:102390007072696E74001B5B323B3148416D62693B
:1023A000656E743A2020256425631B5B333B3148FE
:1023B00050494E44413A2020202025642563001BCB
:1023C0005B303B31484E6F7A7A6C653A202020258D
:1023D0006425631B5B313B31484265643A20202011
:1023E00020202025642563001B5B313B314850577A
:1023F000523A20202020202025642E25303164569A
:10240000001B5B303B314842656C7420737461740F
:1024100075731B5B313B3248582025641B5B323B94
:102420003248592025640035212C21464C4558203E
:102430002D20203234302F35300050502020202DD8
:1024400020203235342F3130300048495053202D70
:1024500020203232302F3130300041425320202DA5
:1024600020203235352F3130300050455420202D7A
:1024700020203233302F383500504C4120202D2081
:10248000203231352F3630006661726D20202D20CC
:10249000203235302F343000004D213E210069219B
:1024A0005A212D2D2D2D2D2D2D2D2D2D2D2D2D2D3B
:1024B0002D2D2D2D2D2D004E2F4100862176214EC4
:1024C0002F41006D6D00009C219521A921A321C4FD
:1024D00021AF21E021D921F121E9210A22FE211693
:1024E00022352224222D2D2D2D2D2D2D2D2D2D2D3E
:1024F0002D00466C61736841697220495020416427
:1025000064723A002D2D2D2D2D2D2D2D2D2D2D2D9F
:10251000004D61722020382032303138004D224683
:10252000222D2D2D2D2D2D2D2D2D2D2D2D004533F5
:1025300044763666756C6C0045494E595F3034619F
:1025400000315F37356D6D5F4D4B33002D2D2D2DD7
:102550002D2D2D2D2D2D2D2D0064225322872276F9
:1025600022A4229922207265706F205072757361C7
:1025700033442F4D4B330020332E312E332D524315
:10258000312D323433004669726D776172653A00DD
:1025900025642E25642E25642E25640053746570F1
:1025A0007261746520746F6F20686967683A2000F3
:1025B0009C2524F4D43050C38E20C2A24017828BB5
:1025C0007011127A910D816CD90AA861E108C7587F
:1025D0006607615143061E4B5D05C145A7041A41BC
:1025E0001104093D9803713931034036DB0265332C
:1025F0009102D4305402802E1D02632CEE01752A04
:10260000C501B028A001102781018F2564012B246A
:102610004B01E0223401AC211F018D200D01801FF0
:10262000FC00841EED00971DDF00B81CD200E61BE5
:10263000C600201BBC00641AB200B219A8000A1917
:10264000A0006A189900D117910040178B00B516A9
:10265000840031167E00B31579003A157300C71453
:102660006F0058146A00EE13660088136300251388
:102670005E00C7125B006C12570015125400C111A6
:10268000510070114F0021114B00D61049008D10E0
:1026900047004610440002104200C00F4000800F67
:1026A0003E00420F3C00060F3B00CB0E3800930E5D
:1026B00037005C0E3500270E3400F30D3200C10DDB
:1026C0003100900D3000600D2E00320D2D00050DF3
:1026D0002C00D90C2B00AE0C2900850C29005C0CB9
:1026E0002700350C27000E0C2600E80B2400C40B35
:1026F0002400A00B23007D0B23005A0B2100390B73
:102700002100180B2000F80A1F00D90A1E00BB0A7E
:102710001E009D0A1D00800A1D00630A1C00470A56
:102720001B002C0A1B00110A1A00F7091A00DD0908
:102730001900C4091900AB091900920917007B0997
:102740001800630917004C09160036091600200905
:1027500016000A091500F5081500E0081400CC0859
:102760001400B8081400A4081400900813007D0891
:1027700012006B08130058081200460812003408B3
:102780001100230811001208110001081100F007C0
:102790001000E0071000D0071000C0071000B007BD
:1027A0000F00A107100091070E0083070F007407A8
:1027B0000F0065070E0057070E0049070E003B0784
:1027C0000D002E070E0020070D0013070D00060751
:1027D0000D00F9060C00ED060D00E0060C00D40615
:1027E0000C00C8060C00BC060C00B0060C00A406C9
:1027F0000B0099060C008D060B0082060B00770675
:102800000B006C060B0061060A0057060B004C0615
:102810000A0042060A0038060A002E060A002406AC
:102820000A001A060A001006090007060A00FD053C
:102830000900F4050900EB050900E2050900D905C6
:102840000900D0050900C7050900BE050900B50546
:102850000800AD050800A50509009C0508009405C1
:1028600008008C050800840508007C050800740534
:1028700008006C050700650508005D0507005605A2
:1028800008004E0507004705070040050800380509
:102890000700310507002A050700230507001C056E
:1028A0000600160507000F050700080506000205CB
:1028B0000700FB040600F5040700EE040600E80428
:1028C0000600E2040700DB040600D5040600CF047E
:1028D0000600C9040600C3040600BD040600B704D0
:1028E0000600B1040500AC040600A6040600A0041E
:1028F00005009B04060095040500900406008A0468
:10290000050085040500800406007A0405007504AE
:102910000500700405006B040500660405006104F1
:1029200005005C04050057040500520405004D0431
:10293000050048040500430405003E0404003A0471
:10294000050035040500300404002C0405002704AC
:102950000400230405001E0404001A0404001604E5
:102960000500110404000D0404000904050004041A
:10297000040000040400FC030400F8030400F40352
:102980000400F0030400EC030400E8030400E40383
:102990000400E0030400DC030400D8030400D403B3
:1029A0000400D0030400CC030400C8030300C503E3
:1029B000030024F404D9201BC40C5C0E9804C40941
:1029C0005F0265077101F405F900FB04B3004804D8
:1029D0008700C10369005803550003034500BE0288
:1029E0003A008402310053022A0029022500040221
:1029F0002000E4011C00C8011900AF011700980174
:102A000014008401130071011000610110005101D4
:102A10000E0043010D0036010B002B010B002001BD
:102A20000B00150109000C01090003010800FB005F
:102A30000800F3000800EB000700E4000600DE00D9
:102A40000600D8000600D2000600CC000500C70032
:102A50000500C2000500BD000400B9000400B50077
:102A60000400B1000400AD000400A9000400A500AA
:102A70000300A20003009F0004009B0003009800D5
:102A800003009500020093000300900003008D00F6
:102A900002008B0003008800020086000200840010
:102AA0000300810002007F0002007D0002007B0025
:102AB0000200790002007700010076000200740035
:102AC000020072000100710002006F0002006D0040
:102AD00001006C0002006A0001006900020067004A
:102AE0000100660001006500010064000200620050
:102AF000010061000100600001005F0002005D0054
:102B000001005C0001005B0001005A000100590057
:102B10000100580001005700010056000100550057
:102B20000100540001005300000053000100520056
:102B3000010051000100500001004F0001004E0053
:102B400000004E0001004D0001004C0001004B0050
:102B500000004B0001004A0001004900010048004C
:102B60000000480001004700010046000000460048
:102B70000100450000004500010044000100430041
:102B8000000043000100420000004200010041003B
:102B9000000041000100400001003F0000003F0034
:102BA00001003E0000003E0001003D0000003D002D
:102BB00001003C0000003C0000003C0001003B0024
:102BC00000003B0001003A0000003A00010039001B
:102BD0000000390001003800000038000000380013
:102BE0000100370000003700010036000000360009
:102BF00000003600010035000000350000003500FF
:102C000001003400000034000000340001003300F3
:102C100000003300000033000100320000003200E9
:102C200000003200010031000000310000003100DE
:102C300001003000000030000000300001002F00D3
:102C400000002F0000002F0000002F0001002E00C8
:102C500000002E0000002E0001002D0000002D00BD
:102C600000002D0000002D0001002C0000002C00B1
:102C700000002C0000002C0001002B0000002B00A5
:102C800000002B0000002B0001002A0000002A0099
:102C900000002A0000002A0001002900000029008D
:102CA0000000290000002900000029000100280080
:102CB0000000280000002800000028000000280074
:102CC0000100270000002700000027000000270067
:102CD000000027000100260000002600000026005A
:102CE000000026000000260001002500000025004D
:102CF0000000250000002500000025000000250040
:102D00000100240000002400000024000000240032
:102D10000000240001002300000023000000230025
:102D20000000230000002300000023000000230017
:102D3000010022000000220000002200000022000A
:102D400000002200000022000100210000002100FC
:102D500000002100000021000000210000002100EF
:102D600000002100010020000000200000002000E1
:102D700000002000000020000000200000002000D3
:102D80000000200001001F0000001F0000001F00C5
:102D900000001F0000001F0000001F0000001F00B7
:102DA00001001E0000001E0000001E0000001E00AA
:102DB00000004572723A205052494E542046414E0E
:102DC000204552524F52005072696E742066616EF7
:102DD000207370656564206973206C6F776572205D
:102DE0007468656E2065787065637465640045720B
:102DF000723A20455854522E2046414E2045525298
:102E00004F520045787472756465722066616E2059
:102E10007370656564206973206C6F7765722074C8
:102E200068656E206578706563746564002F2F2077
:102E3000616374696F6E3A7061757365005469738C
:102E40006B20707265727573656E005072696E7476
:102E50002061626F72746564005A6173746176698F
:102E600074207469736B0053746F70207072696E94
:102E70007400536F75626F72206E656B6F6D706C4E
:102E800065746E692E20506F6B7261636F7661742A
:102E90003F0046696C6520696E636F6D706C657488
:102EA000652E20436F6E74696E756520616E79774B
:102EB00061793F005469736B207A2053440050724B
:102EC000696E742066726F6D20534400486C6176A1
:102ED0006E69206E616269646B61004D61696E00AC
:102EE00043656B616E69206E61207A63686C616412
:102EF0006E75746920747279736B79206120706FBC
:102F0000646C6F7A6B792E0057616974696E672003
:102F1000666F72206E6F7A7A6C6520616E642062D3
:102F2000656420636F6F6C696E670053656C662023
:102F300074657374204F4B0053656C662074657321
:102F4000742073746172742020004B2E3D2E672E06
:102F5000592E4D323400922E722E4D32332025736D
:102F600000BE2EB42E052E2E00DB2ECC2E082FE018
:102F70002E2B2F4D3834004731205A313520463121
:102F800030303000473238205700382F417869738D
:102F9000206C656E67746820646966666572656E2C
:102FA00063653A004D656173757265642061786987
:102FB00073206C656E6774683A0025632041584938
:102FC00053205347313D25640A00506F757A6520C0
:102FD000616B7475616C6E690043757272656E74B5
:102FE00000506F757A69746520626568656D20743C
:102FF00069736B75005573656420647572696E67DB
:10300000207072696E740056736500416C6C0050DC
:103010004944206B616C2E20756B6F6E63656E6129
:10302000005049442063616C2E2066696E697368A4
:10303000656400504944206B616C2E2020202020C4
:10304000202020202020005049442063616C2E2045
:1030500020202020202020202020004D313137202A
:103060004B616C2E207072766E6920767273747666
:1030700079004D313137204669727374206C617963
:1030800065722063616C2E004F626E6F766F7661A1
:103090006E69207469736B7500526573756D696E26
:1030A00067207072696E74005469736B20706F7A58
:1030B0006173746176656E005072696E7420706120
:1030C0007573656400D92FCA2FF52FE12F0B3007D8
:1030D00030496E76616C6964205049442063616CAC
:1030E0002E20726573756C74732E204E6F7420736E
:1030F000746F72656420746F20454550524F4D2E99
:10310000004D3530300021300F30473033304731FB
:10311000205A3135204631353030004739310047AB
:10312000312058353020593139302045302046374C
:1031300030303000473930004D373032004D3730B5
:10314000322043004D3730322055004D37303200A9
:103150004731205A3135204631353030004739313A
:103160000047312058353020593139302045302042
:103170004637303030004D383300473930004D3855
:1031800034004D313034205330004D383400473155
:10319000205831302059313830204634303030001A
:1031A0004731205A31302046313330302E303030E4
:1031B000004D313430205330004D31303420533005
:1031C000004D31303700473120452D302E30373516
:1031D00030302046323130302E3030303030004701
:1031E0003120583530205935352045332E36323789
:1031F000373300473120583230302059353520459B
:10320000302E3439333836004731205832303020B0
:103210005937352045332E36323737330047312082
:10322000583530205937352045302E34393338362B
:1032300000473120583530205939352045332E3656
:103240003237373300473120583230302059393542
:103250002045302E3439333836004731205832304B
:103260003020593131352045332E3632373733004F
:1032700047312058353020593131352045302E34F2
:1032800039333836004731205835302059313335FD
:103290002045332E3632373733004731205832300D
:1032A0003020593133352045302E36363137340011
:1032B0004731205832303020593135352045322EB3
:1032C00036323737330047312058313030205931CA
:1032D00035352045320047312058373520593135B2
:1032E000352045322E350047312046313038300008
:1032F0004731205835302059313535004731204687
:1033000034303030004D32303420533130303000E2
:103310004731205A302E3135302046373230302E6A
:1033200030303000473120452D312E3530303030AF
:103330002046323130302E3030303030004D38338E
:103340000047393000473231004739322045302EAE
:103350003000473120583130302E30204531322E68
:10336000352046313030302E30004731205836304D
:103370002E302045392E302046313030302E30006E
:103380004739322045302E30004732380047383731
:103390000072305B304D3130392053323135004DC1
:1033A00031393020533630004D31343020533630EF
:1033B000004D3130342053323135004D313037003B
:1033C00099308830473930004731204531004D3839
:1033D00032004731204531004D3833004D31303611
:1033E00020532564004D3232302053256400B8301C
:1033F000A8304B616C696272756A69205A0043613A
:103400006C6962726174696E67205A0049746572F2
:103410006163652000497465726174696F6E200094
:10342000207A203400206F662034005A6C65707357
:10343000756A6920707265736E6F7374206B616C4E
:1034400069627261636E69686F20626F64750049BA
:103450006D70726F76696E67206265642063616C5F
:103460006962726174696F6E20706F696E74004B6F
:10347000616C6962726163652058595A20762070C8
:103480006F7261646B752E205A6B6F73656E692065
:1034900062756465206175746F6D617469636B79C1
:1034A000207679726F766E616E6F2070726920740B
:1034B00069736B752E0058595A2063616C6962728A
:1034C0006174696F6E20616C6C2072696768742E1C
:1034D00020536B65772077696C6C20626520636F81
:1034E00072726563746564206175746F6D6174696F
:1034F00063616C6C792E004B616C6962726163650B
:103500002058595A207620706F7261646B752E2096
:10351000582F59206F7379206D69726E65207A6B10
:103520006F73656E652E20446F62726120707261E8
:103530006365210058595A2063616C696272617435
:10354000696F6E20616C6C2072696768742E2058F8
:103550002F5920617865732061726520736C6967EB
:1035600068746C7920736B657765642E20476F6F84
:1035700064206A6F6221004B616C696272616365ED
:103580002058595A207620706F7261646B752E2016
:10359000582F59206F7379206A736F75206B6F6C89
:1035A0006D652E2047726174756C756A69210058CB
:1035B000595A2063616C6962726174696F6E206F21
:1035C0006B2E20582F592061786573206172652019
:1035D00070657270656E646963756C61722E2043EC
:1035E0006F6E67726174756C6174696F6E732100C0
:1035F0004B616C6962726163652058595A206E652F
:10360000707265736E612E204C65767920707265DC
:10361000646E6920626F64206D6F632076707265DE
:1036200064752E0058595A2063616C696272617426
:10363000696F6E20636F6D70726F6D697365642E54
:10364000204C6566742066726F6E742063616C69CD
:1036500062726174696F6E20706F696E74206E6F34
:103660007420726561636861626C652E004B616CE9
:103670006962726163652058595A206E657072657F
:10368000736E612E20507265646E69206B616C6987
:10369000627261636E6920626F6479206D6F63206E
:1036A0007670726564752E0058595A2063616C6992
:1036B00062726174696F6E20636F6D70726F6D6995
:1036C0007365642E2046726F6E742063616C69624C
:1036D000726174696F6E20706F696E7473206E6FA3
:1036E0007420726561636861626C652E004B616C69
:1036F0006962726163652058595A2073656C68610C
:103700006C612E204C65767920707265646E69203C
:10371000626F64206D6F63207670726564752E2011
:1037200053726F766E656A7465207469736B61722B
:103730006E752E0058595A2063616C69627261740B
:10374000696F6E206661696C65642E204C656674D5
:103750002066726F6E742063616C69627261746955
:103760006F6E20706F696E74206E6F742072656169
:10377000636861626C652E004B616C6962726163A3
:10378000652058595A2073656C68616C612E205011
:103790007265646E69206B616C69627261636E69E7
:1037A00020626F6479206D6F632076707265647536
:1037B0002E2053726F766E656A7465207469736B20
:1037C00061726E752E0058595A2063616C6962727D
:1037D0006174696F6E206661696C65642E20467243
:1037E0006F6E742063616C6962726174696F6E20C0
:1037F000706F696E7473206E6F7420726561636898
:1038000061626C652E004B616C6962726163652058
:1038100058595A2073656C68616C612E204E61683E
:103820006C65646E65746520646F206D616E756192
:103830006C752E0058595A2063616C69627261740C
:10384000696F6E206661696C65642E20506C6561DD
:10385000736520636F6E73756C7420746865206D7A
:10386000616E75616C2E004B616C6962726163659B
:103870002058595A2073656C68616C612E204B6129
:103880006C69627261636E6920626F6420706F643C
:103890006C6F7A6B79206E656E616C657A656E2EE1
:1038A0000058595A2063616C6962726174696F6E65
:1038B000206661696C65642E204265642063616CDA
:1038C0006962726174696F6E20706F696E742077BF
:1038D0006173206E6F7420666F756E642E00207A9F
:1038E000203400206F66203400486C6564616D20D0
:1038F0006B616C69627261636E6920626F642070D3
:103900006F646C6F7A6B7900536561726368696E7E
:1039100067206265642063616C6962726174696FBB
:103920006E20706F696E7400556D6973746574658F
:10393000206C69737420706170697275206E6120EB
:10394000706F646C6F7A6B752061207564727A7524
:103950006A7465206A656A20706F64207472797376
:103960006B6F7520626568656D206D6572656E6947
:10397000207072766E696368203420626F64752EE1
:1039800020506F6B756420747279736B61207A615B
:1039900063687974692070617069722C207679701F
:1039A0006E657465207469736B61726E752E00505C
:1039B0006C6163652061207368656574206F6620A3
:1039C000706170657220756E646572207468652020
:1039D0006E6F7A7A6C6520647572696E67207468A0
:1039E000652063616C6962726174696F6E206F66D5
:1039F000206669727374203420706F696E74732E40
:103A000020496620746865206E6F7A7A6C65206341
:103A10006174636865732074686520706170657295
:103A20002C20706F776572206F6666207468652041
:103A30007072696E74657220696D6D656469617418
:103A4000656C792E0050726F2075737065736E6FA0
:103A500075206B616C696272616369206F63697361
:103A6000746574652070726F73696D207469736B0F
:103A70006F766F7520747279736B752E20506F742A
:103A8000767264746520746C616369746B656D2E05
:103A900000506C6561736520636C65616E207468AD
:103AA00065206E6F7A7A6C6520666F722063616C38
:103AB0006962726174696F6E2E20436C69636B205A
:103AC0007768656E20646F6E652E0000007F43008E
:103AD0000056439AD95143FFFFFFFE33F233203C97
:103AE00020005741524E494E473A2046726F6E743D
:103AF00020706F696E74206E6F74207265616368E8
:103B000061626C652E205920636F6F7264696E610B
:103B100074653A000015340C344974657261746937
:103B20006F6E3A200043616C63756C6174696F6EEF
:103B3000206F6620746865206D616368696E65201A
:103B4000736B657720616E64206F666673657420A1
:103B50006661696C65642E00253420344F342B3443
:103B6000B6346F343435F734AF3577352436F03525
:103B7000A8366D363437ED36C637783734380638E0
:103B8000A138673843616C6962726174696F6E2035
:103B90006661696C65642120436865636B207468A5
:103BA00065206178657320616E642072756E206196
:103BB0006761696E2E00E338DE380839E938AF39BD
:103BC0002839913A453A41646A757374696E672081
:103BD0005A00526573657400567A61647520205BE3
:103BE000756D5D00526561722073696465205B7557
:103BF0006D5D00567072656475205B756D5D004685
:103C0000726F6E7420736964655B756D5D005670CC
:103C10007261766F205B756D5D0052696768742014
:103C2000736964655B756D5D00566C65766F202009
:103C30005B756D5D004C6566742073696465205B1F
:103C4000756D5D004E617374617674652074657086
:103C50006C6F74753A005365742074656D7065728D
:103C600061747572653A005A00C63BD23BE43BD89A
:103C70003BFF3BF33B1A3C0E3C353C293C563C4455
:103C80003C20003E003E0020003E003E005A300036
:103C90005A31005930005931005830005831004530
:103CA0006E642073746F70732064696167004E6581
:103CB000746F6369207365004E6F74207370696E52
:103CC0006E696E6700546F63692073650053706995
:103CD0006E6E696E67004C6576792076656E74202D
:103CE0006E61207472797363653F004C6566742061
:103CF000686F74656E642066616E3F005072656423
:103D00006E69207469736B6F76792076656E743F87
:103D10000046726F6E74207072696E742066616EF8
:103D20003F00546573742076656E74696C61746FBE
:103D300072750046616E207465737400B83CAE3CC9
:103D4000CD3CC53CEB3CD63C113DFC3C333D223DDB
:103D5000010210202008081020401020408002019D
:103D60000201080402010102040810204080804082
:103D70002010080402018004020180402010080481
:103D8000020108040201010204081020408001021F
:103D900004081020408010080408801020400440CF
:103DA00080102040048000002200250028002B0005
:103DB0002E003100340002010000050108010B0152
:103DC00005050505070508080808020202020A0A97
:103DD00008080404040401010101010101010303B5
:103DE000030303030303040707070C0C0C0C0C0C60
:103DF0000C0C0202020206060606060606060B0B5D
:103E00000B0B0B0B0B0B07070A0A0A0A0A0A05051C
:103E10000504040408080222206661696C65643A9E
:103E2000204275666665722066756C6C2100456E71
:103E3000717565696E6720746F207468652066729D
:103E40006F6E743A2022004572726F723A0022003F
:103E5000456E717565696E6720746F2074686520A2
:103E600066726F6E743A2022004D3234004D323348
:103E7000202573006175746F25692E67001000C9D5
:103E80000210012C014001220170011801B0010E45
:103E900001F00104015002FA00B002F0003003E624
:103EA00000D003DC009004D2007005C800A006BE5C
:103EB000000008B400B009AA00D00BA000600E9664
:103EC0000060118C000015820020197800C01D6E62
:103ED00000A0226400B0275A00902C500000314608
:103EE00000E0343C0010383200903A2800603C1E5C
:103EF00000A03D1400803E0A00203F000070012C0D
:103F00000190012701B0012201C0011D01F001183B
:103F1000011002130130020E016002090190020437
:103F200001C002FF000003FA004003F5008003F027
:103F300000D003EB002004E6007004E100E004DCA4
:103F4000004005D700C005D2004006CD00D006C80D
:103F5000008007C3003008BE00F008B900C009B4F3
:103F600000B00AAF00B00BAA00D00CA500000EA054
:103F700000500F9B00C01096005012910000148C4E
:103F800000C0158700B0178200B0197D00D01B78E3
:103F900000001E730040206E0090226900F024642F
:103FA0000040275F0090295A00E02B5500102E504A
:103FB0000020304B0010324600E033410090353C89
:103FC000001037370070383200A0392D00B03A2881
:103FD00000A03B2300603C1E00103D1900903D14E2
:103FE00000103E0F00703E0A00C03E0500003F007A
:103FF0000090137D00B0157800F0177300601A6E02
:1040000000F01C6900A01F640050225F0020255AA8
:1040100000E0275500902A5000202D4B00A02F468D
:1040200000F031410010343C00F0353700A0373249
:104030000020392D00603A2800703B2300603C1EB0
:1040400000203D1900C03D1400403E0F00A03E0A74
:1040500000F03E0500403F0000703FFBFF903FF640
:10406000FFB03FF1FFC03FECFFD03FE7FFE03FE292
:10407000FFF03FDDFFF03FD8FF20484F54454E444E
:1040800020544845524D414C2052554E41574159BC
:1040900000204845415442454420544845524D4132
:1040A0004C2052554E4157415900544845524D41BC
:1040B0004C2052554E4157415900424544205448E6
:1040C00045524D414C2052554E41574159002054C4
:1040D0004845524D414C2052554E41574159202898
:1040E000205052454845415420484F54454E44299C
:1040F0000020544845524D414C2052554E415741A5
:1041000059202820505245484541542048454154A3
:104110004245442900505245484541542045525299
:104120004F52004245442050524548454154204595
:1041300052524F52004572723A204D415854454DEB
:1041400050003A20457874727564657220737769FF
:104150007463686564206F66662E204D415854452F
:104160004D5020747269676765726564202100454F
:1041700072723A204D415854454D502042454400FA
:1041800054656D70657261747572652068656174DF
:104190006564206265642073776974636865642070
:1041A0006F66662E204D415854454D5020747269FB
:1041B0006767657265642021004572723A204D4937
:1041C0004E54454D50204245440054656D70657213
:1041D00061747572652068656174656420626564E8
:1041E000207377697463686564206F66662E204D5E
:1041F000494E54454D502074726967676572656415
:104200002021004572723A204D494E54454D5000D0
:104210003A204578747275646572207377697463A7
:10422000686564206F66662E204D494E54454D509A
:10423000207472696767657265642021004E4F5271
:104240004D414C00535445414C544800746D633209
:104250003133305F696E697428292C206D6F646575
:104260003D25530A00457874727564657200506F7D
:1042700073756E6F7574205A004D6F7665205A0005
:10428000506F73756E6F75742059004D6F76652091
:104290005900506F73756E6F75742058004D6F76AE
:1042A000652058001B5B324A437261736820646565
:1042B00074656B6365206D757A651B5B313B3048B7
:1042C000627974207A61706E75746120706F757A8E
:1042D0006520761B5B323B30484E6F726D616C20FF
:1042E0006D6F6475001B5B324A43726173682064B2
:1042F0006574656374696F6E2063616E1B5B313B2F
:1043000030486265207475726E6564206F6E206F30
:104310006E6C7920696E1B5B323B30484E6F726D5C
:10432000616C206D6F6465001B5B324A504F5A4FC1
:10433000523A1B5B313B30484372617368206465BD
:1043400074656B63651B5B323B30486465616B74FD
:1043500069766F76616E612076651B5B333B304812
:10436000537465616C7468206D6F6475001B5B32FB
:104370004A5741524E494E473A1B5B313B30484306
:104380007261736820646574656374696F6E1B5B2A
:10439000323B304864697361626C656420696E1BEE
:1043A0005B333B3048537465616C7468206D6F6497
:1043B00065004175746F6D617469636B65207A6126
:1043C000766164656E692066696C616D656E747591
:1043D00020646F737475706E6520706F757A6520D8
:1043E000707269207A61706E7574656D2066696C93
:1043F000616D656E742073656E7A6F72752E2E2EE8
:10440000004175746F6C6F6164696E672066696CDA
:10441000616D656E7420617661696C61626C6520A6
:104420006F6E6C79207768656E2066696C616D656A
:104430006E742073656E736F722069732074757269
:104440006E6564206F6E2E2E2E0043485942413A0D
:104450002046696C616D656E742073656E7A6F724B
:10446000206E6572656167756A652C207A6B6F6E68
:1044700074726F6C756A7465207A61706F6A656EAC
:10448000692E004552524F523A2046696C616D6563
:104490006E742073656E736F72206973206E6F7413
:1044A00020726573706F6E64696E672C20706C6526
:1044B00061736520636865636B20636F6E6E65630F
:1044C00074696F6E2E005A6B616C6962726F7661EF
:1044D000740043616C696272617465004E656A6460
:1044E00072697665207A61766564746520504C4106
:1044F0002066696C616D656E742070726F73696D92
:104500002E00506C65617365206C6F616420504CA7
:10451000412066696C616D656E74206669727374A2
:104520002E004A6520504C412066696C616D656EB5
:1045300074207A61766564656E3F00497320504C43
:10454000412066696C616D656E74206C6F61646595
:10455000643F0050726F73696D207A617665647490
:104560006520504C412066696C616D656E742061F8
:1045700020706F207465206F626E6F7674652057AF
:10458000697A6172646120737469736B6E757469A2
:104590006D20726573657420746C616369746B61FE
:1045A0002E00506C65617365206C6F616420504C07
:1045B000412066696C616D656E7420616E64207463
:1045C00068656E20726573756D652057697A6172D2
:1045D00064206279207265626F6F74696E672074FF
:1045E0006865207072696E7465722E0050726F7308
:1045F000696D206E61686C65646E65746520646FBA
:10460000206D616E75616C752061206F70726176CE
:1046100074652070726F626C656D2E20506F20740F
:1046200065206F626E6F7674652057697A61726477
:1046300061207265626F6F746F76616E696D207450
:1046400069736B61726E792E00506C6561736520C1
:10465000636865636B206F75722068616E64626F5A
:104660006F6B20616E6420666978207468652070C5
:10467000726F626C656D2E205468656E2072657372
:10468000756D65207468652057697A61726420626F
:1046900079207265626F6F74696E67207468652037
:1046A0007072696E7465722E00567365206A65209B
:1046B000686F746F766F2E00416C6C206973206494
:1046C0006F6E652E204861707079207072696E740B
:1046D000696E67210057697A61726461206D757A2D
:1046E000657465206B64796B6F6C6976207A6E6F88
:1046F00076752073707573746974207A206D656E99
:10470000752043616C6962726174696F6E202D3E21
:104710002057697A61726400596F752063616E2059
:10472000616C7761797320726573756D652074684B
:10473000652057697A6172642066726F6D204361EB
:104740006C6962726174696F6E202D3E2057697AC0
:104750006172642E0050726F73696D206F636973AC
:104760007465746520686561746265642061207396
:104770007469736B6E65746520746C616369746BC6
:104780006F2E00506C6561736520636C65616E20EF
:104790006865617462656420616E64207468656E2A
:1047A00020707265737320746865206B6E6F622E63
:1047B00000436863657465206F70616B6F76617428
:1047C00020706F736C65646E69206B726F6B206113
:1047D00020706F7A6D656E697420767A64616C659D
:1047E0006E6F7374206D657A6920747279736B6F64
:1047F00075206120686561746265643F00446F20C4
:10480000796F752077616E7420746F2072657065A2
:104810006174206C617374207374657020746F20F0
:10482000726561646A7573742064697374616E6320
:1048300065206265747765656E206E6F7A7A6C6547
:1048400020616E6420686561746265643F005A612E
:10485000636E75207469736B6E6F7574206C696E0E
:104860006B752061205679206275646574652070CF
:104870006F737475706E6520736E697A6F7661748C
:1048800020747279736B75206F746163656E696DE6
:1048900020746C616369746B6120646F6B75642054
:1048A0006E65646F7361686E657465206F7074699E
:1048B0006D616C6E69207679736B792E2050726F02
:1048C000686C65646E657465207369206F627261DF
:1048D0007A6B792076206E617369207072697275C7
:1048E0006363652076206B617069746F6C65204B23
:1048F000616C69627261636500492077696C6C2044
:10490000737461727420746F207072696E74206C9D
:10491000696E6520616E6420796F752077696C6CB3
:10492000206772616475616C6C79206C6F77657259
:1049300020746865206E6F7A7A6C652062792072C7
:104940006F746174696E6720746865206B6E6F6246
:104950002C20756E74696C20796F752072656163A7
:1049600068206F7074696D616C2068656967687430
:104970002E20436865636B207468652070696374DA
:104980007572657320696E206F75722068616E6440
:10499000626F6F6B20696E2063686170746572204E
:1049A00043616C6962726174696F6E2E004E796E3C
:1049B00069207A6B616C696272756A6920767A64C3
:1049C000616C656E6F7374206D657A69206B6F6EB4
:1049D00063656D20747279736B79206120706F76D6
:1049E000726368656D2068656174626564752E0028
:1049F0004E6F7720492077696C6C2063616C696227
:104A0000726174652064697374616E6365206265A8
:104A1000747765656E20746970206F6620746865B0
:104A2000206E6F7A7A6C6520616E642068656174AF
:104A300062656420737572666163652E004A652045
:104A4000746F20504C412066696C616D656E743FD7
:104A500000497320697420504C412066696C616D77
:104A6000656E743F005A61766164656E692066699F
:104A70006C616D656E7475004C6F6164696E672062
:104A800066696C616D656E740050726F73696D203C
:104A9000766C6F7A746520504C412066696C616D4C
:104AA000656E7420646F20657874727564657275C4
:104AB0002C20706F20746520737469736B6E65743D
:104AC0006520746C616369746B6F2070726F207AFB
:104AD00061766564656E692066696C616D656E748A
:104AE000752E00506C6561736520696E7365727414
:104AF00020504C412066696C616D656E7420746F46
:104B0000207468652065787472756465722C2074F1
:104B100068656E207072657373206B6E6F622074AF
:104B20006F206C6F61642069742E0050726564653B
:104B300068726976616D20747279736B752E20507E
:104B4000726F73696D2063656B656A74652E0050C2
:104B5000726568656174696E67206E6F7A7A6C65DC
:104B60002E20506C6561736520776169742E004E4C
:104B7000796E692070726564656872656A6920740F
:104B80007279736B752070726F20504C412E004EFD
:104B90006F7720492077696C6C2070726568656159
:104BA00074206E6F7A7A6C6520666F7220504C416B
:104BB0002E004A652066696C616D656E74207A61AD
:104BC000766564656E3F0049732066696C616D654A
:104BD0006E74206C6F616465643F00556D69737419
:104BE0006574652070726F73696D207469736B6F83
:104BF000767920706C6174206E61206865617462E2
:104C0000656400506C6561736520706C616365203C
:104C1000737465656C207368656574206F6E2068B9
:104C20006561746265642E004A65207469736B6FF8
:104C3000767920706C6174206E61206865617462A1
:104C400065643F00497320737465656C2073686503
:104C50006574206F6E20686561746265643F004E04
:104C6000796E692070726F76656475207A206B6149
:104C70006C6962726163692E00492077696C6C20EF
:104C800072756E207A2063616C6962726174696FFB
:104C90006E206E6F772E004E796E692070726F767F
:104CA0006564752078797A206B616C6962726163E2
:104CB000692E205A616265726520746F2070726976
:104CC000626C697A6E65203132206D696E2E004902
:104CD0002077696C6C2072756E2078797A20636118
:104CE0006C6962726174696F6E206E6F772E2049F5
:104CF000742077696C6C2074616B652061707072D0
:104D00006F782E203132206D696E732E004E656AE9
:104D10006472697620706F6D6F63692073656C666D
:104D20007465737475207A6B6F6E746F6C756A69D5
:104D3000206E656A63617374656A7369206368795C
:104D4000627920767A6E696B616A69636920707234
:104D50006920736573746176656E69207469736B1D
:104D600061726E792E0046697273742C2049207727
:104D7000696C6C2072756E207468652073656C6652
:104D80007465737420746F20636865636B206D6F46
:104D9000737420636F6D6D6F6E20617373656D62E8
:104DA0006C792070726F626C656D732E00446F6257
:104DB00072792064656E2C206A73656D207661734C
:104DC00065207469736B61726E61204F72696769E7
:104DD0006E616C2050727573612069332E204368B8
:104DE0006365746520616279636820566173207021
:104DF000726F7665646C61206B616C69627261636D
:104E00006E696D2070726F636573656D3F004869F0
:104E10002C204920616D20796F7572204F7269676F
:104E2000696E616C205072757361206933207072F5
:104E3000696E7465722E20576F756C6420796F757A
:104E4000206C696B65206D6520746F2067756964DF
:104E50006520796F75207468726F75676820746853
:104E6000652073657475702070726F636573733F2E
:104E700000654279426E428B4280429D429242E5F9
:104E800042A4426D4328430144B24383444A444709
:104E90003830004D3435205A00D244C644473736A6
:104EA000000245DC443B452245A24553454946ECBA
:104EB00045B846A9461847D54653746174653A20EB
:104EC0000083475547FD47B147F9484E48F049AD83
:104ED00049514A3D4A784A654AE34A894A4F4B2B31
:104EE0004B8F4B6F4BC74BB24B034CDB4B444C28A7
:104EF0004C794C5F4CCF4C974C664D0D4D0E4EADE2
:104F00004D4E6168726976616E692050494E444128
:104F10000050494E44412048656174696E670054F1
:104F200065706C2E206B616C2E20202020202020AC
:104F30002020200054656D702E2063616C2E20208F
:104F40002020202020202020004B616C69627261AB
:104F50006365204F4B0043616C6962726174696FD5
:104F60006E20646F6E65004B616C696272756A6970
:104F7000205A0043616C6962726174696E67205ADD
:104F800000426564204F4B2E0042656420646F6EC2
:104F900065005A6168726976616E692062656400B5
:104FA0004265642048656174696E67005A61687281
:104FB0006976616E69204F4B2E0048656174696E99
:104FC0006720646F6E652E005A6168726976616E43
:104FD000690048656174696E67005072696E746536
:104FE0007220646973636F6E6E6563746564003A02
:104FF0002000114F014F344F1F4F564F494F202073
:1050000020202020202020202020202020202020A0
:105010002000203A2000734F674F202020202020BE
:105020002020202020202020202020202020008937
:105030004F814FA04F924FBA4FAC4FD24FC84F2025
:105040002020202020202020202020200025730048
:105050002020002D2D3A2D2D002000200020004C76
:10506000002020002046002D2D2D003E55534200EB
:105070005344002D2D00252020202020002020003A
:105080002020000120002020202D2D2D2000202078
:105090005A00202000012000DA4F43687962612025
:1050A0002D20446F736C6F206B2070726570697374
:1050B00075207374617469636B652070616D6574CC
:1050C0006921004572726F72202D207374617469BA
:1050D00063206D656D6F727920686173206265650C
:1050E0006E206F7665727772697474656E004B61BD
:1050F0007274612076796A6D7574610043617264BF
:105100002072656D6F766564004B61727461207604
:105110006C6F7A656E61004361726420696E7365BD
:105120007274656400C3509A50FC50EE50175109D8
:10513000515052555341334446570000002100243A
:105140000027002A002D0030003300010100000478
:105150000107010A01000020002300260029002C7D
:10516000002F0032000001000003010601090100C8
:10517000000A0B02090C0D0E0807030401000000D1
:10518000000000000000000000000000000000001F
:1051900000000000000000000000001211100000DC
:1051A00000000000000000000000000000000000FF
:1051B00000000000000000000000000000000000EF
:1051C000000000000054726964656E69205B4162F2
:1051D00065636564615D00536F72743A20205B41C2
:1051E0006C7068616265745D0054726964656E69B3
:1051F00020202020205B4361735D00536F72743A5E
:105200002020202020205B54696D655D00534420E0
:105210006361726420205B6E6F726D616C5D005320
:10522000442063617264205B466C73684169725DFF
:10523000005679626572206A617A796B6100536504
:105240006C656374206C616E6775616765005250B0
:105250006920706F7274202020205B7A61705D007D
:1052600052506920706F727420202020205B6F6E76
:105270005D0052506920706F7274202020205B7690
:1052800079705D0052506920706F72742020202068
:105290005B6F66665D005465706C2E206B616C2ED2
:1052A00020205B7A61705D0054656D702E20636113
:1052B0006C2E2020205B6F6E5D005465706C2E207C
:1052C0006B616C2E20205B7679705D0054656D708B
:1052D0002E2063616C2E20205B6F66665D004B6F35
:1052E0006E74722E2076656E742E5B7679705D001A
:1052F00046616E7320636865636B20205B6F666632
:105300005D004B6F6E74722E2076656E742E5B7A24
:1053100061705D0046616E7320636865636B202079
:10532000205B6F6E5D0054726964656E6920202099
:105330005B5A61646E655D00536F72743A20202081
:105340002020205B4E6F6E655D00462E20617574D7
:105350006F7A61762E205B7679705D00462E206133
:1053600075746F6C6F6164205B6F66665D00462EBE
:10537000206175746F7A61762E205B7A61705D00B2
:10538000462E206175746F6C6F616420205B6F6EB8
:105390005D00462E206175746F7A61762E205B4E1B
:1053A0002F415D00462E206175746F6C6F61642023
:1053B0005B4E2F415D0046696C2E2073656E7A6FDF
:1053C00072205B4E2F415D0046696C2E2073656E26
:1053D000736F72205B4E2F415D005679706E6F7552
:1053E00074206D6F746F72790044697361626C65CB
:1053F00020737465707065727300506F73756E6F93
:105400007574206F7375004D6F76652061786973D0
:10541000005465706C6F74610054656D70657261E5
:1054200074757265004739390044697361626C654F
:10543000206661726D206D6F64653F00D751C55164
:10544000FB51E9510D521F523E52315260524E52A1
:10545000845272524661726D206E756D6265720083
:10546000A8529652CC52BA5244697361626C65205C
:105470006661726D206D6F646500F052DE521453E8
:105480000253385326535C534A5380536E53A453EC
:105490009253C853B6534D383400E953DA53075486
:1054A000FA5319541154544D43204452495645520D
:1054B000204F56455254454D502000746D63323193
:1054C00033305F7365745F63757272656E745F68A5
:1054D00028617869733D25642C2063757272656E4E
:1054E000743D25640A00746D63323133305F736537
:1054F000745F63757272656E745F72286178697328
:105500003D25642C2063757272656E743D25640AB6
:1055100000726573756C742076616C75653A202530
:10552000640A0020693D25326420636E743D253293
:10553000642076616C3D2532640A00636C75737477
:105540006572733A0A0020693D25326420737465E0
:10555000703D2532640A00736F7274656420736154
:105560006D706C65733A0A0057726974696E6720D2
:10557000746F2066696C653A200046696C6520731B
:10558000656C6563746564002053697A653A200030
:1055900046696C65206F70656E65643A20006F70B7
:1055A000656E206661696C65642C2046696C653A9D
:1055B00020004E65004E6F00416E6F00596573000C
:1055C00068552E002E007A55885590552E009E5510
:1055D0004E6F772066726573682066696C653A2045
:1055E000004E6F7720646F696E672066696C653A5C
:1055F00020002220706F73002220706172656E742B
:105600003A2200535542524F5554494E452043418A
:105610004C4C207461726765743A22007472796927
:105620006E6720746F2063616C6C207375622D67E8
:10563000636F64652066696C6573207769746820A0
:10564000746F6F206D616E79206C6576656C732E5A
:10565000204D4158206C6576656C2069733A00B521
:1056600055B2553E00BC55B8553E0020003E003EA8
:1056700000200000004041FFFFBF4000005C43FFEE
:10568000FFBF4000005C4300004643000040410073
:10569000004643454550524F4D204572726F72008F
:1056A00048617264636F6465642044656661756C0B
:1056B000742053657474696E6773204C6F61646500
:1056C000640043616E6E6F7420656E746572207342
:1056D00075626469723A20005344206361726420E9
:1056E0006F6B006F70656E526F6F74206661696CCE
:1056F000656400766F6C756D652E696E69742066E1
:1057000061696C656400534420696E697420666148
:10571000696C0054726964656E6920736F75626F9D
:10572000727500536F7274696E672066696C657379
:10573000004E656B7465726520736F75626F727968
:10574000206E656275646F75207365747269646537
:105750006E792E204D6178696D616C6E6920706F75
:1057600063657420736F75626F72752070726F203D
:10577000736574726964656E69206A6520313030C2
:105780002E00536F6D652066696C65732077696CB8
:105790006C206E6F7420626520736F727465642E66
:1057A000204D61782E204E6F2E206F662066696C2A
:1057B000657320696E203120666F6C6465722066A7
:1057C0006F7220736F7274696E6720697320313055
:1057D000302E00332E312E332D52433100726300B0
:1057E0006265746100616C7068610064657600C216
:1057F000566F6B0A002046002045004731205A00B2
:10580000D856E356F3560657235713578257315746
:10581000436F6E74696E7565207769746820616E78
:105820006F7468657220626F7764656E3F00250053
:105830002020202020200020202020202000455251
:105840004153494E4720616C6C206461746100468D
:105850006163746F727920524553455400454E413F
:10586000424C45440A0044495341424C45440A00D5
:105870004653656E736F7220005041543931323592
:105880005F696E69743A25640A0000007F43000076
:1058900052430000524300000000000080C09A996B
:1058A000193E00000000000080C09A99193E746DF6
:1058B00063323133305F676F746F5F73746570206C
:1058C0002564202564202564202564200A0000002A
:1058D000A0400000A0400000004025336420737405
:1058E00065703D253264206D73636E743D253464AC
:1058F0000A00627573793A20706175736564206679
:105900006F7220696E70757400627573793A2070D9
:10591000617573656420666F7220757365720062CD
:105920007573793A2070726F63657373696E67007F
:1059300000002110422063308440A550C660E7700B
:10594000088129914AA16BB18CC1ADD1CEE1EFF1B3
:105950003112100273325222B5529442F772D6625B
:10596000399318837BB35AA3BDD39CC3FFF3DEE303
:105970006224433420040114E664C774A4448554AB
:105980006AA54BB528850995EEE5CFF5ACC58DD553
:105990005336722611163006D776F6669556B446FB
:1059A0005BB77AA719973887DFF7FEE79DD7BCC7A3
:1059B000C448E5588668A77840086118022823384B
:1059C000CCC9EDD98EE9AFF9488969990AA92BB9F3
:1059D000F55AD44AB77A966A711A500A333A122A9B
:1059E000FDDBDCCBBFFB9EEB799B588B3BBB1AAB43
:1059F000A66C877CE44CC55C222C033C600C411CEB
:105A0000AEED8FFDECCDCDDD2AAD0BBD688D499D92
:105A1000977EB66ED55EF44E133E322E511E700E3A
:105A20009FFFBEEFDDDFFCCF1BBF3AAF599F788FE2
:105A30008891A981CAB1EBA10CD12DC14EF16FE1C2
:105A40008010A100C230E3200450254046706760FA
:105A5000B9839893FBA3DAB33DC31CD37FE35EF312
:105A6000B1029012F322D23235421452776256724A
:105A7000EAB5CBA5A89589856EF54FE52CD50DC562
:105A8000E234C324A014810466744764245405449A
:105A9000DBA7FAB79987B8975FE77EF71DC73CD7B2
:105AA000D326F2369106B0165766767615463456EA
:105AB0004CD96DC90EF92FE9C899E9898AB9ABA902
:105AC0004458654806782768C018E1088238A3283A
:105AD0007DCB5CDB3FEB1EFBF98BD89BBBAB9ABB52
