:100000000C944A330C947B330C947B330C947B33E9
:100010000C947B330C9451980C947B330C947B336D
:100020000C94559B0C947B330C947B330C949EAABC
:100030000C947B330D94C9310C947B330C947B333B
:100040000C947B330D9460400C947B330C947B3385
:100050000C947B330C947B330D94363E0D947A33A1
:100060000C947B330D94E0760C947B330C947B33AF
:100070000C947B330C947B330C947B330C947B3348
:100080000C947B330C947B330C947B330C947B3338
:100090000D949C760C947B330C947B330C947B33C3
:1000A0000C947B330C947B330C947B330C947B3318
:1000B0000C947B330C947B330C947B330C947B3308
:1000C0000C947B330C947B330C947B330C947B33F8
:1000D0000C947B330C947B330C947B330C947B33E8
:1000E0000C947B33680152013401A001F4017601C4
:1000F000700180017A016E01EC01D401D801400148
:10010000880188018801960196019601A801E00105
:1001100096016201E8018201B601A601B4012E0137
:100120008A0138019401AE018601BE016401F20129
:100130002E014601B8019C0142014A01A201E601DB
:100140007C01C60150013C01BC018E01C001E401EB
:100150007E01C201C601A40172012801B0013A0169
:10016000DA01EE0178015A01DE016A015401DC0175
:100170004C019001300156016C01920144013201A1
:10018000CC01084AD73B3BCE016E84BCBFFDC12FDA
:100190003D6C74319ABD56833DDA3D00C77F11BE78
:1001A000D9E4BB4C3E916BAAAABE000000803F057B
:1001B000A84CCDB2D44EB93836A9020C50B99186AC
:1001C00088083CA6AAAA2ABE000000803F07634216
:1001D00036B79BD8A71A39685618AEBAAB558C1DDE
:1001E0003CB7CC5763BD6DEDFD753EF6177231BF60
:1001F000000000803F08000000BE922449123EAB80
:10020000AAAA2ABECDCCCC4C3E00000080BEABAA30
:10021000AAAA3E00000000BF000000803F000000CE
:100220000000084178D3BB4387D1133D190E3CC36E
:10023000BD4282AD2B3E68EC8276BED98FE1A93EED
:100240004C80EFFFBE01C4FF7F3F000000000000B4
:100250000D9418330D94FF010D947AB80D94F1307C
:100260000D94658C0D94CA8C0D94C62A0D94E99654
:100270000D94C2300D9422780D94BB320D94562DFE
:100280000D949C2C0D948B320D94AD8C0D94E43018
:100290000D94FD8F0D9490320D941E8C0D94322789
:1002A0000D94B3320D94B42A0D94FF8B0D946C8C85
:1002B0000D94D8970D945D780D943C270D94969BE2
:1002C0000D940F740D94B62C0D94DA300D94594B97
:1002D0000D949D2A0D94B5780D94788C0D94282C4E
:1002E0000D94372B0D940E330D94EC770D941B2B3E
:1002F0000D9444780D94182C0D94A9320D94F0327D
:100300000D94EC2B0D94BA300D942B270D94D03016
:100310000D94A42C0D94BE300D94CB070D94CD32CA
:100320000D943C8C0D94958C0D94C8300D94CA2C72
:100330000D94DF260D94A3290D94EC300D94B02973
:100340000D94DC2A0D9495320D9404330D94AD3048
:100350000D94AC2C0D940F2A0D94628E0D94CC301C
:100360000D941E780D940E740D94B3300D94A93035
:100370000D94E8300D943A9C0D94C3320D94D63010
:100380000D94D7320D94FA320D9426280D94223311
:100390000D9417310D949BB80D94F68C0D94242771
:1003A0000D94E27B0D944C520D94632C0D94BF037D
:1003B0000D94942C0D9427780D94178C0D948878B7
:1003C0000D94DA2C0D9471300D94E1320D949F321E
:1003D0000D94B7300D948D9B0D94452C0D942F7872
:1003E0000D9451520D94DE300D94ED2A0D94C17C84
:1003F0004E414E494E495459494E46CDCCCC3D0A0A
:10040000D7233C17B7D13877CC2B329595E6241FEC
:10041000B14F0A000020410000C84200401C4620A5
:10042000BCBE4CCA1B0E5AAEC59D7400407A10F378
:100430005A00A0724E18090010A5D4E80000E87612
:1004400048170000E40B54020000CA9A3B00000069
:10045000E1F505000080969800000040420F000082
:1004600000A08601000000102700000000E8030043
:100470000000006400000000000A0000000000010D
:1004800000000000002C76D888DC674F0823DFC10D
:10049000DFAE59E1B1B796E5E3E453C63AE65199C8
:1004A0007696E8E6C28426EB898C9B62ED407C6FF1
:1004B000FCEFBC9C9F40F2BAA56FA5F490055A2AA8
:1004C000F75C936B6CF9676DC11BFCE0E40D47FEB4
:1004D000F520E6B500D0ED902E03009435770500A9
:1004E00080841E080000204E0A000000C80C333330
:1004F00033330F986E12831141EF8D2114893BE63F
:100500005516CFFEE6DB18D1844B381BF77C1D90C7
:100510001DA4BBE424203284725E228100C9F12430
:10052000ECA1E53D27446574656B6F76616E206EC6
:100530006172617A2E00437261736820646574652C
:10054000637465642E005344207072696E74696E22
:10055000672062797465200050726F73696D206145
:100560006B7475616C697A756A74652E00506C6580
:1005700061736520757067726164652E00567973CA
:100580006C61206E6F7661207665727A652066698F
:10059000726D776172653A004E6577206669726D9B
:1005A000776172652076657273696F6E206176611E
:1005B000696C61626C653A006120737469736B6E7B
:1005C00065746520746C616369746B6F00616E643F
:1005D00020707265737320746865206B6E6F6200A3
:1005E000566C6F7A74652066696C616D656E740017
:1005F000496E736572742066696C616D656E740016
:100600004261727661206E656E6920636973746100
:1006100000436F6C6F72206E6F7420636F7272652F
:1006200063740046696C616D656E74206E657A61F5
:10063000766564656E0046696C616D656E74206EEA
:100640006F74206C6F616465640056796D656E61CE
:10065000206F6B3F004368616E67656420636F7253
:10066000726563746C793F0043697374656E6920C9
:100670006261727679004C6F6164696E6720636FA6
:100680006C6F72005A6D656E612075737065736E64
:100690006121004368616E676520737563636573EC
:1006A00073210045787472756465720056796265CD
:1006B0007274652065787472756465723A00436877
:1006C0006F6F73652065787472756465723A004166
:1006D00063746976652045787472756465723A2032
:1006E00000496E76616C6964206578747275646522
:1006F000720050726F73696D206F746576726574E5
:10070000652069646C65722061206D616E75616C35
:100710006E65206F64737472616E74652066696CB7
:10072000616D656E742E00506C65617365206F702D
:10073000656E2069646C657220616E642072656DFF
:100740006F76652066696C616D656E74206D616E93
:1007500075616C6C792E0042796C6F2076797375B7
:100760006E7574692066696C616D656E747520754F
:10077000737065736E653F005761732066696C61C5
:100780006D656E7420756E6C6F6164207375636344
:1007900065737366756C3F0050726F73696D207678
:1007A000796A6D6574652075727963686C656E65CC
:1007B0002066696C616D656E7400506C656173656F
:1007C0002070756C6C206F75742066696C616D6546
:1007D0006E7420696D6D6564696174656C7900562D
:1007E00079736F7576616D2066696C616D656E7485
:1007F00000556E6C6F6164696E672066696C616D2F
:10080000656E740050726F206E6168726174692049
:10081000747279736B79206120706F6B7261636F92
:1008200076616E6920737469736B6E65746520748C
:100830006C616369746B6F2E005072657373206B0B
:100840006E6F6220746F2070726568656174206ECF
:100850006F7A7A6C6520616E6420636F6E74696E66
:1008600075652E0050726F20767973756E75746998
:100870002066696C616D656E747520737469736B45
:100880006E6574652070726F73696D20746C61633E
:1008900069746B6F00506C6561736520707265736D
:1008A0007320746865206B6E6F6220746F20756EA4
:1008B0006C6F61642066696C616D656E74005A20AE
:1008C0004F666673657400556E6B6E6F776E20634E
:1008D0006F6D6D616E643A2022004D3230302049D8
:1008E0006E76616C696420657874727564657220D7
:1008F000007A5F6D61783A20007A5F6D696E3A2008
:1009000000795F6D61783A2000795F6D696E3A20F9
:1009100000785F6D61783A20006F70656E00545208
:100920004947474552454400785F6D696E3A20005B
:100930005265706F7274696E6720656E6473746F50
:1009400070207374617475730020436F756E74202A
:10095000583A20004649524D574152455F4E414D4D
:10096000453A4D61726C696E2056312E302E323B05
:1009700020537072696E7465722F6772626C206D9D
:10098000617368757020666F722067656E362046E9
:1009900049524D574152455F55524C3A68747470F4
:1009A000733A2F2F6769746875622E636F6D2F70AD
:1009B0007275736133642F50727573612D69332DB5
:1009C000506C75732F2050524F544F434F4C5F560D
:1009D000455253494F4E3A312E30204D41434849FC
:1009E0004E455F545950453A5072757361206933D2
:1009F000204D4B332045585452554445525F434F88
:100A0000554E543A3120555549443A303030303003
:100A10003030302D303030302D303030302D3030DF
:100A200030302D3030303030303030303030300AEF
:100A3000004F666600456E642066696C65206C69CF
:100A4000737400426567696E2066696C65206C6925
:100A50007374004E6F206D6F76652E004F626E6F5F
:100A600076656E69207469736B7500526573756D78
:100A7000696E67207072696E7400576169742066D0
:100A80006F7220757365722E2E2E004B616C696239
:100A900072616365205A2073656C68616C612E20F9
:100AA00053656E736F72207365706E756C20707213
:100AB000696C6973207679736F6B6F2E2043656B59
:100AC000616D206E612072657365742E00426564ED
:100AD000206C6576656C696E67206661696C65641B
:100AE0002E2053656E736F7220747269676765722A
:100AF000656420746F6F20686967682E205761698C
:100B000074696E6720666F722072657365742E005B
:100B10004B616C696272616365205A2073656C6811
:100B2000616C612E2053656E736F72206A65206F51
:100B300064706F6A656E79206E65626F2070726591
:100B4000727573656E79206B6162656C2E204365EA
:100B50006B616D206E612072657365742E00426555
:100B600064206C6576656C696E67206661696C658A
:100B7000642E2053656E736F7220646973636F6EA9
:100B80006E6563746564206F72206361626C6520BA
:100B900062726F6B656E2E2057616974696E672093
:100BA000666F722072657365742E004B616C6962AA
:100BB00072616365205A2073656C68616C612E20D8
:100BC00053656E736F72206E657365706E756C2EF3
:100BD000205A6E6563697374656E612074727973EF
:100BE0006B613F2043656B616D206E6120726573A0
:100BF00065742E00426564206C6576656C696E676D
:100C0000206661696C65642E2053656E736F722077
:100C10006469646E7420747269676765722E20441B
:100C20006562726973206F6E206E6F7A7A6C653FB1
:100C30002057616974696E6720666F7220726573F0
:100C400065742E005465706C6F746E69206B616CF6
:100C500069627261636520646F6B6F6E63656E615C
:100C60002E20506F6B726163756A746520737469AE
:100C7000736B656D20746C616369746B612E0054D5
:100C8000656D70657261747572652063616C69620F
:100C9000726174696F6E2069732066696E6973682A
:100CA00065642E20436C69636B20746F20636F6EE4
:100CB00074696E75652E004F64737472616E74652D
:100CC000207469736B6F767920706C6174207A2060
:100CD000686561746265642070726F73696D2E005F
:100CE000506C656173652072656D6F7665207374F5
:100CF00065656C2073686565742066726F6D206829
:100D00006561746265642E00537461626C65206174
:100D10006D6269656E742074656D7065726174755D
:100D200072652032312D323643206973206E65653D
:100D30006465642061207269676964207374616E00
:100D4000642069732072657175697265642E005341
:100D50006C6565702E2E2E0043524153485F5245FC
:100D6000434F564552004732382058205900360527
:100D700025050A002F0046050A002E0044656C6513
:100D800074696F6E206661696C65642C2046696CBD
:100D9000653A200046696C652064656C657465641D
:100DA0003A002E0020573A0020453A00543A006D90
:100DB0000558050098057D05504944204175746F1C
:100DC00074756E652066696E69736865642120506C
:100DD000757420746865206C617374204B702C20CE
:100DE0004B6920616E64204B6420636F6E73746185
:100DF0006E74732066726F6D2061626F7665206914
:100E00006E746F20436F6E66696775726174696F87
:100E10006E2E6800504944204175746F74756E657C
:100E2000206661696C6564212074696D656F7574F5
:100E30000020403A00543A00423A005049442041D0
:100E400075746F74756E65206661696C65642120C8
:100E500054656D706572617475726520746F6F2072
:100E60006869676800204B643A2000204B693A208B
:100E700000204B703A200020436C6173736963203B
:100E800050494420002054753A2000204B753A20E8
:100E900000206D61783A2000206D696E3A200020B4
:100EA000643A200020626961733A200053657474CB
:100EB000696E67732053746F7265640046696C6174
:100EC0006D656E742073657474696E67733A20443F
:100ED000697361626C6564002020204D32303020DF
:100EE000440046696C616D656E7420736574746945
:100EF0006E67733A002020204D3230392053004174
:100F000075746F2D526574726163743A20533D306D
:100F100020746F2064697361626C652C20312074C9
:100F20006F20696E74657270726574206578747272
:100F30007564652D6F6E6C79206D6F7665732061B9
:100F400073207265747261637473206F72207265AE
:100F5000636F766572696573002046002020204D1E
:100F60003230382053005265636F7665723A2053F1
:100F70003D4578747261206C656E67746820286DD9
:100F80006D2920463A537065656420286D6D2F6D7C
:100F90002900205A002046002020204D32303720E2
:100FA0005300526574726163743A20533D4C656E10
:100FB00067746820286D6D2920463A537065656412
:100FC00020286D6D2F6D29205A3A205A4C6966747D
:100FD00020286D6D29002044002049002020204D4C
:100FE0003330342050005049442068656174626594
:100FF000642073657474696E67733A00204400203E
:1010000049002020204D33303120500050494420E9
:1010100073657474696E67733A00205A0020590032
:1010200020204D323036205800486F6D65206F66A5
:101030006673657420286D6D293A00204500205A9A
:101040000020590020580020420020540020204D4C
:10105000323035205300416476616E6365642076DA
:1010600061726961626C65733A20533D4D696E200F
:10107000666565647261746520286D6D2F73292C17
:1010800020543D4D696E2074726176656C206665F2
:1010900065647261746520286D6D2F73292C204260
:1010A0003D6D696E696D756D207365676D656E74F4
:1010B0002074696D6520286D73292C20583D6D6161
:1010C00078696D756D205859206A65726B20286D9E
:1010D0006D2F73292C20205A3D6D6178696D756DD7
:1010E000205A206A65726B20286D6D2F73292C2081
:1010F00020453D6D6178696D756D2045206A65728A
:101100006B20286D6D2F73290020540020204D3254
:101110003034205300416363656C65726174696F9C
:101120006E3A20533D616363656C65726174696FEB
:101130006E2C20543D726574726163742061636328
:10114000656C65726174696F6E00204500205A00FD
:1011500020590020204D3230312058004D617869EF
:101160006D756D20416363656C65726174696F6E46
:1011700020286D6D2F7332293A00204500205A0037
:1011800020590020204D3230332058004D617869BD
:101190006D756D2066656564726174657320286D78
:1011A0006D2F73293A00204500205A002059002055
:1011B000204D393220580053746570732070657269
:1011C00020756E69743A00CD05B805F005E005118B
:1011D0000600063606230655064A06760668069376
:1011E000068406416476616E6365204B3D004B20AA
:1011F0006F7574206F6620616C6C6F776564207208
:10120000616E67652100746D63323133305F7072D7
:10121000696E745F63757272656E747328290A094A
:101220004809520A580925640925640A59092564A0
:101230000925640A5A0925640925640A45092564B3
:101240000925640A00A306BE06AC0622283229003E
:10125000CF06E1065400496E76616C696420542023
:10126000636F64652E00556E6B6E6F776E204D2038
:10127000636F64653A202573200A004D32323020B6
:10128000532569002707F20678075707BA0798071A
:10129000F107DF073908040895086408203A2000A0
:1012A00000BE084C414E472053454C20464F524308
:1012B0004544002228312900C708DA08F108F90856
:1012C00001090909110919091E09280930092045D0
:1012D0003A00205A3A0020593A00490920453A007C
:1012E000205A3A0020593A00583A0054094D3131F9
:1012F000332053002E002000310A6E6F2076616C7F
:10130000696420636F6D6D616E64002C20002C2079
:10131000002C20006E2F61002C20002C20002C209F
:10132000006E2F61002F00503A00576169742066EB
:101330006F722050494E4441207461726765742079
:1013400074656D70657261747572653A0020423A19
:101350000020453A00543A0020413A0020503A001B
:101360002042403A0020403A00202F003A0020540A
:1013700000202F0020423A00202F006F6B20543AAB
:10138000002569206D696E2C202569207365630036
:10139000350A430A530A6B0A5C0A7A0A496E766177
:1013A0006C6964204D20636F64653A202573200AC0
:1013B00000556E6B6E6F776E204720636F64653AE1
:1013C000202573200A004D65736820626564206CD7
:1013D0006576656C696E67206E6F742061637469F1
:1013E00076652E000A002020000A4D656173757233
:1013F000656420706F696E74733A000A5A207365D1
:1014000061726368206865696768743A20002C001F
:101410004E756D20582C593A2000206D6963726F0B
:101420006E730045786365737369766520626564E1
:10143000206C6576656C696E6720636F7272656398
:1014400074696F6E3A2000CD0A8B0A5E0B100BF4A4
:101450000BAB0B473238205730003A20007F0C444A
:101460000C54656D70657261747572652063616C92
:101470006962726174696F6E20646F6E652E2043BD
:101480006F6E74696E756520776974682070726517
:101490007373696E6720746865206B6E6F622E00CF
:1014A00000205A20736869667420286D6D293A00FF
:1014B00050494E44412074656D7065726174757257
:1014C000653A2000002F3600537465703A20000002
:1014D000205A20736869667420286D6D293A00507F
:1014E000494E44412074656D706572617475726512
:1014F0003A20002F362028736B69707065642900CC
:10150000537465703A2000005A45524F3A2000004B
:1015100073746172742074656D7065726174757234
:10152000653A200050494E44412070726F62652038
:1015300063616C6962726174696F6E207374617249
:101540007400E00CB70C080D473238205730000A01
:1015500000205A3A200020593A200020583A200012
:101560004F0D207A203900206F662039004D6572BA
:10157000696D207265666572656E636E6920767945
:10158000736B75206B616C69627261636E69686F01
:1015900020626F6475004D6561737572696E6720B6
:1015A0007265666572656E636520686569676874F3
:1015B000206F662063616C6962726174696F6E206E
:1015C000706F696E740020746F6F206C6F6E67208F
:1015D000657874727573696F6E2070726576656E6A
:1015E0007465640020636F6C642065787472757331
:1015F000696F6E2070726576656E746564004578FB
:1016000072656D65207370616E206F662074686509
:10161000205A2076616C756573210000004041FFFF
:10162000FFBF400000E442FFFFBF4000005743FF00
:10163000FFBF40000057430000CC420000E44200DE
:1016400000CC42000040410000CC4200004041007C
:101650000046430000E442000046430000574300B8
:101660000046436715621596156D15062833D0366A
:10167000C23E013F154132423B43F2443B45F246F4
:1016800022473B48F2493B4AF05898590C5A085BAC
:101690000C5C086110679B6E2271077208FF095A83
:1016A0000D000EFF19045E0820642B6D322FFFC65B
:1016B00015E4155072757361206933204D4B33204A
:1016C0006F6B005072757361206933204D4B33206E
:1016D00072656164792E00446574656B6F76616E26
:1016E000207679706164656B2070726F7564752EF9
:1016F0004F626E6F766974207469736B3F00426C41
:1017000061636B6F7574206F636375727265642EAD
:10171000205265636F766572207072696E743F0047
:1017200050726F206B616C696272616369207072C4
:1017300065736E65686F207265686F6D6F76616E38
:10174000692062756465206E796E692073707573A7
:1017500074656E2073656C66746573742E005365D2
:101760006C66746573742077696C6C206265207296
:10177000756E20746F2063616C696272617465209C
:1017800061636375726174652073656E736F726CEB
:10179000657373207265686F6D696E672E004E65A4
:1017A0006E69207A6B616C6962726F76616E61201E
:1017B000767A64616C656E6F737420747279736B82
:1017C00079206F64207469736B6F766520706F6425
:1017D0006C6F7A6B792E20506F73747570756A74A4
:1017E000652070726F73696D20706F646C65206D19
:1017F000616E75616C752C206B617069746F6C61C2
:10180000205A6163696E616D652C206F6473746129
:10181000766563204E6173746176656E69207072BF
:10182000766E69207672737476792E0044697374CB
:10183000616E6365206265747765656E207469709A
:10184000206F6620746865206E6F7A7A6C652061FF
:101850006E642074686520626564207375726661C9
:10186000636520686173206E6F74206265656E2009
:10187000736574207965742E20506C6561736520E2
:10188000666F6C6C6F7720746865206D616E756132
:101890006C2C206368617074657220466972737481
:1018A0002073746570732C2073656374696F6E2088
:1018B0004669727374206C617965722063616C692A
:1018C00062726174696F6E2E005469736B61726E1F
:1018D00061206E6562796C61206A65737465207A37
:1018E0006B616C6962726F76616E612E20506F73EE
:1018F000747570756A74652070726F73696D20708D
:101900006F646C65206D616E75616C752C206B6108
:101910007069746F6C61205A6163696E616D652CCA
:10192000206F6473746176656320506F7374757093
:10193000206B616C6962726163652E005072696E22
:1019400074657220686173206E6F74206265656EC5
:101950002063616C69627261746564207965742EBC
:1019600020506C6561736520666F6C6C6F772074B6
:101970006865206D616E75616C2C206368617074A0
:1019800065722046697273742073746570732C20BD
:1019900073656374696F6E2043616C696272617410
:1019A000696F6E20666C6F772E004E65706C617487
:1019B0006E6520686F646E6F7479206E61737461F8
:1019C00076656E692E204275646520706F757A6940
:1019D000746F20767963686F7A69205049442C20AF
:1019E000457374657073206174642E004F6C6420BD
:1019F00073657474696E677320666F756E642E20EC
:101A000044656661756C74205049442C204573749C
:101A1000657073206574632E2077696C6C20626535
:101A2000207365742E002020506C616E6E657242CA
:101A3000756666657242797465733A200020467255
:101A40006565204D656D6F72793A2000207C2041DC
:101A50007574686F723A2000204C61737420557061
:101A600064617465643A200020536F667477617214
:101A70006520526573657400205761746368646FF4
:101A800067205265736574002042726F776E206F15
:101A90007574205265736574002045787465726EA4
:101AA000616C20526573657400506F776572557074
:101AB000006572726F722077726974696E67207444
:101AC0006F2066696C6500656E6473746F70732057
:101AD0006869743A2000446F6E6520736176696EA0
:101AE000672066696C652E006F6B00202D20496EA3
:101AF00076616C6964206578747275646572206EB5
:101B0000756D6265722021001B5B324A1B5B313BA5
:101B100031484F726967696E616C205072757361EC
:101B20002069331B5B323B3348507275736120521E
:101B30006573656172636800466163746F727920D2
:101B4000524553455400C316B316FE16D7165E17FA
:101B500020172C189E173C19C918EC19AA19261A17
:101B60003D1A4D6172203131203230313800436FDF
:101B70006D70696C65643A2000286E6F6E652C206C
:101B800064656661756C7420636F6E6669672900B1
:101B90004C1A4D61722031312032303138203138C9
:101BA0003A31363A313600581A681A781A881A9932
:101BB0001AA91A20332E312E332D5243312D3234AF
:101BC000330A007374617274002055706C6F616425
:101BD00020696E2070726F677265737300B11A5A54
:101BE00000205A3A00590020593A00580020583A2B
:101BF00000C71A4D36303000473120453320463279
:101C0000303000473120452D3320463230300043FC
:101C1000524153485F444554454354454458590044
:101C200043524153485F4445544543544544590049
:101C300043524153485F444554454354454458003A
:101C4000D61AE81A4D3239004B494C4C45442E20E7
:101C5000005072696E7465722068616C7465642EE0
:101C6000206B696C6C28292063616C6C65642100B1
:101C70004D32323120496E76616C6964206578742A
:101C8000727564657220004D32313820496E76617C
:101C90006C696420657874727564657220004D31DA
:101CA000303920496E76616C69642065787472758C
:101CB00064657220004D31303520496E76616C6963
:101CC0006420657874727564657220004D3130341B
:101CD00020496E76616C69642065787472756465FC
:101CE0007220004F626E6F766F76616E6920746944
:101CF000736B7520202020005265636F76657269D2
:101D00006E67207072696E7420202020004D37307D
:101D10003100481C511C4B494C4C3A2000701C8728
:101D20001C9E1CB51CCC1C5A206C69766520616415
:101D30006A757374206F7574206F662072616E67A8
:101D4000652E2053657474696E6720746F20302E81
:101D500020436C69636B20746F20636F6E74696ECF
:101D600075652E005A206C6976652061646A75730A
:101D700074206F7574206F662072616E67652E2007
:101D800053657474696E6720746F20300020423A86
:101D90000020453A00543A0055564C4F202D2065FE
:101DA0006E64007374707300494E54340029002C23
:101DB00020002C2000776F726C6420636F6F726458
:101DC000696E617465733A20280029002C20002C6C
:101DD0002000706879736963616C20636F6F72644F
:101DE000696E617465733A2028007265636F766569
:101DF000725F6D616368696E655F73746174655F5E
:101E000061667465725F706F7765725F70616E692D
:101E1000632C20696E697469616C20007265636F60
:101E20007665725F6D616368696E655F7374617416
:101E3000655F61667465725F706F7765725F706110
:101E40006E69632C20696E697469616C2000473982
:101E5000322045004D3234004D32362053256C750A
:101E6000004D3130362053004D3832004731204686
:101E700025640047312045322A312046343830006D
:101E80004731205A00204632303030002059004778
:101E9000312058004D383300506F736974696F6E8C
:101EA00020726561642066726F6D20656570726F67
:101EB0006D3A004D3233202573002E67636F004664
:101EC000656564726174653A0063757272656E74FB
:101ED0005F706F736974696F6E5B455F41584953FA
:101EE0005D3A0063757272656E745F706F736974CA
:101EF000696F6E5B5A5F415849535D3A0043757292
:101F000072656E7420706F736974696F6E20595FAB
:101F1000415849533A0043757272656E7420706F70
:101F2000736974696F6E20585F415849533A004194
:101F3000667465722077616974696E6720666F7276
:101F40002074656D703A00473120452D31204634AC
:101F500038300047312045352046313230004D3889
:101F600033004D31393020532564004D3130392054
:101F70005325640047323820582059004731205AF1
:101F800032352046383030004D313430205325640E
:101F9000004D3130342053256400F81CE31C656E7D
:101FA000717565696E67202200446F6E65207072DE
:101FB000696E74696E672066696C650053544F5092
:101FC0005045442E20005072696E746572207374FF
:101FD0006F707065642064756520746F206572721F
:101FE0006F72732E2046697820746865206572725E
:101FF0006F7220616E6420757365204D3939392008
:10200000746F20726573746172742E202854656D2C
:10201000706572617475726520697320726573658D
:10202000742E205365742069742061667465722073
:1020300072657374617274696E6729004E6F204C0B
:10204000696E65204E756D626572207769746820CF
:10205000636865636B73756D2C204C617374204CE1
:10206000696E653A20004E6F20436865636B737537
:102070006D2077697468206C696E65206E756D627D
:1020800065722C204C617374204C696E653A200097
:10209000636865636B73756D206D69736D617463DF
:1020A000682C204C617374204C696E653A20004C9A
:1020B000696E65204E756D626572206973206E6F62
:1020C00074204C617374204C696E65204E756D628E
:1020D00065722B312C204C617374204C696E653A0B
:1020E000200022206661696C65643A20427566664C
:1020F00065722066756C6C210022009E1F25692088
:10210000686F757273202569206D696E75746573CB
:1021100000A91F54494D454F55543A00BC1FC61FD6
:102120003C2066209020AF204D3131300046756C48
:102130006C20525820427566666572004E61687266
:102140006976616E692050494E44410050494E44C1
:10215000412048656174696E67005465706C2E207B
:102160006B616C2E20202020202020202020005475
:10217000656D702E2063616C2E2020202020202091
:10218000202020004B616C696272616365204F4BB7
:102190000043616C6962726174696F6E20646F6E76
:1021A00065004B616C696272756A69205A0043610F
:1021B0006C6962726174696E67205A0042656420BE
:1021C0004F4B2E0042656420646F6E65005A616853
:1021D000726976616E6920626564004265642048B8
:1021E000656174696E67005A6168726976616E69CB
:1021F000204F4B2E0048656174696E6720646F6ED6
:10220000652E005A6168726976616E690048656181
:1022100074696E67005072696E74657220646973C8
:10222000636F6E6E656374656400726573756C745C
:102230002076616C75653A2025640A0020693D2589
:10224000326420636E743D2532642076616C3D25D6
:1022500032640A00636C7573746572733A0A002005
:10226000693D25326420737465703D2532640A002F
:10227000736F727465642073616D706C65733A0A74
:10228000003A20004C213C216F215A2191218421C8
:10229000202020202020202020202020202020203E
:1022A00020202000203A2000AE21A2212020202042
:1022B000202020202020202020202020202020201E
:1022C00000C421BC21DB21CD21F521E7210D220312
:1022D0002220202020202020202020202020002517
:1022E00073002020002D2D3A2D2D002000200020ED
:1022F000004C002020002046002D2D2D003E55537F
:1023000042005344002D2D002520202020200020B5
:1023100020002020000120002020202D2D2D200035
:1023200020205A0020200001200015225469736BE0
:102330002E2076656E743A005072696E74204641A4
:102340004E3A2000547279736B2E2076656E743A83
:10235000004E6F7A7A6C652046414E3A005A6368A7
:102360006C6164697400436F6F6C646F776E0054C6
:10237000657A6B65207A6B6F73656E693A00536599
:102380007665726520736B65773A004C65686B659E
:10239000207A6B6F73656E693A00536C6967687475
:1023A00020736B65773A004D6572656E65207A6BB8
:1023B0006F73656E693A004D65617375726564206F
:1023C000736B65773A0050726176793A00526967AB
:1023D00068743A004C6576793A004C6566743A0048
:1023E0005920767A64616C656E6F7374206F642017
:1023F0006D696E3A00592064697374616E6365207B
:1024000066726F6D206D696E3A004E617065746919
:1024100000566F6C7461676573005465706C6F74FF
:10242000790054656D7065726174757265730053DF
:102430007461762072656D656E750042656C7420FE
:102440007374617475730045787472756465722075
:10245000696E666F0044657461696C792058595AD9
:10246000206B616C2E0058595A2063616C2E2064D9
:10247000657461696C7300446174756D3A00446100
:1024800074653A00686F77746F2E7072757361337C
:10249000642E637A00686F77746F2E707275736143
:1024A00033642E636F6D00666F72756D2E7072757A
:1024B000736133642E637A00666F72756D2E70726D
:1024C00075736133642E636F6D0070727573613361
:1024D000642E637A00707275736133642E636F6D5E
:1024E0000038232C23512344231B5B303B304854BA
:1024F0006F74616C206661696C757265731B5B310A
:102500003B3148506F776572206661696C75726502
:10251000732020252D33641B5B323B314846696CA8
:10252000616D2E2072756E6F7574732020252D33AA
:10253000641B5B333B314843726173682020582031
:10254000252D336420205920252D3364001B5B305A
:102550003B30484C617374207072696E7420666100
:10256000696C757265731B5B313B3148506F7765E1
:1025700072206661696C757265732020252D336445
:102580001B5B323B314846696C616D2E2072756E63
:102590006F7574732020252D33641B5B333B3148EA
:1025A000437261736820205820252D336420205900
:1025B00020252D336400546F74616C004C6173747A
:1025C000207072696E74001B5B323B3148416D6252
:1025D00069656E743A2020256425631B5B333B31AB
:1025E0004850494E44413A2020202025642563006C
:1025F0001B5B303B31484E6F7A7A6C653A20202065
:10260000256425631B5B313B31484265643A2020D9
:102610002020202025642563001B5B313B3148507E
:1026200057523A20202020202025642E2530316466
:1026300056001B5B303B314842656C7420737461FB
:102640007475731B5B313B3248582025641B5B3229
:102650003B3248592025640066235D23464C45588B
:10266000202D20203234302F3530005050202020B3
:102670002D20203235342F3130300048495053203E
:102680002D20203232302F31303000414253202073
:102690002D20203235352F31303000504554202048
:1026A0002D20203233302F383500504C4120202D42
:1026B00020203231352F3630006661726D20202D9A
:1026C00020203235302F343000007E236F23009AD3
:1026D000238B232D2D2D2D2D2D2D2D2D2D2D2D2DE0
:1026E0002D2D2D2D2D2D2D004E2F4100B723A7234D
:1026F0004E2F41006D6D0000CD23C623DA23D42375
:10270000F523E02311240A2422241A243B242F2415
:102710004724662455242D2D2D2D2D2D2D2D2D2D89
:102720002D2D00466C61736841697220495020412B
:102730006464723A002D2D2D2D2D2D2D2D2D2D2D36
:102740002D004D61722031312032303138007E242D
:1027500077242D2D2D2D2D2D2D2D2D2D2D2D00457D
:102760003344763666756C6C0045494E595F30349B
:102770006100315F37356D6D5F4D4B33002D2D2D71
:102780002D2D2D2D2D2D2D2D2D0095248424B82477
:10279000A724D524CA24207265706F2050727573E7
:1027A0006133442F4D4B330020332E312E332D52C5
:1027B00043312D323433004669726D776172653A68
:1027C0000025642E25642E25642E2564005469732B
:1027D0006B20707265727573656E005072696E74ED
:1027E0002061626F72746564005A61737461766906
:1027F00074207469736B0053746F70207072696E0B
:102800007400536F75626F72206E656B6F6D706CC4
:1028100065746E692E20506F6B7261636F766174A0
:102820003F0046696C6520696E636F6D706C6574FE
:10283000652E20436F6E74696E756520616E7977C1
:1028400061793F005469736B207A205344005072C1
:10285000696E742066726F6D20534400486C617617
:102860006E69206E616269646B61004D61696E0022
:1028700043656B616E69206E61207A63686C616488
:102880006E75746920747279736B79206120706F32
:10289000646C6F7A6B792E0057616974696E67207A
:1028A000666F72206E6F7A7A6C6520616E6420624A
:1028B000656420636F6F6C696E670053656C66209A
:1028C00074657374204F4B0053656C662074657398
:1028D00074207374617274202000DB27CD27F727E2
:1028E000E9274D323400222802284D323320257347
:1028F000004E284428052E2E006B285C289828704E
:1029000028BB284D3834004731205A313520463114
:1029100030303000473238205700C828417869737A
:10292000206C656E67746820646966666572656EA2
:1029300063653A004D6561737572656420617869FD
:1029400073206C656E6774683A00256320415849AE
:1029500053205347313D25640A00506F757A652036
:10296000616B7475616C6E690043757272656E742B
:1029700000506F757A69746520626568656D2074B2
:1029800069736B75005573656420647572696E6751
:10299000207072696E740056736500416C6C005053
:1029A0004944206B616C2E20756B6F6E63656E61A0
:1029B000005049442063616C2E2066696E6973681B
:1029C000656400504944206B616C2E20202020203B
:1029D000202020202020005049442063616C2E20BC
:1029E00020202020202020202020004D31313720A1
:1029F0004B616C2E207072766E69207672737476DD
:102A000079004D313137204669727374206C6179D9
:102A100065722063616C2E004F626E6F766F766117
:102A20006E69207469736B7500526573756D696E9C
:102A300067207072696E74005469736B20706F7ACE
:102A40006173746176656E005072696E7420706196
:102A5000757365640069295A29852971299B29970D
:102A600029496E76616C6964205049442063616C29
:102A70002E20726573756C74732E204E6F742073E4
:102A8000746F72656420746F20454550524F4D2E0F
:102A9000004D35303000B1299F29D729C32947314E
:102AA000205A313520463135303000473931004722
:102AB00031205835302059313930204530204637C3
:102AC00030303000473930004D373032004D37302C
:102AD000322043004D3730322055004D3730320020
:102AE0004731205A313520463135303000473931B1
:102AF00000473120583530205931393020453020B9
:102B00004637303030004D383300473930004D38CB
:102B100034004D313034205330004D3834004731CB
:102B20002058313020593138302046343030300090
:102B30004731205A31302046313330302E3030305A
:102B4000004D313430205330004D3130342053307B
:102B5000004D31303700473120452D302E3037358C
:102B600030302046323130302E3030303030004777
:102B70003120583530205935352045332E363237FF
:102B80003733004731205832303020593535204511
:102B9000302E343933383600473120583230302027
:102BA0005937352045332E363237373300473120F9
:102BB000583530205937352045302E3439333836A2
:102BC00000473120583530205939352045332E36CD
:102BD00032373733004731205832303020593935B9
:102BE0002045302E343933383600473120583230C2
:102BF0003020593131352045332E363237373300C6
:102C000047312058353020593131352045302E3468
:102C10003933383600473120583530205931333573
:102C20002045332E36323737330047312058323083
:102C30003020593133352045302E36363137340087
:102C40004731205832303020593135352045322E29
:102C50003632373733004731205831303020593140
:102C60003535204532004731205837352059313528
:102C7000352045322E35004731204631303830007E
:102C800047312058353020593135350047312046FD
:102C900034303030004D3230342053313030300059
:102CA0004731205A302E3135302046373230302EE1
:102CB00030303000473120452D312E353030303026
:102CC0002046323130302E3030303030004D383305
:102CD0000047393000473231004739322045302E25
:102CE0003000473120583130302E30204531322EDF
:102CF000352046313030302E3000473120583630C4
:102D00002E302045392E302046313030302E3000E4
:102D10004739322045302E300047323800473837A7
:102D200000022AEB294D3130392053323135004D24
:102D300031393020533630004D3134302053363065
:102D4000004D3130342053323135004D31303700B1
:102D5000292A182A473930004731204531004D389B
:102D600032004731204531004D3833004D31303687
:102D700020532564004D3232302053256400482A08
:102D8000382A4B616C696272756A69205A00436126
:102D90006C6962726174696E67205A004974657269
:102DA0006163652000497465726174696F6E20000B
:102DB000207A203400206F662034005A6C657073CE
:102DC000756A6920707265736E6F7374206B616CC5
:102DD00069627261636E69686F20626F6475004931
:102DE0006D70726F76696E67206265642063616CD6
:102DF0006962726174696F6E20706F696E74004BE6
:102E0000616C6962726163652058595A207620703E
:102E10006F7261646B752E205A6B6F73656E6920DB
:102E200062756465206175746F6D617469636B7937
:102E3000207679726F766E616E6F20707269207481
:102E400069736B752E0058595A2063616C69627200
:102E50006174696F6E20616C6C2072696768742E92
:102E600020536B65772077696C6C20626520636FF7
:102E700072726563746564206175746F6D617469E5
:102E800063616C6C792E004B616C69627261636581
:102E90002058595A207620706F7261646B752E200D
:102EA000582F59206F7379206D69726E65207A6B87
:102EB0006F73656E652E20446F627261207072615F
:102EC0006365210058595A2063616C6962726174AC
:102ED000696F6E20616C6C2072696768742E20586F
:102EE0002F5920617865732061726520736C696762
:102EF00068746C7920736B657765642E20476F6FFB
:102F000064206A6F6221004B616C69627261636563
:102F10002058595A207620706F7261646B752E208C
:102F2000582F59206F7379206A736F75206B6F6CFF
:102F30006D652E2047726174756C756A6921005841
:102F4000595A2063616C6962726174696F6E206F97
:102F50006B2E20582F59206178657320617265208F
:102F600070657270656E646963756C61722E204362
:102F70006F6E67726174756C6174696F6E73210036
:102F80004B616C6962726163652058595A206E65A5
:102F9000707265736E612E204C6576792070726553
:102FA000646E6920626F64206D6F63207670726555
:102FB00064752E0058595A2063616C69627261749D
:102FC000696F6E20636F6D70726F6D697365642ECB
:102FD000204C6566742066726F6E742063616C6944
:102FE00062726174696F6E20706F696E74206E6FAB
:102FF0007420726561636861626C652E004B616C60
:103000006962726163652058595A206E65707265F5
:10301000736E612E20507265646E69206B616C69FD
:10302000627261636E6920626F6479206D6F6320E4
:103030007670726564752E0058595A2063616C6908
:1030400062726174696F6E20636F6D70726F6D690B
:103050007365642E2046726F6E742063616C6962C2
:10306000726174696F6E20706F696E7473206E6F19
:103070007420726561636861626C652E004B616CDF
:103080006962726163652058595A2073656C686182
:103090006C612E204C65767920707265646E6920B3
:1030A000626F64206D6F63207670726564752E2088
:1030B00053726F766E656A7465207469736B6172A2
:1030C0006E752E0058595A2063616C696272617482
:1030D000696F6E206661696C65642E204C6566744C
:1030E0002066726F6E742063616C696272617469CC
:1030F0006F6E20706F696E74206E6F7420726561E0
:10310000636861626C652E004B616C696272616319
:10311000652058595A2073656C68616C612E205087
:103120007265646E69206B616C69627261636E695D
:1031300020626F6479206D6F6320767072656475AC
:103140002E2053726F766E656A7465207469736B96
:1031500061726E752E0058595A2063616C696272F3
:103160006174696F6E206661696C65642E204672B9
:103170006F6E742063616C6962726174696F6E2036
:10318000706F696E7473206E6F742072656163680E
:1031900061626C652E004B616C69627261636520CF
:1031A00058595A2073656C68616C612E204E6168B5
:1031B0006C65646E65746520646F206D616E756109
:1031C0006C752E0058595A2063616C696272617483
:1031D000696F6E206661696C65642E20506C656154
:1031E000736520636F6E73756C7420746865206DF1
:1031F000616E75616C2E004B616C69627261636512
:103200002058595A2073656C68616C612E204B619F
:103210006C69627261636E6920626F6420706F64B2
:103220006C6F7A6B79206E656E616C657A656E2E57
:103230000058595A2063616C6962726174696F6EDB
:10324000206661696C65642E204265642063616C50
:103250006962726174696F6E20706F696E74207735
:103260006173206E6F7420666F756E642E00207A15
:10327000203400206F66203400486C6564616D2046
:103280006B616C69627261636E6920626F64207049
:103290006F646C6F7A6B7900536561726368696EF5
:1032A00067206265642063616C6962726174696F32
:1032B0006E20706F696E7400556D69737465746506
:1032C000206C69737420706170697275206E612062
:1032D000706F646C6F7A6B752061207564727A759B
:1032E0006A7465206A656A20706F642074727973ED
:1032F0006B6F7520626568656D206D6572656E69BE
:10330000207072766E696368203420626F64752E57
:1033100020506F6B756420747279736B61207A61D1
:1033200063687974692070617069722C2076797095
:103330006E657465207469736B61726E752E0050D2
:103340006C6163652061207368656574206F662019
:10335000706170657220756E646572207468652096
:103360006E6F7A7A6C6520647572696E6720746816
:10337000652063616C6962726174696F6E206F664B
:10338000206669727374203420706F696E74732EB6
:1033900020496620746865206E6F7A7A6C652063B8
:1033A000617463686573207468652070617065720C
:1033B0002C20706F776572206F66662074686520B8
:1033C0007072696E74657220696D6D65646961748F
:1033D000656C792E0050726F2075737065736E6F17
:1033E00075206B616C696272616369206F636973D8
:1033F000746574652070726F73696D207469736B86
:103400006F766F7520747279736B752E20506F74A0
:10341000767264746520746C616369746B656D2E7B
:1034200000506C6561736520636C65616E20746823
:1034300065206E6F7A7A6C6520666F722063616CAE
:103440006962726174696F6E2E20436C69636B20D0
:103450007768656E20646F6E652E0000007F430004
:103460000056439AD95143FFFFFF8E2D822D203CF9
:1034700020005741524E494E473A2046726F6E74B3
:1034800020706F696E74206E6F742072656163685E
:1034900061626C652E205920636F6F7264696E6182
:1034A00074653A0000A52D9C2D497465726174699C
:1034B0006F6E3A200043616C63756C6174696F6E66
:1034C000206F6620746865206D616368696E652091
:1034D000736B657720616E64206F66667365742018
:1034E0006661696C65642E00B52DB02DDF2DBB2D96
:1034F000462EFF2DC42E872E3F2F072FB42F802F4F
:103500003830FD2FC4307D3056310831C43196310A
:103510003132F73143616C6962726174696F6E2098
:103520006661696C65642120436865636B2074681B
:1035300065206178657320616E642072756E20610C
:103540006761696E2E0073326E32983279323F3382
:10355000B8322134D53341646A757374696E67205B
:103560005A00526573657400567A61647520205B59
:10357000756D5D00526561722073696465205B75CD
:103580006D5D00567072656475205B756D5D0046FB
:10359000726F6E7420736964655B756D5D00567043
:1035A0007261766F205B756D5D005269676874208B
:1035B000736964655B756D5D00566C65766F202080
:1035C0005B756D5D004C6566742073696465205B96
:1035D000756D5D004E6173746176746520746570FD
:1035E0006C6F74753A005365742074656D70657204
:1035F00061747572653A005A0056356235743568E3
:10360000358F358335AA359E35C535B935E635D480
:103610003520003E003E0020003E003E005A3000B3
:103620005A310059300059310058300058310045A6
:103630006E642073746F70732064696167004E65F7
:10364000746F6369207365004E6F74207370696EC8
:103650006E696E6700546F6369207365005370690B
:103660006E6E696E67004C6576792076656E7420A3
:103670006E61207472797363653F004C65667420D7
:10368000686F74656E642066616E3F005072656499
:103690006E69207469736B6F76792076656E743FFE
:1036A0000046726F6E74207072696E742066616E6F
:1036B0003F00546573742076656E74696C61746F35
:1036C00072750046616E20746573740048363E362C
:1036D0005D3655367B366636A1368C36C336B23605
:1036E0000102102020080810204010204080020114
:1036F00002010804020101020408102040808040F9
:1037000020100804020180040201804020100804F7
:103710000201080402010102040810204080010295
:103720000408102040801008040880102040044045
:1037300080102040048000002200250028002B007B
:103740002E003100340002010000050108010B01C8
:1037500005050505070508080808020202020A0A0D
:10376000080804040404010101010101010103032B
:10377000030303030303040707070C0C0C0C0C0CD6
:103780000C0C0202020206060606060606060B0BD3
:103790000B0B0B0B0B0B07070A0A0A0A0A0A050593
:1037A0000504040408080222206661696C65643A15
:1037B000204275666665722066756C6C2100456EE8
:1037C000717565696E6720746F2074686520667214
:1037D0006F6E743A2022004572726F723A002200B6
:1037E000456E717565696E6720746F207468652019
:1037F00066726F6E743A2022004D3234004D3233BF
:10380000202573006175746F25692E6700457272FB
:103810003A205052494E542046414E204552524F74
:1038200052005072696E742066616E207370656517
:1038300064206973206C6F776572207468656E20F0
:103840006578706563746564004572723A20455806
:1038500054522E2046414E204552524F5200457838
:103860007472756465722066616E2073706565643C
:10387000206973206C6F776572207468656E2065AF
:1038800078706563746564002F2F20616374696FBD
:103890006E3A70617573650070012C01900127010B
:1038A000B0012201C0011D01F00118011002130135
:1038B00030020E016002090190020401C002FF0003
:1038C0000003FA004003F5008003F000D003EB0092
:1038D0002004E6007004E100E004DC004005D700AD
:1038E000C005D2004006CD00D006C8008007C30046
:1038F0003008BE00F008B900C009B400B00AAF003B
:10390000B00BAA00D00CA500000EA000500F9B0029
:10391000C01096005012910000148C00C015870052
:10392000B0178200B0197D00D01B7800001E730014
:1039300040206E0090226900F024640040275F0060
:1039400090295A00E02B5500102E500020304B00DB
:1039500010324600E033410090353C00103737000C
:1039600070383200A0392D00B03A2800A03B230067
:10397000603C1E00103D1900903D1400103E0F00E9
:10398000703E0A00C03E0500003F000090137D001D
:10399000B0157800F0177300601A6E00F01C690013
:1039A000A01F640050225F0020255A00E027550028
:1039B000902A5000202D4B00A02F4600F0314100EE
:1039C00010343C00F0353700A037320020392D008C
:1039D000603A2800703B2300603C1E00203D190027
:1039E000C03D1400403E0F00A03E0A00F03E05001E
:1039F000403F0000703FFBFF903FF6FFB03FF1FFFC
:103A0000C03FECFFD03FE7FFE03FE2FFF03FDDFFCC
:103A1000F03FD8FF20484F54454E4420544845526B
:103A20004D414C2052554E41574159002048454187
:103A30005442454420544845524D414C2052554E25
:103A40004157415900544845524D414C2052554E22
:103A5000415741590042454420544845524D414C3C
:103A60002052554E415741590020544845524D412E
:103A70004C2052554E41574159202820505245481C
:103A800045415420484F54454E4429002054484550
:103A9000524D414C2052554E4157415920282050FB
:103AA0005245484541542048454154424544290027
:103AB00050524548454154204552524F52004245CC
:103AC000442050524548454154204552524F5200DF
:103AD000457874727564657200506F73756E6F759A
:103AE00074205A004D6F7665205A00506F73756EC2
:103AF0006F75742059004D6F7665205900506F73B3
:103B0000756E6F75742058004D6F76652058001BD8
:103B10005B324A437261736820646574656B6365E8
:103B2000206D757A651B5B313B3048627974207A71
:103B300061706E75746120706F757A6520761B5B9D
:103B4000323B30484E6F726D616C206D6F64750052
:103B50001B5B324A437261736820646574656374E9
:103B6000696F6E2063616E1B5B313B30486265207C
:103B70007475726E6564206F6E206F6E6C7920694B
:103B80006E1B5B323B30484E6F726D616C206D6F07
:103B90006465001B5B324A504F5A4F523A1B5B31EF
:103BA0003B3048437261736820646574656B63657C
:103BB0001B5B323B30486465616B7469766F76617C
:103BC0006E612076651B5B333B3048537465616CD6
:103BD0007468206D6F6475001B5B324A5741524E0A
:103BE000494E473A1B5B313B304843726173682052
:103BF000646574656374696F6E1B5B323B30486447
:103C0000697361626C656420696E1B5B333B30488D
:103C1000537465616C7468206D6F646500417574E0
:103C20006F6D617469636B65207A61766164656E3E
:103C3000692066696C616D656E747520646F73745C
:103C400075706E6520706F757A6520707269207A64
:103C500061706E7574656D2066696C616D656E74FA
:103C60002073656E7A6F72752E2E2E004175746FFB
:103C70006C6F6164696E672066696C616D656E74F6
:103C800020617661696C61626C65206F6E6C792071
:103C90007768656E2066696C616D656E742073650A
:103CA0006E736F72206973207475726E6564206F15
:103CB0006E2E2E2E0043485942413A2046696C61CF
:103CC0006D656E742073656E7A6F72206E657265B5
:103CD0006167756A652C207A6B6F6E74726F6C7594
:103CE0006A7465207A61706F6A656E692E0045524C
:103CF000524F523A2046696C616D656E742073654F
:103D00006E736F72206973206E6F742072657370AA
:103D10006F6E64696E672C20706C656173652063DB
:103D20006865636B20636F6E6E656374696F6E2E7A
:103D3000005A6B616C6962726F7661740043616CEA
:103D4000696272617465004E656A647269766520A5
:103D50007A61766564746520504C412066696C61B7
:103D60006D656E742070726F73696D2E00506C6596
:103D7000617365206C6F616420504C412066696CF2
:103D8000616D656E742066697273742E004A6520D9
:103D9000504C412066696C616D656E74207A617665
:103DA0006564656E3F00497320504C412066696C24
:103DB000616D656E74206C6F616465643F00507264
:103DC0006F73696D207A61766564746520504C412B
:103DD0002066696C616D656E74206120706F20745F
:103DE00065206F626E6F7674652057697A617264C0
:103DF0006120737469736B6E7574696D207265737D
:103E0000657420746C616369746B612E00506C651D
:103E1000617365206C6F616420504C412066696C51
:103E2000616D656E7420616E64207468656E2072C9
:103E30006573756D652057697A61726420627920B7
:103E40007265626F6F74696E672074686520707246
:103E5000696E7465722E0050726F73696D206E61A9
:103E6000686C65646E65746520646F206D616E7545
:103E7000616C752061206F7072617674652070725C
:103E80006F626C656D2E20506F207465206F626EBE
:103E90006F7674652057697A617264612072656219
:103EA0006F6F746F76616E696D207469736B617288
:103EB0006E792E00506C6561736520636865636B75
:103EC000206F75722068616E64626F6F6B20616E27
:103ED0006420666978207468652070726F626C6512
:103EE0006D2E205468656E20726573756D65207443
:103EF00068652057697A6172642062792072656210
:103F00006F6F74696E6720746865207072696E7473
:103F100065722E00567365206A6520686F746F762F
:103F20006F2E00416C6C20697320646F6E652E20CB
:103F30004861707079207072696E74696E672100D3
:103F400057697A61726461206D757A657465206B5A
:103F500064796B6F6C6976207A6E6F7675207370FA
:103F60007573746974207A206D656E752043616C79
:103F70006962726174696F6E202D3E2057697A61A3
:103F8000726400596F752063616E20616C7761798E
:103F90007320726573756D65207468652057697A42
:103FA0006172642066726F6D2043616C6962726138
:103FB00074696F6E202D3E2057697A6172642E00FD
:103FC00050726F73696D206F6369737465746520D7
:103FD00068656174626564206120737469736B6ED7
:103FE00065746520746C616369746B6F2E00506C2E
:103FF0006561736520636C65616E206865617462DC
:10400000656420616E64207468656E2070726573EB
:104010007320746865206B6E6F622E004368636561
:104020007465206F70616B6F76617420706F736C54
:1040300065646E69206B726F6B206120706F7A6DA2
:10404000656E697420767A64616C656E6F73742036
:104050006D657A6920747279736B6F752061206861
:104060006561746265643F00446F20796F752077E5
:10407000616E7420746F20726570656174206C616C
:104080007374207374657020746F20726561646A44
:104090007573742064697374616E636520626574FE
:1040A0007765656E206E6F7A7A6C6520616E64202C
:1040B000686561746265643F005A61636E7520745F
:1040C00069736B6E6F7574206C696E6B75206120FF
:1040D00056792062756465746520706F73747570AD
:1040E0006E6520736E697A6F76617420747279736D
:1040F0006B75206F746163656E696D20746C6163AC
:1041000069746B6120646F6B7564206E65646F7396
:1041100061686E657465206F7074696D616C6E693D
:10412000207679736B792E2050726F686C65646E9F
:10413000657465207369206F6272617A6B7920768D
:10414000206E617369207072697275636365207691
:10415000206B617069746F6C65204B616C69627271
:1041600061636500492077696C6C207374617274B7
:1041700020746F207072696E74206C696E652061A6
:104180006E6420796F752077696C6C20677261644A
:1041900075616C6C79206C6F77657220746865202E
:1041A0006E6F7A7A6C6520627920726F74617469BF
:1041B0006E6720746865206B6E6F622C20756E745C
:1041C000696C20796F75207265616368206F707407
:1041D000696D616C206865696768742E2043686545
:1041E000636B2074686520706963747572657320F1
:1041F000696E206F75722068616E64626F6F6B20EC
:10420000696E20636861707465722043616C6962D5
:10421000726174696F6E2E004E796E69207A6B61DF
:104220006C696272756A6920767A64616C656E6F1A
:104230007374206D657A69206B6F6E63656D207491
:104240007279736B79206120706F76726368656D27
:104250002068656174626564752E004E6F77204931
:104260002077696C6C2063616C696272617465208F
:1042700064697374616E6365206265747765656EE9
:1042800020746970206F6620746865206E6F7A7A7A
:104290006C6520616E64206865617462656420737A
:1042A0007572666163652E004A6520746F20504CFC
:1042B000412066696C616D656E743F0049732069C9
:1042C0007420504C412066696C616D656E743F00CE
:1042D0005A61766164656E692066696C616D656EB0
:1042E0007475004C6F6164696E672066696C616DFE
:1042F000656E740050726F73696D20766C6F7A749E
:104300006520504C412066696C616D656E74206457
:104310006F206578747275646572752C20706F20DB
:10432000746520737469736B6E65746520746C6159
:104330006369746B6F2070726F207A617665646553
:104340006E692066696C616D656E74752E00506CC7
:104350006561736520696E7365727420504C4120ED
:1043600066696C616D656E7420746F207468652079
:1043700065787472756465722C207468656E20703F
:1043800072657373206B6E6F6220746F206C6F6147
:10439000642069742E005072656465687269766184
:1043A0006D20747279736B752E2050726F73696D06
:1043B0002063656B656A74652E005072656865617F
:1043C00074696E67206E6F7A7A6C652E20506C650A
:1043D00061736520776169742E004E796E69207073
:1043E000726564656872656A6920747279736B7549
:1043F0002070726F20504C412E004E6F7720492064
:1044000077696C6C2070726568656174206E6F7A74
:104410007A6C6520666F7220504C412E004A6520F0
:1044200066696C616D656E74207A61766564656E2F
:104430003F0049732066696C616D656E74206C6F16
:10444000616465643F00556D6973746574652070BF
:10445000726F73696D207469736B6F767920706CFD
:104460006174206E61206865617462656400506CDF
:104470006561736520706C61636520737465656C3C
:10448000207368656574206F6E206865617462656D
:10449000642E004A65207469736B6F767920706CA6
:1044A0006174206E6120686561746265643F0049D3
:1044B0007320737465656C207368656574206F6E16
:1044C00020686561746265643F004E796E69207092
:1044D000726F76656475207A206B616C69627261B7
:1044E00063692E00492077696C6C2072756E207AA2
:1044F0002063616C6962726174696F6E206E6F77A0
:104500002E004E796E692070726F76656475207822
:10451000797A206B616C6962726163692E205A61DD
:104520006265726520746F20707269626C697A6E60
:1045300065203132206D696E2E00492077696C6CE0
:104540002072756E2078797A2063616C696272617D
:1045500074696F6E206E6F772E2049742077696CB6
:104560006C2074616B6520617070726F782E2031E1
:1045700032206D696E732E004E656A647269762012
:10458000706F6D6F63692073656C667465737475A5
:10459000207A6B6F6E746F6C756A69206E656A63E2
:1045A000617374656A736920636879627920767AC9
:1045B0006E696B616A6963692070726920736573E3
:1045C000746176656E69207469736B61726E792EA1
:1045D0000046697273742C20492077696C6C2072D4
:1045E000756E207468652073656C667465737420DD
:1045F000746F20636865636B206D6F737420636FE5
:104600006D6D6F6E20617373656D626C7920707271
:104610006F626C656D732E00446F62727920646501
:104620006E2C206A73656D207661736520746973E2
:104630006B61726E61204F726967696E616C2050A8
:10464000727573612069332E204368636574652039
:104650006162796368205661732070726F76656459
:104660006C61206B616C69627261636E696D207050
:10467000726F636573656D3F0048692C2049206146
:104680006D20796F7572204F726967696E616C2059
:104690005072757361206933207072696E7465722F
:1046A0002E20576F756C6420796F75206C696B656F
:1046B000206D6520746F20677569646520796F755A
:1046C000207468726F7567682074686520736574FC
:1046D00075702070726F636573733F00D03AE43A6F
:1046E000D93AF63AEB3A083BFD3A503B0F3BD83B00
:1046F000933B6C3C1D3CEE3CB53C473830004D34A0
:1047000035205A003D3D313D473736006D3D473D30
:10471000A63D8D3D0D3EBE3DB43E573E233F143F6A
:10472000833F403F53746174653A2000EE3FC03FC1
:1047300068401C406441B9405B421842BC42A842F8
:10474000E342D0424E43F442BA439643FA43DA433B
:1047500032441D446E444644AF449344E444CA4446
:104760003A450245D145784579461846436879620D
:1047700061202D20446F736C6F206B207072657008
:10478000697375207374617469636B652070616D02
:1047900065746921004572726F72202D20737461F7
:1047A000746963206D656D6F727920686173206232
:1047B00065656E206F7665727772697474656E00D8
:1047C0004B617274612076796A6D75746100436122
:1047D00072642072656D6F766564004B61727461FE
:1047E00020766C6F7A656E61004361726420696E39
:1047F0007365727465640095476C47CE47C047E99E
:1048000047DB47505255534133444657000000217F
:1048100000240027002A002D003000330001010091
:1048200000040107010A01000020002300260029DE
:10483000002C002F003200000100000301060109D6
:104840000100000A0B02090C0D0E08070304010009
:104850000000000000000000000000000000000058
:104860000000000000000000000000000012111015
:104870000000000000000000000000000000000038
:104880000000000000000000000000000000000028
:10489000000000000000001000C90210012C0140BF
:1048A00001220170011801B0010E01F00104015054
:1048B00002FA00B002F0003003E600D003DC009002
:1048C00004D2007005C800A006BE000008B400B005
:1048D00009AA00D00BA000600E960060118C0000A9
:1048E00015820020197800C01D6E00A0226400B05F
:1048F000275A00902C500000314600E0343C001054
:10490000383200903A2800603C1E00A03D14008020
:104910003E0A00203F00004572723A204D41585433
:10492000454D50003A204578747275646572207365
:1049300077697463686564206F66662E204D415800
:1049400054454D5020747269676765726564202113
:10495000004572723A204D415854454D5020424511
:10496000440054656D706572617475726520686588
:104970006174656420626564207377697463686537
:1049800064206F66662E204D415854454D5020746A
:1049900072696767657265642021004572723A200A
:1049A0004D494E54454D50204245440054656D706C
:1049B00065726174757265206865617465642062F2
:1049C0006564207377697463686564206F66662E1A
:1049D000204D494E54454D50207472696767657289
:1049E00065642021004572723A204D494E54454D70
:1049F00050003A2045787472756465722073776947
:104A00007463686564206F66662E204D494E544578
:104A10004D50207472696767657265642021004E8D
:104A20004F524D414C00535445414C544800746D15
:104A300063323133305F696E697428292C206D6FC1
:104A400064653D25530A00544D4320445249564560
:104A500052204F56455254454D502000746D6332DC
:104A60003133305F7365745F63757272656E745F46
:104A70006828617869733D25642C206375727265BE
:104A80006E743D25640A00746D63323133305F7398
:104A900065745F63757272656E745F7228617869A0
:104AA000733D25642C2063757272656E743D2564B8
:104AB0000A00537465707261746520746F6F2068AA
:104AC0006967683A2000B24A24F4D43050C38E207B
:104AD000C2A24017828B7011127A910D816CD90A93
:104AE000A861E108C7586607615143061E4B5D0582
:104AF000C145A7041A411104093D980371393103D6
:104B00004036DB0265339102D4305402802E1D0200
:104B1000632CEE01752AC501B028A0011027810180
:104B20008F2564012B244B01E0223401AC211F01AD
:104B30008D200D01801FFC00841EED00971DDF00FD
:104B4000B81CD200E61BC600201BBC00641AB200D1
:104B5000B219A8000A19A0006A189900D11791008B
:104B600040178B00B516840031167E00B31579000E
:104B70003A157300C7146F0058146A00EE136600EC
:104B80008813630025135E00C7125B006C12570088
:104B900015125400C111510070114F0021114B002A
:104BA000D61049008D104700461044000210420004
:104BB000C00F4000800F3E00420F3C00060F3B003C
:104BC000CB0E3800930E37005C0E3500270E3400F4
:104BD000F30D3200C10D3100900D3000600D2E003C
:104BE000320D2D00050D2C00D90C2B00AE0C290028
:104BF000850C29005C0C2700350C27000E0C2600C4
:104C0000E80B2400C40B2400A00B23007D0B230021
:104C10005A0B2100390B2100180B2000F80A1F0045
:104C2000D90A1E00BB0A1E009D0A1D00800A1D0035
:104C3000630A1C00470A1B002C0A1B00110A1A00F9
:104C4000F7091A00DD091900C4091900AB09190098
:104C5000920917007B091800630917004C09160018
:104C600036091600200916000A091500F508150076
:104C7000E0081400CC081400B8081400A4081400BC
:104C8000900813007D0812006B08130058081200EA
:104C90004608120034081100230811001208110000
:104CA00001081100F0071000E0071000D007100005
:104CB000C0071000B0070F00A107100091070E00F9
:104CC00083070F0074070F0065070E0057070E00DB
:104CD00049070E003B070D002E070E0020070D00B0
:104CE00013070D0006070D00F9060C00ED060D0078
:104CF000E0060C00D4060C00C8060C00BC060C0034
:104D0000B0060C00A4060B0099060C008D060B00E3
:104D100082060B0077060B006C060B0061060A008A
:104D200057060B004C060A0042060A0038060A0025
:104D30002E060A0024060A001A060A0010060900B8
:104D400007060A00FD050900F4050900EB05090046
:104D5000E2050900D9050900D0050900C7050900C9
:104D6000BE050900B5050800AD050800A505090048
:104D70009C050800940508008C05080084050800BF
:104D80007C050800740508006C050700650508002F
:104D90005D050700560508004E050700470507009A
:104DA0004005080038050700310507002A050700FF
:104DB000230507001C050600160507000F05070060
:104DC0000805060002050700FB040600F5040700BD
:104DD000EE040600E8040600E2040700DB04060017
:104DE000D5040600CF040600C9040600C30406006B
:104DF000BD040600B7040600B1040500AC040600BB
:104E0000A6040600A00405009B0406009504050006
:104E1000900406008A04050085040500800406004D
:104E20007A04050075040500700405006B04050094
:104E300066040500610405005C04050057040500D4
:104E4000520405004D040500480405004304050014
:104E50003E0404003A040500350405003004040053
:104E60002C04050027040400230405001E0404008C
:104E70001A04040016040500110404000D040400C3
:104E8000090405000404040000040400FC030400F9
:104E9000F8030400F4030400F0030400EC0304002E
:104EA000E8030400E4030400E0030400DC0304005E
:104EB000D8030400D4030400D0030400CC0304008E
:104EC000C8030300C503030024F404D9201BC40C49
:104ED0005C0E9804C4095F0265077101F405F900CE
:104EE000FB04B30048048700C10369005803550060
:104EF00003034500BE023A008402310053022A0037
:104F00002902250004022000E4011C00C801190048
:104F1000AF01170098011400840113007101100003
:104F20006101100051010E0043010D0036010B001C
:104F30002B010B0020010B00150109000C010900D9
:104F400003010800FB000800F3000800EB00070065
:104F5000E4000600DE000600D8000600D2000600CD
:104F6000CC000500C7000500C2000500BD0004001C
:104F7000B9000400B5000400B1000400AD00040055
:104F8000A9000400A5000300A20003009F00040084
:104F90009B000300980003009500020093000300AB
:104FA000900003008D0002008B00030088000200C7
:104FB0008600020084000300810002007F000200DE
:104FC0007D0002007B0002007900020077000100F2
:104FD00076000200740002007200010071000200FD
:104FE0006F0002006D0001006C0002006A00010009
:104FF0006900020067000100660001006500010011
:105000006400020062000100610001006000010014
:105010005F0002005D0001005C0001005B00010018
:105020005A0001005900010058000100570001001A
:10503000560001005500010054000100530000001B
:105040005300010052000100510001005000010016
:105050004F0001004E0000004E0001004D00010015
:105060004C0001004B0000004B0001004A00010011
:10507000490001004800000048000100470001000D
:105080004600000046000100450000004500010008
:105090004400010043000000430001004200000002
:1050A00042000100410000004100010040000100F9
:1050B0003F0000003F0001003E0000003E000100F4
:1050C0003D0000003D0001003C0000003C000000ED
:1050D0003C0001003B0000003B0001003A000000E2
:1050E0003A000100390000003900010038000000DA
:1050F00038000000380001003700000037000100D0
:1051000036000000360000003600010035000000C7
:1051100035000000350001003400000034000000BC
:1051200034000100330000003300000033000100B0
:1051300032000000320000003200010031000000A7
:10514000310000003100010030000000300000009C
:10515000300001002F0000002F0000002F00000091
:105160002F0001002E0000002E0000002E00010084
:105170002D0000002D0000002D0000002D0001007A
:105180002C0000002C0000002C0000002C0001006E
:105190002B0000002B0000002B0000002B00010062
:1051A0002A0000002A0000002A0000002A00010056
:1051B000290000002900000029000000290000004B
:1051C000290001002800000028000000280000003D
:1051D0002800000028000100270000002700000030
:1051E0002700000027000000270001002600000023
:1051F0002600000026000000260000002600010016
:10520000250000002500000025000000250000000A
:1052100025000000250001002400000024000000FB
:1052200024000000240000002400010023000000EE
:1052300023000000230000002300000023000000E2
:1052400023000000230001002200000022000000D3
:1052500022000000220000002200000022000100C5
:1052600021000000210000002100000021000000BA
:1052700021000000210000002100010020000000AA
:10528000200000002000000020000000200000009E
:105290002000000020000000200001001F0000008E
:1052A0001F0000001F0000001F0000001F00000082
:1052B0001F0000001F0001001E0000001E00000073
:1052C0001E0000001E00000054726964656E6920B3
:1052D0005B416265636564615D00536F72743A207F
:1052E000205B416C7068616265745D005472696432
:1052F000656E6920202020205B4361735D00536F41
:1053000072743A2020202020205B54696D655D0076
:1053100054726964656E692020205B5A61646E6511
:105320005D00536F72743A2020202020205B4E6F66
:105330006E655D005344206361726420205B6E6F74
:10534000726D616C5D0053442063617264205B4642
:105350006C73684169725D005679626572206A619A
:105360007A796B610053656C656374206C616E675C
:10537000756167650052506920706F72742020203B
:10538000205B7A61705D0052506920706F727420EA
:10539000202020205B6F6E5D0052506920706F727C
:1053A00074202020205B7679705D00525069207057
:1053B0006F7274202020205B6F66665D00546570FC
:1053C0006C2E206B616C2E20205B7A61705D005426
:1053D000656D702E2063616C2E2020205B6F6E5DEA
:1053E000005465706C2E206B616C2E20205B7679EA
:1053F000705D0054656D702E2063616C2E20205B03
:105400006F66665D004B6F6E74722E2076656E74EB
:105410002E5B7679705D0046616E7320636865630C
:105420006B20205B6F66665D004B6F6E74722E2082
:1054300076656E742E5B7A61705D0046616E7320D6
:10544000636865636B2020205B6F6E5D00462E20D5
:105450006175746F7A61762E205B7679705D004697
:105460002E206175746F6C6F6164205B6F66665D82
:1054700000462E206175746F7A61762E205B7A610A
:10548000705D00462E206175746F6C6F6164202022
:105490005B6F6E5D00462E206175746F7A61762EAB
:1054A000205B4E2F415D00462E206175746F6C6F3E
:1054B0006164205B4E2F415D0046696C2E20736550
:1054C0006E7A6F72205B4E2F415D0046696C2E2014
:1054D00073656E736F72205B4E2F415D005679705D
:1054E0006E6F7574206D6F746F72790044697361AB
:1054F000626C6520737465707065727300506F73B1
:10550000756E6F7574206F7375004D6F76652061D1
:10551000786973005465706C6F74610054656D70C8
:105520006572617475726500473939004469736149
:10553000626C65206661726D206D6F64653F00DA94
:1055400052C852FE52EC5222531053345346536504
:1055500053585387537553AB539953CF53BD534649
:1055600061726D206E756D62657200F353E15317C1
:1055700054055444697361626C65206661726D20E4
:105580006D6F6465003B5429545F544D54835471CE
:1055900054A7549554CB54B9544D383400EC54DDD1
:1055A000540A55FD541C551455436F6E74696E753D
:1055B00065207769746820616E6F74686572206217
:1055C0006F7764656E3F002500202020202020009A
:1055D0002020202020200045524153494E47206181
:1055E0006C6C206461746100466163746F72792031
:1055F000524553455400454E41424C45440A0044EF
:10560000495341424C45440A004653656E736F72DC
:105610002000504154393132355F696E69743A2542
:10562000640A0000007F4300005243000052430020
:10563000000000000080C09A99193E0000000000A0
:105640000080C09A99193E746D63323133305F67C0
:105650006F746F5F73746570202564202564202546
:1056600064202564200A000000A0400000A0400043
:1056700000004025336420737465703D253264203A
:105680006D73636E743D2534640A005772697469E2
:105690006E6720746F2066696C653A200046696CFD
:1056A000652073656C6563746564002053697A6571
:1056B0003A200046696C65206F70656E65643A201B
:1056C000006F70656E206661696C65642C204669A8
:1056D0006C653A20004E65004E6F00416E6F0059B8
:1056E0006573008B562E002E009D56AB56B3562E7A
:1056F00000C1564E6F772066726573682066696CCC
:10570000653A20004E6F7720646F696E6720666986
:105710006C653A20002220706F7300222070617245
:10572000656E743A2200535542524F5554494E45C6
:105730002043414C4C207461726765743A220074B6
:105740007279696E6720746F2063616C6C20737569
:10575000622D67636F64652066696C657320776985
:10576000746820746F6F206D616E79206C6576654A
:105770006C732E204D4158206C6576656C206973E2
:105780003A00D856D5563E00DF56DB563E00200084
:105790003E003E00200000004041FFFFBF400000EF
:1057A0005C43FFFFBF4000005C4300004643000035
:1057B00040410000464343616E6E6F7420656E7415
:1057C0006572207375626469723A200053442063E5
:1057D000617264206F6B006F70656E526F6F742022
:1057E0006661696C656400766F6C756D652E696EB7
:1057F0006974206661696C656400534420696E6950
:1058000074206661696C0054726964656E69207306
:105810006F75626F727500536F7274696E67206680
:10582000696C6573004E656B7465726520736F7586
:10583000626F7279206E656275646F75207365742E
:10584000726964656E792E204D6178696D616C6E48
:105850006920706F63657420736F75626F72752055
:1058600070726F20736574726964656E69206A6511
:10587000203130302E00536F6D652066696C657382
:105880002077696C6C206E6F7420626520736F7274
:105890007465642E204D61782E204E6F2E206F6629
:1058A0002066696C657320696E203120666F6C64B8
:1058B000657220666F7220736F7274696E672069FB
:1058C00073203130302E00332E312E332D524331A0
:1058D000007263006265746100616C7068610064ED
:1058E000657600B6576F6B0A0020460020450047DA
:1058F00031205A00CC57D757E757FA57175807584F
:1059000076582558454550524F4D204572726F725A
:105910000048617264636F64656420446566617504
:105920006C742053657474696E6773204C6F616486
:1059300065640043657374696E6100456E676C69E8
:1059400073680050726564656872656A7465207476
:105950007279736B7521005072656865617420748B
:105960006865206E6F7A7A6C652100434859424120
:105970003A004552524F523A00506F64706F726154
:1059800000537570706F727400537461746973742E
:10599000696B612020005374617469737469637367
:1059A0002020004B616C6962726163650043616C29
:1059B0006962726174696F6E0056796A6D6F757491
:1059C0002066696C616D656E7400556E6C6F616404
:1059D0002066696C616D656E74005A6176657374DA
:1059E0002066696C616D656E74004C6F6164206641
:1059F000696C616D656E74004175746F5A6176658E
:105A000064656E692066696C2E004175746F4C6F19
:105A100061642066696C616D656E74005A61646EC4
:105A200061205344206B61727461004E6F205344B7
:105A3000206361726400506F6B7261636F76617492
:105A400000526573756D65207072696E7400506FD9
:105A50007A61737461766974207469736B00506144
:105A6000757365207072696E740050726564656844
:105A70007265760050726568656174004C61646996
:105A8000740054756E6500446F6C6164656E6920C6
:105A90006F7379205A004C6976652061646A75736A
:105AA00074205A00496E666F726D61636500496EBD
:105AB000666F2073637265656E003B5933595759A1
:105AC000435972596B594D373032008159795946D3
:105AD00061696C2073746174730096598959AD596A
